:020000040800F2
:1000000050070020150200081D0200081F0200080A
:100010002102000823020008250200080000000059
:10002000000000000000000000000000270200089F
:1000300029020008000000002B0200080523000828
:100040002F0200082F0200082F0200082F020008CC
:100050002F0200082F0200082F0200082F020008BC
:10006000551900082F0200082F0200082F0200086F
:100070002F0200082F0200082F0200082F0200089C
:100080002F0200082F0200082F0200082F0200088C
:100090002F0200082F0200082F0200082F0200087C
:1000A0002F0200082F0200082F0200082F0200086C
:1000B0002F0200082F0200082F0200082F0200085C
:1000C0002F0200082F0200082F0200082F0200084C
:1000D0002F0200082F0200082F0200082F0200083C
:1000E0002F0200082F0200082F02000800F002F87B
:1000F00000F081F814A696E8000CB244B344DA4547
:1001000001D100F078F8BAE80F000FA696E83000A9
:10011000A5EB040504EB0607AAEB0704A7F101070A
:100120004FEA15154FEA3414A4F10104AC4201D38F
:1001300000F061F813F0010F18BFFB1A43F0010340
:1001400000F001F8DBE71847903C0000B03C0000ED
:10015000103A24BF78C878C1FAD8520724BF30C8F3
:1001600030C144BF04680C60704700007047000055
:100170000023002400250026103A28BF78C1FBD8B0
:10018000520728BF30C148BF0B607047662903F093
:10019000B285692900F01081642900F00D8175296C
:1001A00000F00A816F2900F0A181782900F0C88150
:1001B0000368DB0928BF41F08001632900F05987FB
:1001C000E32900F06C87002070471FB59DE803000D
:1001D00000F062FC01F016F804000020002103F09A
:1001E000FDFC401C60600020002103F0E1FCE060A9
:1001F0001FBD10B510BD01F0EAFA1146FFF7E5FF8B
:1002000002F03EFD01F008FB03B4FFF7F2FF03BC70
:1002100001F078FB0948804709480047FEE7FEE700
:10022000FEE7FEE7FEE7FEE7FEE7FEE7FEE7FEE7A6
:1002300004480549054A064B70470000152300088D
:10024000ED0000085001002050070020500300205E
:100250005003002070B5A0FB0140B4F1805170F153
:10026000000024BF002070BD204600F044FC0500C3
:100270001CBF214600F07CFB284670BD70B50446CB
:10028000051F00F0EDFB0068002C14BF446870BD32
:10029000002C18BFAC423CBF20466468F8D301680C
:1002A0000A18AA4218BF456003D12A6805461144BE
:1002B000016028684119A1421CBF6C6070BD616873
:1002C000696021680844286070BD00000FB41CB547
:1002D000074B06AA7B4469460090059800F0A7FEEC
:1002E0000020694600F0B6FE1CBC5DF814FB00005F
:1002F0007D0D000070B5044685690068C10601D512
:10030000302600E02026C00707D070BDD4E90121C7
:1003100030469047206A401C20626D1EF6D570BDA5
:1003200070B5044685690078C00707D170BDD4E96F
:10033000012120209047206A401C20626D1EF6D5C6
:1003400070BD09684A0501D540B27047C905FCD5A2
:1003500000B2704709684A0501D5C0B27047C905A7
:10036000FCD580B2704770B50C460546012A05D011
:100370002878800600D5EA69002302E0012305E021
:100380005B1C934202D2E05C0028F9D1A869E61810
:10039000C01AA861286A184428622846FFF7AAFFF5
:1003A00004E0D5E9012114F8010B9047B442F8D3D9
:1003B0002846FFF7B5FF70BD2DE9F0410646002441
:1003C00010687529314616A510D0FFF7BAFF00282E
:1003D00002DA404213A507E031688A0701D512A569
:1003E00002E0490704D511A5012401E0FFF7B2FF9F
:1003F00000210A2206F1240709E0B0FBF2FCB0FB61
:10040000F2F302FB1C00303078541846491C0028D7
:10041000F3D123462A463046BDE8F04100F09ABBAE
:10042000000000002D0000002B0000002000000054
:100430002DE9FF5F15468A460446DFF8AC80F84494
:100440000027D8E900103E46CDE9001010E03AF848
:1004500016106A4602A800F073FE411C07D02178EE
:10046000890603D5E269391891420DD80744761CF4
:100470002078800602D5E069B84205DDAE42E6DBB1
:100480003AF816000028E2D1A069C01BA0612046FE
:10049000FFF730FFD8E90010CDE90010002017E089
:1004A0003AF818106A4602A800F04AFEB0F1FF3F81
:1004B00081460BD000250DF1080B05E0D4E90121A0
:1004C0001BF8050090476D1C4D45F7D308F101005E
:1004D000B0428046E4DB206A384420622046FFF7C1
:1004E0001FFFBDE8FF9F0000BA38000070B504464A
:1004F00021461068FFF72EFF002104F1240505E0D6
:1005000000F007023032C0086A54491C0028F7D1B5
:100510002068002308A2050708D500F02000084342
:1005200004D0E069012305A2401EE0612046BDE839
:10053000704000F00FBB0000000000003000000021
:1005400070B504460D4621461068FFF703FF218869
:10055000090502D50F4A7A4402E00E4A7A440E3267
:10056000002104F1240305E000F00F060009965D68
:100570005E54491C0028F7D120780023000704D5D9
:10058000702D02D009B1022311322046BDE870401F
:1005900000F0E0BAAA3700002DE9F05F8946044672
:1005A0004FF0000ADFF874B1FB44C0F820A02046E9
:1005B000E1688847002874D0252806D0D4E90121B5
:1005C0009047206A401C2062F1E700265F462046E3
:1005D000E16888472028054607DB312D05D27819C8
:1005E00010F8200C08B10643F1E7B00701D526F05A
:1005F0000406C4F81CA00027C4F818A02A2D09D0AE
:10060000284603F0CDFA38B304EB8708303DC8F82C
:10061000185019E059F8041B204604EB8702916139
:10062000E1688847012F054618D1E069002820DAE3
:1006300026F020061DE0D8F8180000EB800005EB3E
:1006400040003038C8F818002046E1688847054661
:1006500003F0A6FA0028EED1012F0AD02E2D08D1E2
:100660002046E16888477F1C0546022F46F0200699
:10067000C4DBA069002803DA404246F00106A0610D
:10068000F00701D026F010066C2D0BD0682D09D094
:100690004C2D39D06A2D35D0742D35D07A2D33D0EC
:1006A00016E038E0E1682F4620468847B842054604
:1006B00009D16C2F26D04FF48060E16806432046B4
:1006C0008847054604E06C2F1AD04FF4807006432B
:1006D0000DB3A5F14100192802D8203546F4006673
:1006E0004A462946204626604E46FFF74FFD80B118
:1006F00001280BD0F61D26F0070000F1080956E787
:100700004020E4E78020D8E70020D6E706F104097E
:100710004DE7284652E7206ABDE8F09F8037000089
:100720000FB400B58DB010A9099000910B904FF057
:10073000FF300A9000200C90064878440690064846
:1007400078446A4607900F9909A800F0C9FC0DB0DB
:100750005DF814FBC3090000DB0900002DE9FF5F11
:100760001D464FF0FF3B91464FF000085F46D5E92C
:100770000146A96901987F1C8847296A82468847F3
:100780000028F6D1BAF1FF3F0CD0002E24F4C0644B
:1007900019DD600614D5BAF12B0F09D0BAF12D0F6F
:1007A0000ED103E0584604B0BDE8F09F44F48064E5
:1007B000A96901987F1C8847761E8246002E02DDBB
:1007C000BAF1300F03D0B9F1000F26D032E0A96999
:1007D000761E01987F1C44F400748847002E8246E0
:1007E00005DDBAF1780F06D0BAF1580F03D0B9F190
:1007F000000F10D01EE0B9F1000F02D0B9F1100FB8
:1008000018D1A969761E01987F1C24F400748847CA
:100810008246102002E0082000E00A20814609E01C
:10082000A96908FB0908761E01987F1C44F400742E
:1008300088478246002E05DD4946504600F03BFCC5
:100840000028EDDAE96901988847A00502D46FF025
:100850000100A8E7E00725D1600613D5600502D5A1
:10086000C8F1000000E0404629680A1D2A600968B6
:10087000220501D5087015E0220701D5088011E096
:1008800008600FE02868011D29600068210502D575
:1008900080F8008006E0210702D5A0F8008001E082
:1008A000C0F8008038467EE710B5431C02E010F81F
:1008B000011B71B18107FAD14FF0013202C88C1AC5
:1008C0008C4314EAC211F9D0C01A0A0603D0C01E24
:1008D00010BDC01A10BD0A0401D0801E10BD09024F
:1008E000FCD0401E10BD032A40F2308010F0030CF3
:1008F00000F0158011F8013BBCF1020F624498BF73
:1009000011F801CB00F8013B38BF11F8013BA2F10F
:10091000040298BF00F801CB38BF00F8013B11F08A
:10092000030300F03184083AC0F0088051F8043B1A
:10093000083A51F804CBA0E80810F5E7121D5CBF97
:1009400051F8043B40F8043BAFF30080D20724BFCA
:1009500011F8013B11F801CB48BF11F8012B24BF5E
:1009600000F8013B00F801CB48BF00F8012B7047AD
:100970004FF000020429C0F0128010F0030C00F0C8
:100980001B80CCF1040CBCF1020F18BF00F8012B46
:10099000A8BF20F8022BA1EB0C0100F00DB85FEA14
:1009A000C17C24BF00F8012B00F8012B48BF00F8E0
:1009B000012B70474FF0000200B51346944696464F
:1009C000203922BFA0E80C50A0E80C50B1F1200162
:1009D000BFF4F7AF090728BFA0E80C5048BF0CC010
:1009E0005DF804EB890028BF40F8042B08BF70476E
:1009F00048BF20F8022B11F0804F18BF00F8012BE0
:100A0000704710B5044610F0030F08BF11F0030F34
:100A100040F015804FF0013E121FC0F20E8051F8D9
:100A2000043BA3EB0E0C2CEA030C1CEACE1C08BF03
:100A300040F8043BF0D0A1F1040102F10402521E7F
:100A400008DB11F8013B00F8013B002BF7D1114600
:100A5000FFF78EFF204610BD7047704770470000BB
:100A6000004870471000002070477047704770477B
:100A700038B504460A4600206946AFF300800028D6
:100A800008BF38BD02460099204600F0C5FB012092
:100A900038BD012000F094BEF8B5AFF300800546E4
:100AA00000200C460C2000BF0646A819A0420DD914
:100AB000324669460020AFF30080070008BF00F00F
:100AC0007FFE0098A04218BF0546C419FFF7C8FF73
:100AD00005600746F01D20F007004619284600F083
:100AE00095FBB44208BFF8BDA21B31463868BDE88B
:100AF000F84000F091BB70B50646FFF7B1FF0568FE
:100B000006F10B0020F00704B4429CBF002070BD2A
:100B10002B466A68BAB11068A04210D304F10801EC
:100B200088423CBF5068586007D351681019416033
:100B30001168091B016058601460101D70BD1346D8
:100B40005268002AE7D121462846FFF791FF002886
:100B5000DED170BD2DE9F0470D4699469246044618
:100B600000F124080168880604D5E06921F010012D
:100B7000216000E00120A84201DD471B00E00027C2
:100B8000A1697A1902EB0900081AA0612078C00651
:100B900002D42046FFF7AEFB002608E0D4E901218D
:100BA0001AF806009047206A401C761C20624E45C9
:100BB000F4DB2078C0060AD52046FFF79BFB06E051
:100BC000D4E9012130209047206A401C2062381E61
:100BD000A7F10107F4DC07E0D4E9012118F80500CA
:100BE0009047206A401C2062281EA5F10105F3DC15
:100BF0002046FFF795FB2078000602D50220BDE8CD
:100C0000F0870120FBE72DE9FF4F0C461E464FF011
:100C1000FF378BB0D2E90001DDF860800A908A4688
:100C2000C1F30A5505B93D46002108464FF00000C2
:100C3000BAF1000F00F4400005DA00EB80004FF439
:100C4000400101EA50004FEA9059B9F1010F00DD6F
:100C5000B9460A9850EA4A000ED044F61050A5F260
:100C6000FF3545432F14B8F1000F1ED07542291EE1
:100C70001EDDC9F100021CE0B8F1010F4FF00000C9
:100C800001D0302103E0F24305E02154401CB04282
:100C9000FBDB30460022002121540B99C1F808806B
:100CA000C1E900200FB0BDE8F08FBD1B6D1CDEE771
:100CB0004A4600DA694206A800F010FD06AB93E848
:100CC000070003AB83E8070050460A9902F08CFB4B
:100CD0008DE80700A0F500501F3800900398002D04
:100CE0000ADD42F21F014A460844002303A903908B
:100CF000684602F0F5FD09E0A0F500504A461F38AD
:100D0000002303A90390684602F0FFFD8DE8070069
:100D10000004000C03D04FF0FF30410800E0104603
:100D2000B8F1000F03D00022009215461EE0751E98
:100D300005D400F08BFA303262556D1EF9D5B346FA
:100D40000122084302D000227F1C04E020783028D2
:100D500001D100227F1E002A099784D01DE0112DA9
:100D600007DA00F073FA303262556D1C50EA010266
:100D7000F5D1084302D00098C8B10EE00021681EEA
:100D800005E0235C625C63542254401E491C81428E
:100D9000F7DBAB46A81B401E0990002004F80B00AF
:100DA0000B98099AC0F80880C0E9002B7AE7112651
:100DB0004FF0000857E72DE9F04F88460446D21D52
:100DC00022F0070191B0D1E90001CDE90A0102F05A
:100DD000D3FE02460B98C00F01D02D2007E02068FB
:100DE000810701D52B2002E0202101EAC000032A5F
:100DF000099001D0072A05DB03464146204600F052
:100E000073FA0BE12078800601D5E06900E0062046
:100E1000B8F1650F814606D0B8F1660F18D0B8F169
:100E2000670F70D131E00020B9F1110F009001DBA4
:100E3000112301E009F101030AAA01A90CA8FFF797
:100E4000E2FEDDE90C70002609F10105834647E06A
:100E500001204B4600904FF000470AAA01A90CA8B8
:100E6000FFF7D1FEDDE90DB00C995D46002610B903
:100E700009F101000D18B9EB050003D4C0F1FF36EC
:100E800009F10105A5EB09002BE0B9F1010F01DA29
:100E90004FF001090020B9F1110F0090484601DD23
:100EA000112300E003460AAA01A90CA8FFF7ABFE34
:100EB000DDE90C704D4600268346207800070AD4F1
:100EC000AB4500DA5D4601A8012D04DD411911F89A
:100ED000011C302907D04F4502DA17F1040F04DA5C
:100EE000012082460FE06D1EEEE7002F02DCED1BB5
:100EF0003E4403E0781CA84200DD7D1CB81B00F1D5
:100F0000010A4FF000472078000703D4AA4501DB0F
:100F10004FF0FF3A0021B7F1004F0DF143088DF873
:100F2000431024D002202B23002F01DA7F422D23EF
:100F30000A21021EA0F1010000DC5FB197FBF1FC69
:100F400097FBF1F201FB1C7C17460CF1300C08F802
:100F500001CDEEE7A8F1010003702188090501D554
:100F6000452100E06521A0F1010800F8011C099865
:100F70000FA9A1EB0807FF1D00B10120411901EBEA
:100F8000EA70A1693844081A401EA0612078C006A2
:100F900002D42046FFF7AEF9099828B1D4E901211F
:100FA0009047206A401C20622078C00622D5204647
:100FB000FFF7A0F91EE0002E04DBB34502DD01A817
:100FC000805D00E03020D4E901219047206A401C78
:100FD0002062761CAAF101005FEA000A0AD100F043
:100FE00011F9C0680168405CD4E901219047206A8A
:100FF000401C2062281EA5F10105DCDC07E0D4E9D5
:10100000012118F8010B9047206A401C2062381E0D
:10101000A7F10107F3DC2046FFF782F9032011B0A6
:1010200041E6000001694A1C02610878704700B57A
:101030008FB0CDE901310021059105497944CDE911
:10104000031011466846FFF7A7FA0FB000BD000075
:10105000E5FFFFFF0A6802F8010B0A60704710B550
:10106000436913B1AFF3008001E0FFF77CF9012081
:1010700010BD127800F124010A7000224A7001228A
:10108000EDE711684FF0FF32E9E710B5436913B19E
:10109000AFF3008001E0FFF7CBF9012010BD12880B
:1010A00000F1240182840022C2840122EDE711684C
:1010B0004FF0FF32E9E73A2800D2303820F0200222
:1010C000412A01D3A2F13700884201D34FF0FF300B
:1010D0007047000002681144137801601846704799
:1010E000D160054979445161044979441162002174
:1010F0001161114600F038B9EDFFFFFFE901000072
:10110000426842B1016811F8013B23B1521EC0E9A7
:101110000012184670470121C160881E704742685E
:101120005AB1C368016843B983688B4205D0491E30
:10113000521CC0E90012002070474FF0FF3070478A
:101140002DE9F04116460C46054600F053F80368B9
:1011500093F80101012807D0FF2C12D8185D80B147
:1011600001202C70BDE8F081D3F8070132462146FA
:1011700003F20713C7182846BC46BDE8F041002318
:1011800060474FF0FF30EDE710B5203AC0F00B801C
:10119000B1E81850A0E81850B1E81850A0E818506D
:1011A000203ABFF4F5AF5FEA027C24BFB1E81850E3
:1011B000A0E8185044BF18C918C0BDE810405FEA45
:1011C000827C24BF51F8043B40F8043B08BF7047C1
:1011D000D20728BF31F8023B48BF11F8012B28BFC6
:1011E00020F8023B48BF00F8012B704700487047C9
:1011F0000800002010B500F005F8001D10BD00BF6C
:10120000DD2900000048704728000020002101600F
:10121000416070470C207047034640688C460028A8
:1012200018BF88423CBF03464068F8D3186818448A
:10123000884207D00CF1030020F00700001D411A7E
:10124000521A0146081D0A60FFF718B830B5B0F110
:101250000A0271F100034FEA900E4EEA817EB0EB74
:101260000E0061EB91014FEA101E4EEA017E10EB79
:101270000E0041EB11114FEA102E4EEA016E10EBF9
:101280000E0041EB11214FEA104E4EEA014E10EBD9
:101290000E0041EB1141401841F100014FEAD0002E
:1012A00040EA41704FEAD1014FEA810444EA907468
:1012B00010EB800544EB01046D1944EB0404521B50
:1012C000A3414FF0000348BF0A3200D530BD401C97
:1012D00041F1000130BD10B50446FFF78BFF0068F7
:1012E000005D00F0010010BD2DE9F0411F460446ED
:1012F00003260168072A01F4006004DB08B116A583
:1013000005E016A503E008B115A500E015A521F03C
:1013100010002060A069C01EA0610FB1401EA06136
:101320002046FEF7E7FF4FB1D4E901213846904748
:10133000206A401C2062C01C206206E0206AFAE796
:10134000D4E9012115F8010B9047761EF8D220460A
:10135000FEF7E6FFBDE8F0814E414E006E616E0083
:10136000494E4600696E66002DE9F34F4FF0000AC2
:101370000C4656468DB001200C9001F10C000B90EC
:1013800062690B9801219047051E2DD0252D2CD088
:10139000216A8847C0B162690B9801219047216A90
:1013A00088470028F7D16269411E0B98904700E0FA
:1013B000761CA1690D988847216A88470028F7D1D3
:1013C000E1690D988847DBE7A1690D988847A84235
:1013D000074601D1761CD3E7E1690D9888477F1C49
:1013E00002D1BAF1000F6FD06BE162690B98002750
:1013F0003D46394690472A2804D162690B9801215D
:1014000090470125DFF8D08262690B98012190474F
:10141000A0F130010A290AD24745E5DC07EB870134
:1014200000EB4107303FDFD445F01005ECE7E9065B
:1014300001D46FF000476C280AD04C2814D06828DB
:1014400015D06A280DD074281CD07A281AD01DE037
:1014500062690B98012190476C2802D045F0040581
:1014600014E045F002050DE045F020050AE0626950
:101470000B9801219047682802D045F0080505E047
:1014800045F4006562690B9801219047C4E9015752
:1014900065283DD019DC58287AD00CDC452837D097
:1014A00004DC252826D041289ED131E046282FD0C3
:1014B000472899D12CE05B2877D0612828D0632871
:1014C0007CD0642823D15AE0F6E06F2848D008DCAD
:1014D00066281DD067281BD0692821D06E2816D118
:1014E00027E0702845D0732868D0752847D0782821
:1014F0000DD14DE0A1690D988847252805463FF498
:1015000069AFE1690D9888476D1C3FF46AAFD8E078
:101510000D9923466A466FF00100AFF30080C5E0E5
:1015200045F0400023464FF000026060A80736D423
:101530003EE0E8077FF447AF2068011D21600068A6
:10154000290501D506701BE7290701D5068017E795
:10155000A90703D5F117C0E9006111E706600FE79D
:1015600045F0400023464FF008026060A80716D4FB
:101570001EE040F60E0125EA0100606016E045F02D
:10158000400023464FF00A026060A80707D40FE02E
:1015900045F040006060A80708D5234610220D9949
:1015A0006FF00100AFF3008080E007E010222346D7
:1015B0000D996FF00100FFF7D1F877E04FF00009C7
:1015C00063284F46C8464B46CB4602D05B2806D020
:1015D00038E0E80601D40120A060012732E062690A
:1015E000D4F80CB00B98012190475E2807D14FF03A
:1015F000010949466269D4F80CB00B9890472169FB
:1016000039B900210A4603AB43F82120491C0829B7
:10161000FADBD8B3216949B308F1010862690B9874
:10162000012190475D28F4D1B9F1000F09D00020C5
:1016300003A951F82020D24341F82020401C08285B
:10164000F7DB03AB2069002820794FEA40701ED0F9
:101650005B462246CDF80080CDE901970D99002820
:101660006FF0010020DAAFF300801FE0C11703AA7A
:1016700000EBD1614B1121F01F0102EB8302411AF3
:1016800013680120884003431360C7E719E00D99F0
:10169000224600286FF00100009702DAAFF30080C5
:1016A00004E0AFF3008001E0AFF3008000280ADA25
:1016B000401C06D10C9820B14FF0FF300FB0BDE8B0
:1016C000F08F5046FAE7E90701D10AF1010A064412
:1016D00000200C9054E60000CCCCCC0C2DE9F04757
:1016E000814616468AB0354878440DC88DE80D000D
:1016F00032487844801C03AC0DC884E80D0041F6E4
:101700009B300844372190FBF1F290FBF1F5A5F1F5
:10171000800501FB12041B3C02D56442012000E05D
:101720000020DFF898A080460027FA44AAF1BE0AFC
:101730000EE0E0070AD03246684607EB4701012376
:101740000AEB810102F0E1F88DE8070064107F1CCC
:10175000002CEED1194F7F44AE3F19E0E80715D0B9
:1017600007EB04100DF1180A90E80E008AE80E004D
:10177000C068F04201D1981908903246012306A9A9
:1017800003A802F0C2F803AB83E807006D10641CE5
:10179000002DE3D14FF0010332466946B8F1000F46
:1017A00003A802D002F09CF801E002F0AEF8C9E90B
:1017B0000001C9F808200AB0BDE8F087D026000073
:1017C00010B500F037F8BDE8104000F02EB87546AF
:1017D000FFF70CFDAE4605006946534620F00700B2
:1017E000854618B020B5FEF723FDBDE820404FF038
:1017F00000064FF000074FF000084FF0000BAC461A
:10180000ACE8C009ACE8C009ACE8C009ACE8C00964
:1018100021F007018D46704710B50446AFF30080F4
:101820002046BDE81040FEF7EFBC002801D000F0D4
:1018300069B8704710B5012805D0002103A000F059
:1018400068F8012010BD09A1F8E70000534947528C
:10185000544D454D3A204F7574206F662068656180
:1018600070206D656D6F7279000000003A20486548
:101870006170206D656D6F727920636F7272757023
:10188000746564004FF0013C50F8042B51F8043BA0
:101890009A4221D1A2EB0C03934313EACC1317D144
:1018A00050F8042B51F8043B9A4215D1A2EB0C03DB
:1018B000934313EACC130BD150F8042B51F8043B9B
:1018C0009A4209D1A2EB0C03934313EACC13DBD069
:1018D0004FF00000704700BFD01A01BAB1FA81F191
:1018E00001F0180122FA01F0CB40DBB2C0B2C01AFD
:1018F000C1F120012CFA01F3D11A914311EAC3116D
:10190000E6D1704701491820ABBEFEE72600020071
:10191000704770B505460C460A2000E06D1C00F0CB
:1019200011F835B128780028F8D102E0641C00F0E5
:1019300009F814B120780028F8D1BDE870400A20D9
:10194000AFF3008008B569468DF800000320ABBEF8
:1019500008BD000040F2D800C2F200000121017071
:1019600040F21440C4F20100016841F0040101603A
:1019700070470000F0B581B040F60C07C4F20107D3
:101980000C463968054621F010003860012001F04E
:1019900001FD01F0D1FC002001F0FCFC01F0CCFCC9
:1019A000396841F010013960DFE804F0040B2B0FB7
:1019B0002B07130000F0F8060EE000F0F800461DBB
:1019C0000AE000F0F800461C06E000F0F800C61C33
:1019D00002E000F0F800861D2C60386820F010004E
:1019E0003860812001F0D6FC01F0A6FC304601F001
:1019F000D1FC01F0A1FC386840F01000386001B063
:101A0000F0BD00002DE9F041044601F021FC41F257
:101A10001800C4F202000168002541F001010160D4
:101A200040F60000C4F20100016840F60C0621F403
:101A3000807101600168C4F2010621F40071016047
:101A400001684FF0010841F480610160016821F4F0
:101A5000006101604FF60801CFF6FF71425822F491
:101A6000706242504FF60041CFF6FF71425842F08B
:101A7000040242504FF60841CFF6FF71425842F03F
:101A8000040242504EF20011CEF2000181F80853D8
:101A90004FF480720A60016841F010010160016832
:101AA00041F020010160016821F0400101600168FE
:101AB00021F080010160306840F002003060306841
:101AC00020F002003060012000F0F2FC306840F0AD
:101AD00002003060642000F0EBFC306820F0100061
:101AE0003060012001F056FC01F026FC002001F0DE
:101AF00051FC01F021FC316841F01001316025609A
:101B00003168054621F010003060812001F042FC70
:101B100001F012FC05F0F80001F03CFC01F00CFCB7
:101B2000306840F0100030600A2000F0C1FC3068DE
:101B300020F010003060012001F02CFC01F0FCFBD3
:101B4000002001F027FC01F0F7FB3168054641F069
:101B5000100030600A2000F0ABFC306845F08005D2
:101B600020F010003060812001F014FC01F0E4FB53
:101B7000284601F00FFC01F0DFFB306840F0100058
:101B80003060642000F094FC6568306820F010003C
:101B90003060862001F0FEFB01F0CEFBC5F387002C
:101BA00001F0F8FB01F0C8FB306840F01000306035
:101BB000052000F07DFC3068AD0120F010003060A1
:101BC000872001F0E7FB01F0B7FBE8B201F0E2FB90
:101BD00001F0B2FB306840F010003060052000F0EA
:101BE00067FC306820F010003060882001F0D2FBE4
:101BF00001F0A2FB002001F0CDFB01F09DFB30685D
:101C000040F010003060052000F052FC657B306829
:101C100020F010003060892001F0BCFB01F08CFB4B
:101C2000284601F0B7FB01F087FB306840F0100058
:101C300030600A2000F03CFCA07B4CF6CD422D2801
:101C400098BF2D20F02828BFF020A0F12D01CCF660
:101C5000CC42A1FB021249F69A1300F11E01C1F613
:101C60009913A1FB0313792838BF9308306843F018
:101C7000200520F0100030608B2001F08BFB01F07C
:101C80005BFBE8B201F086FB01F056FB306840F0E8
:101C9000100030600A2000F00BFC306820F01000CB
:101CA00030608C2001F076FB01F046FB232001F030
:101CB00071FB01F041FB306840F01000306030688B
:101CC00020F0100030601E2001F064FB01F034FBB6
:101CD000002001F05FFB01F02FFB316840F00705A9
:101CE00041F010013160316821F0100030609E2019
:101CF00001F050FB01F020FB284601F04BFB01F006
:101D00001BFB306840F0100030600A2000F0D0FB70
:101D1000277A0C2FA8BF0C273068072F20F010005F
:101D2000D8BF072730601E2001F034FB01F004FB10
:101D3000002001F02FFB01F0FFFA3168054641F069
:101D4000100030600A2000F0B3FB316805F00F008E
:101D500040EA071521F0100030609E2001F01AFBC8
:101D600001F0EAFA284601F015FB01F0E5FA3068C7
:101D700040F0100030600A2000F09AFB306820F03C
:101D8000100030609F2001F005FB01F0D5FAFF2024
:101D900001F000FB01F0D0FA306840F01000306034
:101DA000306820F0100030601D2001F0F3FA01F0DF
:101DB000C3FA002001F0EEFA01F0BEFA316841F0FA
:101DC00010013160617AA27A40EA0110316840EA7C
:101DD000420521F0100030609D2001F0DBFA01F097
:101DE000ABFAE8B201F0D6FA01F0A6FA306840F09A
:101DF00010003060257B306820F010003060A0209B
:101E000001F0C8FA01F098FA284601F0C3FA01F08F
:101E100093FA306840F010003060E57A306820F0C6
:101E200010003060A12001F0B5FA01F085FA2846D3
:101E300001F0B0FA01F080FA306840F01000306034
:101E4000306820F010003060402001F0A3FA01F06B
:101E500073FA002001F09EFA01F06EFA316840F04A
:101E60003F0541F010013160316821F01000306011
:101E7000C02001F08FFA01F05FFA284601F08AFADB
:101E800001F05AFA306840F010003060306820F0FD
:101E900010003060012001F07DFA01F04DFA0020C1
:101EA00001F078FA01F048FA316800F0F80041F0EA
:101EB00010013160C4F800803168451C21F0100029
:101EC0003060812001F066FA01F036FA284601F010
:101ED00061FA01F031FA306840F0100030600A20F9
:101EE000C4F8008000F0E4FA306820F010003060A0
:101EF000422001F04FFA01F01FFA002001F04AFAE7
:101F000001F01AFA3168122841F010014FF4CA703A
:101F100008BFC8203160BDE8F08100002DE9F0471E
:101F200040F60C07C4F2010788463968044621F0E0
:101F30001000386001209146012501F02BFA01F0D4
:101F4000FBF900204FF0000A01F024FA01F0F4F947
:101F5000396800F0F80041F01001396025603968F7
:101F6000461C21F010003860812001F013FA01F0C6
:101F7000E3F9304601F00EFA01F0DEF9386840F07E
:101F800010003860386820F010003860122001F02E
:101F900001FA01F0D1F9002001F0FCF901F0CCF9CF
:101FA0003968400641F0100139606DD5386820F07D
:101FB00010003860922001F0EDF901F0BDF9FF202A
:101FC00001F0E8F901F0B8F9386840F01000386025
:101FD000386820F010003860132001F0DBF901F0C0
:101FE000ABF9002001F0D6F901F0A6F93968824674
:101FF00041F010013960396821F01000386010207C
:1020000001F0C8F901F098F9002001F0C3F901F0DE
:1020100093F93968064641F010013960396821F0BA
:10202000100038608D2001F0B5F901F085F93046D7
:1020300001F0B0F901F080F93868322140F0100069
:1020400038604046D14538BFCA46FEF791FCBAF128
:10205000000F19D0A8F10106554600BF386820F0DE
:1020600010003860002001F095F901F065F90020BA
:1020700001F090F901F060F93968013D41F010017B
:10208000396006F8010FE9D1386820F01000386097
:10209000012001F07FF901F04FF9002001F07AF9F9
:1020A00001F04AF9396800F0F80041F01001396098
:1020B000052121603968441D21F01000386081201D
:1020C00001F068F901F038F9204601F063F901F0F8
:1020D00033F9386840F0100150463960BDE8F087A8
:1020E000B0B540F60C05C4F201052968044621F09C
:1020F00010002860012001F04DF901F01DF90020C9
:1021000001F048F901F018F9296800F0F80041F0F1
:1021100010012960052121602968441D21F010006B
:102120002860812001F036F901F006F9204601F01F
:1021300031F901F001F9286840F010002860B0BDC5
:102140002DE9F04740F60C04C4F201048246D0F8B1
:10215000008020681E4620F01000206001201546F7
:102160008946012701F016F901F0E6F8002001F098
:1021700011F901F0E1F8216800F0F80041F01001D8
:102180002160CAF800702168471C21F0100020600F
:10219000812001F0FFF801F0CFF8384601F0FAF89D
:1021A00001F0CAF8206840F010002060206820F09C
:1021B000100020600E2001F0EDF801F0BDF80020C5
:1021C00001F0E8F801F0B8F82168074641F0100185
:1021D0002160216821F0100020608D2001F0DAF8E4
:1021E00001F0AAF8384601F0D5F801F0A5F820680A
:1021F00040F010002060206820F010002060A22035
:1022000001F0C8F801F098F8284601F0C3F801F091
:1022100093F8206840F010002060206820F0100043
:102220002060802001F0B6F801F086F8012000F06F
:102230003FF9484601F08EF8206840F01000206019
:10224000206820F010002060012001F0A3F801F0C8
:1022500073F8002001F09EF801F06EF8216800F09C
:10226000F80041F0100121600321CAF80010216834
:10227000C51C21F010002060812001F08BF801F0D6
:102280005BF8284601F086F801F056F8206840F027
:1022900010002060206820F010002060122001F063
:1022A00079F801F049F8002001F074F801F044F8E1
:1022B0002168000741F01001216006D4013E30047E
:1022C00017D0012000F0F4F8E4E7206820F01000B7
:1022D0002060922001F05EF801F02EF8FF2001F05E
:1022E00059F801F029F82068012540F0100020601D
:1022F00000E0002550464146FFF73CFB2846BDE87C
:10230000F087000040F26800C2F20000016801316D
:102310000160704782B041F20400C4F2020050F83C
:10232000041C002241F0010140F8041C0168CFF6B2
:10233000FF021140016050F8041C4FF6FF72CFF607
:10234000F662114040F8041C50F8041C21F480216E
:1023500040F8041C016821F4FE0101604FF41F01E4
:10236000416000210191009150F8041C41F480313A
:1023700040F8041C50F8041C01F40031009101994C
:1023800001310191009919B90199B1F5A06FF1D10D
:1023900050F8041C890354BF0021012100910099C9
:1023A000012936D142F20001C4F202010A6842F06A
:1023B00010020A600A6822F007020A600A6842F006
:1023C00002020A600168016001680160016841F46D
:1023D00080610160016821F47C110160016841F4B1
:1023E000E811016050F8041C41F0807140F8041CB1
:1023F00050F8041C8901FBD5016821F0030101603C
:10240000016841F002010160016801F00C01082936
:10241000FAD14EF60850CEF200004FF00061016094
:1024200002B0704741F21800C4F20200016841F4A2
:1024300000710160016841F00401016042F208404E
:10244000C4F2010050F8041C41F4006140F8041C7F
:10245000016821F400610160016821F0020101605E
:1024600050F8041C41F4604140F8041C016841F438
:10247000602101604FF47001416248F62001C0F60E
:102480004121C1624AF2E601C1F2A46181624BF6C8
:10249000AC11C0F2070141627047000080B5012015
:1024A000002100F02FFE0520BDE88040AFF3008042
:1024B000002808BF704780B54EF21001CEF200012F
:1024C0004FF0470C4FF0000E06E000BF0A680138DD
:1024D00022F001020A601AD00A6842F004020A607F
:1024E000C1F804C0C1F808E00A6842F001020A60BD
:1024F0004FF47A7202E000BF002AE7D00B68DB03DA
:10250000FAD50B68013A23F480330B60F4E7BDE899
:10251000804070474EF21001CEF200010A6842F08E
:1025200004020A604FF047024A604FF000028A60DE
:102530000A6842F001020A6030B9086820F0010020
:10254000086070470028F8D00A68D203FAD50A68F4
:10255000013822F480320A60F4E700002DE9F04FE0
:10256000CDB005460778D0F801006E7A04BAD5F8E8
:102570000500322190FA80F922A800F10A0A50469B
:102580008DF890702294CDF88C908DF89160FEF7C4
:10259000EFF92EB105F10A0150463246FEF7A3F9D4
:1025A000B81E052800F2B482DFE810F00600A10092
:1025B000B202B2020A01570143F6D450C0F600003D
:1025C00040F2D0060568C2F200063068A94540F026
:1025D0005B81A84200F0588147F6AB70C0F2311021
:1025E00040F21C1914900320C2F200098DF8540027
:1025F00048461395FEF758F906468DF8550013A87E
:1026000000F10A0738463221FEF7B2F9384649464A
:102610003246FEF7F6F9BDF8540016AF1290BDF839
:102620005600DDE91CE911901B989ECF1090DDE962
:1026300020B0DDE91E8C0F901198CDF8E290ADF836
:10264000C40010980DF1F809CDF8DA000F98149E27
:10265000CDF8C610CDF8F20048463C21CDF8CA208E
:10266000CDF8CE30CDF8D240CDF8D670CDF8DEE042
:10267000CDF8E680CDF8EAC0CDF8EEB0FEF79AF9D5
:10268000280E8DF8F900280C8DF8FA00280A129906
:102690008DF8FB00300E8DF8FD00300C8DF8FE003B
:1026A000300A0A0A8DF8F8108DF8FC508DF8FF00FA
:1026B0008DF800618DF8012104D009F10A0031A9DB
:1026C000FEF711F940F27800C2F200003EA93C2268
:1026D0004FF47A73FFF734FD139840F2D401C2F23D
:1026E000000140F2D0060860C2F2000630E140F27C
:1026F000D405C2F20005286884425FD00520FFF7A8
:10270000D7FEBDF892002599ADF84C002698CDF87B
:102710004E102799CDF852002898CDF856102999D7
:10272000CDF85A002A98CDF85E102B99CDF86200AA
:102730002C98CDF866102D99CDF86A002E98CDF81A
:102740006E102F99CDF8720030980DF1F808BDF891
:102750009060229FCDF87610239CCDF87A004046F9
:102760003C21FEF727F9380E8DF8F900380C8DF86A
:10277000FA00380A8DF8FB00200E8DF8FD00200CC1
:102780008DF8FE00200A320A8DF8F8608DF8FC7092
:102790008DF8FF008DF800418DF8012104D008F17B
:1027A0000A0013A9FEF79FF840F27800C2F2000079
:1027B0003EA93C224FF47A73FFF7C2FC2298A6E1AF
:1027C00043F6D450C0F6000040F2D0080168C2F2CF
:1027D0000008D8F80000894540F0CB80884200F01E
:1027E000C88040F2870040F2DC02C2F200000621FD
:1027F000C2F20002017002F13C0002F1340102F168
:10280000380302F1300702F12C0602F124040DF125
:10281000200CCDE90B310D9002F1200002F11C01DA
:1028200002F114038CE8D00002F1280C02F1180622
:1028300002F1100402F10C05171DCDE904310690D8
:1028400002F10803B4A15046CDE90075CDE9024676
:10285000CDF81CC0FDF764FFEEE043F6D450C0F69F
:10286000000040F2D0050168C2F2000528688945E1
:1028700040F0E880884200F0E58040F28700C2F234
:1028800000000721017041E1A94518BF48456BD000
:102890000520FFF70DFEBDF892002599ADF84C001C
:1028A0002698CDF84E102799CDF852002898CDF8EB
:1028B00056102999CDF85A002A98CDF85E102B9918
:1028C000CDF862002C98CDF866102D99CDF86A00ED
:1028D0002E98CDF86E102F99CDF8720030980DF12A
:1028E000F808BDF89050229FCDF87610239CCDF8C3
:1028F0007A0040463C21FEF75DF8380E8DF8F9006D
:10290000380C8DF8FA00380A8DF8FB00200E8DF88F
:10291000FD00200C8DF8FE00200A2A0A8DF8F850E0
:102920008DF8FC708DF8FF008DF800418DF80121C5
:1029300004D008F10A0013A9FDF7D5FF40F2780092
:10294000C2F200003EA93C224FF47A73FFF7F8FB75
:1029500040F26C02C2F2000202F10807131D7AA1D4
:1029600050460097FDF7DCFE239830604DB0BDE87F
:10297000F08F894518BF48455ED00520FFF798FDC8
:10298000BDF892002599ADF84C002698CDF84E1070
:102990002799CDF852002898CDF856102999CDF8EE
:1029A0005A002A98CDF85E102B99CDF862002C9829
:1029B000CDF866102D99CDF86A002E98CDF86E10DE
:1029C0002F99CDF8720030983EACBDF89060229FF0
:1029D000CDF87610239DCDF87A0020463C21FDF7F6
:1029E000E9FF380E8DF8F900380C8DF8FA00380A36
:1029F0008DF8FB00280E8DF8FD00280C8DF8FE00E8
:102A0000280A320A8DF8F8608DF8FC708DF8FF0006
:102A10008DF800518DF8012104D004F10A0013A9AA
:102A2000FDF761FF40F27800C2F200003EA93C22AF
:102A30004FF47A73FFF784FB2398C8F800004DB079
:102A4000BDE8F08F894518BF48455FD00520FFF7E6
:102A50002FFDBDF892002599ADF84C002698CDF8D1
:102A60004E102799CDF852002898CDF85610299984
:102A7000CDF85A002A98CDF85E102B99CDF8620057
:102A80002C98CDF866102D99CDF86A002E98CDF8C7
:102A90006E102F99CDF8720030980DF1F808BDF83E
:102AA0009060229FCDF87610239CCDF87A004046A6
:102AB0003C21FDF77FFF380E8DF8F900380C8DF8BA
:102AC000FA00380A8DF8FB00200E8DF8FD00200C6E
:102AD0008DF8FE00200A320A8DF8F8608DF8FC703F
:102AE0008DF8FF008DF800418DF8012104D008F128
:102AF0000A0013A9FDF7F7FE40F27800C2F20000C9
:102B00003EA93C224FF47A73FFF71AFB2398286002
:102B10004DB0BDE8F08F00BF2564202564202564FA
:102B20002025642025642025642025642025642038
:102B30002564202564202564202564202564202523
:102B400064202564202564002564202564202564F4
:102B5000000000000178002908BF704710B5441E2E
:102B6000C8B2012100F0CEFAA17801340029F7D1D2
:102B7000BDE810407047000080B50022002908BF62
:102B800080F08002012908BFA0F14002D0B20021EC
:102B900000F0B8FA6420BDE88040FFF7BBBC00003D
:102BA00080B541F21801C4F202010A6840F6004003
:102BB00042F00802C4F201000A60002101606FF0D7
:102BC00003014FF0010C4FF0020E00BF0431026808
:102BD0000CFA01F31A43026002680EFA01F31A4379
:102BE0001B290260F2D3002141606FF003014FF016
:102BF000010C4FF0020E00BF043142680CFA01F3E1
:102C00001A43426042680EFA01F31A431B294260DC
:102C1000F2D301200621FDF71DFB40F29801C2F21C
:102C2000000108604BF61021C8F26571016040F6A2
:102C3000C95181800E20002100F064FA0520FFF7C1
:102C400037FC3C20002100F05DFA0520FFF730FC46
:102C50000C20002100F056FA0520FFF729FC012086
:102C6000002100F04FFA0520FFF722FC022000218E
:102C700000F048FA0520BDE88040FFF719BC0000CD
:102C800094B007A800F050F940F27804DDE907019C
:102C9000DDF82720C2F20004099BC4F80B2084E869
:102CA0000B00FFF77DFF2046FEF7ACFEC82814D0CE
:102CB00040F278058BA4C2F2000500BF002000217D
:102CC000FFF75AFF2046FFF745FF6420FFF7F0FBB0
:102CD0002846FEF797FEC828F0D1FFF7A3FB00F0C7
:102CE0004DF9642000F094F90020002400F080F9F0
:102CF000012000F037F9FFF7D1FB40F27800C2F273
:102D00000000FFF7EDF94FF4FA60FFF7D1FB00F098
:102D10004DFBFFF7C3FB40F287064CF6CD40C2F2F5
:102D20000006C3F68C70C6F80A0043F23330C4F2D2
:102D3000530040F26C0340F2D80840F29C0BC6F8F6
:102D400006000620C2F20003C2F20008C2F2000B25
:102D50000025C6F8014030700F211E2207C30CE089
:102D6000642070717079E9B2884218BF00F040F9B0
:102D700075794FF47A70FFF79BFB032000F054F94C
:102D8000C0F58050C6F8010000F0DCF800200021FA
:102D9000FFF7F2FE07AC20463221FDF70BFE47F6A7
:102DA000AD72204653A1C0F23112FDF78FFA2046D2
:102DB000FFF7D0FE00200121FFF7DEFE2046322182
:102DC000FDF7F8FD3078727907284FA14BA008BFB6
:102DD00001462046FDF77AFA2046FFF7BBFE98F839
:102DE0000000D8B3069540F21C15C2F20005284633
:102DF0003221FDF7DFFDD6F80600D6F8017096F80F
:102E0000058000F007FF8146D6F80A008A4600F0E8
:102E100001FF32780C460290049228463DA13A46C2
:102E20004346CDE9009A0394FDF750FA5846322103
:102E3000FDF7C0FD40F27800C2F2000059463C2286
:102E4000FFF76CF810B15846FFF788FB40F2D8083E
:102E50000020C2F2000888F80000069D307806289D
:102E60000CD007287FF47EAFD6F80100B0F5FA6FDA
:102E70004FF0000098BF322073E700BF40F26C00B3
:102E8000C2F20000D0E900100023A1F11207B7FA46
:102E900087F77F098A1F3C2838BF01231F400C2A6F
:102EA0003A46A1F1130438BF1A46032C4FF0000430
:102EB00038BF0124234008BF002A06D0002F18BFC6
:102EC0003227002B18BF4B2777711629A8BFB0F106
:102ED000FF3F3FF745AF0529D8BF3B283FF742AF3B
:102EE0003EE700BF506C6561736520576169742EC1
:102EF0002E2E210049443A20256400004175746F4C
:102F00002C202564000000004D616E75616C2C2042
:102F100025640000256420256420252E32662025A6
:102F20002E3266202564000040F2B111416040F26B
:102F300007710181012181720821C6F2FF41C0F8A9
:102F40000B10704710B543F20004C4F200044AF6B7
:102F5000AA2020600320FFF7ABFA4CF6CC4020609B
:102F600010BD00004FF080410A88002818BF0120E2
:102F700022F00102104408807047000041F218005E
:102F8000C4F20200416841F001014160016841F072
:102F90000401016040F60000C4F20100016841F044
:102FA0000B010160016821F0040101604FF08040D5
:102FB000018821F0100101802020C4F20000018866
:102FC00041F001010180018821F00201018030F807
:102FD000081C41F0680120F8081C00218180018153
:102FE00030F80C1C41F0010120F80C1C7047000067
:102FF000642888BF70472C21C4F200010A8850431E
:1030000045F62942C0F28F22A0FB02020A817047D6
:1030100040F20001C2F200010968B1FBF0F02C217E
:10302000C4F2000108807047B0B540F60003C4F256
:10303000010381004FF0010C1D680CFA01F225EA32
:1030400002021A604A1C1D680CFA02F225EA02020A
:103050001A608A1C1D680CFA02F225EA02021A6044
:1030600003311A680CFA01F142F2344422EA0101F8
:10307000C4F20104196000EB4001072254F8243C1B
:1030800002FA01F1194344F8241C216800EB800581
:1030900021FA05F0216800F01F00084320601F207E
:1030A0002168A84021EA0000206054F82C0C40F070
:1030B000010044F82C0C0A20FFF7FAF954F82C0C04
:1030C00040F0010044F82C0C0A20FFF7F1F954F805
:1030D0002C0C40F4800044F82C0C00BF54F8340C45
:1030E0008007FBD52068216800F01F00A840084336
:1030F0002060206820F01F002060A0696FF31F305F
:10310000B0BD000070B540F29806C2F20006326809
:103110000446107840F60C4500F00F000122C4F27E
:10312000010502FA00F00029296814BF084321EACA
:10313000000028603220FFF7EDF930680122417865
:10314000E3074FEA111102FA01F12A680CBF22EAE3
:103150000101114329608178012201F00F0102FA77
:1031600001F1A3072A6854BF22EA01011143296033
:1031700081780122090902FA01F163072A6854BF24
:1031800022EA010111432960C178012201F00F01F7
:1031900002FA01F123072A6854BF22EA0101114310
:1031A0002960C1780122090902FA01F1E3062A68BF
:1031B00054BF22EA0101114329600179012201F083
:1031C0000F0102FA01F1A3062A6854BF22EA0101A5
:1031D0001143296001790122090902FA01F163060C
:1031E0002A6854BF22EA0101114329604179012371
:1031F00062B203FA01F1B2F1FF3F2A68CCBF22EAC2
:103200000101114329604078012400F00F00296872
:1032100004FA00F021EA000028600A20FFF77AF99A
:1032200030684078296800F00F0004FA00F0084385
:1032300028600A20FFF76EF930684078296800F0AE
:103240000F0004FA00F021EA0000286070BD0000C1
:1032500041F21800C4F20200016841F0010101606E
:10326000016841F480510160016841F0040101608E
:1032700040F60000C4F20100016841F0405141F401
:103280004C110160016821F480210160016821F482
:1032900000210160016841F400010160016821F42E
:1032A00080010160016821F080710160016821F0F6
:1032B00000710160016841F080610160016821F0E6
:1032C00000610160016821F080410160016841F006
:1032D00000410160C16841F01001C16043F200008B
:1032E000C4F20100018841F004010180018821F449
:1032F00000510180018821F400610180018821F4DE
:1033000080610180018821F080010180018841F005
:1033100010010180818841F004018180018821F041
:1033200001010180018821F002010180018841F042
:10333000400101807047000043F20800C4F2010020
:1033400001880906FCD400BF0188C907FCD0808829
:10335000C0B270470278002A08BF704743F20801E4
:10336000C4F201010B881B06FCD4D2B28A8000BFD4
:103370000A889207FCD500BF0A881206FCD400BF59
:103380000A88D207FCD08A8810F8012F002AE9D1D8
:103390007047000043F20801C4F201010A881206D6
:1033A000FCD4888008888007FCD5704741F224004F
:1033B000C4F20200016841F001010160016889075F
:1033C000FCD543F20000C4F2000045F25551016003
:1033D000C1688907FCD10621416040F6FF71816018
:1033E0004CF6CC41016070475FEA400C08BF91F099
:1033F000000F4FEA8C234FEAC12243EA51514FEAB2
:103400001C5018BF00F5F0404FEA300018BF41F0E3
:1034100000415FEA6C5C00F02980BCF1FF3F08BF0F
:1034200040F080407047130C06BF12044FF0100CA0
:103430004FF0000C130E04BF12020CF1080C130F16
:1034400004BF12010CF1040C930F04BF92000CF1A5
:10345000020CD30F04BF52000CF1010C11464FF0C7
:103460000002A0F11F00A0EB0C00704711F0004F0C
:1034700008BF704731F000413FF4D5AF0B0C06BFD9
:1034800009044FF0100C4FF0000C0B0E04BF0902A2
:103490000CF1080C0B0F04BF09010CF1040C8B0F8D
:1034A00004BF89000CF1020CCB0F04BF49000CF1E2
:1034B000010CCCF1200322FA03F341EA030102FAE2
:1034C0000CF2A0EB0C0000F10100704723F07F47E5
:1034D00020F07F4C80EA030000F00040ACEB0703D3
:1034E00003F57C5303F1FF032DE9804909B44FEA4A
:1034F000144324EA03484FEA154B25EA0B4E0FF21A
:10350000042606EB13273E7803FB0667C7F5000782
:1035100007FB06F64FEAD64606F102064FEA543795
:1035200007FB066CCCF1005C4FEA1C472CEA074C09
:103530000CFB06F507FB06F404EB15464FEA96165E
:1035400049085FEA320234BF00204FF000404FEAE2
:10355000D13706FB07FC4FEA1C4C0CFB0BF7D21BC8
:1035600003FB0CF761EB07010CFB0EF7B0EB074018
:1035700072EB17420CFB08F734BFA2EB0742B2EB29
:10358000074261EB17414FEA0C444FEA910706FBF3
:1035900007FC4FEA1C4C0CFB0BF7B0EBC74072EB7F
:1035A000573203FB0CF734BFA2EBC742B2EBC74262
:1035B00061EB57310CFB0EF7B0EBC70072EB5772A3
:1035C0000CFB08F734BFA2EBC702B2EBC70261EBFA
:1035D00057714FEA816141EA92114FEA826242EAF1
:1035E00090124FEA806004EBCC04039F4FEAD1377E
:1035F00006FB07FC4FEA1C4C0CFB0BF7D21B03FB32
:103600000CF761EB07010CFB0EF7B0EB074072EB18
:1036100017420CFB08F734BFA2EB0742B2EB07429C
:1036200061EB17414FEA8C5504EB9C244FEA91075C
:1036300006FB07FC4FEA1C4C0CFB0BF7B0EBC7403A
:1036400072EB573203FB0CF734BFA2EBC742B2EB6D
:10365000C74261EB57310CFB0EF7B0EBC70072EBC2
:1036600057720CFB08F734BFA2EBC702B2EBC702DC
:1036700061EB57714FEA816141EA92114FEA826230
:1036800042EA90124FEA806015EB4C2544F10004A9
:103690004FEAD13706FB07FC4FEA1C4C0CFB0BF73B
:1036A000D21B03FB0CF761EB07010CFB0EF7B0EB31
:1036B000074072EB17420CFB08F734BFA2EB07423E
:1036C000B2EB074261EB17414FEA813141EA924187
:1036D0004FEA823242EA90424FEA80304FEA0C765B
:1036E00015EB1C1544F1000448EA03434EEA0B486D
:1036F0004FF0000EB2EB080C71EB030724BF6246DB
:1037000039464EEB0E0E4FF0000B00185241494166
:103710004BEB0B0BB2EB080C71EB03077BF1000BCF
:1037200024BF624639464EEB0E0E4FF0000B0018D8
:10373000524149414BEB0B0BB2EB080C71EB030709
:103740007BF1000B24BF624639464EEB0E0E51EA68
:10375000020718BF46F0010616EB0E7655F100027F
:1037600054F1000103D5BDE88901BDE80088BDE83A
:103770008901BDE80048B619524141EB0101A3F1AE
:103780000103704780807F7E7D7C7B7A79787776B5
:1037900076757473727171706F6E6E6D6C6C6B6A2E
:1037A0006A696868676666656464636362616160CC
:1037B000605F5F5E5E5D5D5C5C5B5B5A5A59595849
:1037C00058575756565555555454535352525251B3
:1037D000515050504F4F4F4E4E4D4D4D4C4C4C4B09
:1037E0004B4B4A4A4A494949484848474747474650
:1037F000464645454544444444434343434242428C
:10380000424141419C46002B30D477002BD04FEAF7
:1038100037071CB503B44FF010004FF01001BAF198
:10382000000F06D0BCF1000FDCBF40F0080040F0F4
:1038300008014FF000000FBCBDE810400BF1010B78
:10384000BBF1010F08BF5FEA170722BF12F10102A7
:1038500011F101014FF0004143F1000300F000407D
:1038600043EA00007047F9D35708D0E746EA064616
:103870004FEA164613F1400F1FDD13F1200FDFBF93
:1038800016430A46002120335B42BED0C3F1200715
:1038900046EA06464FEA164602FA07F746EA0706E0
:1038A00022FA03F2C3F1200701FA07F742EA0702FE
:1038B00021FA03F14FF00003A7E746EA020646EAC1
:1038C00006464FEA164646EA0106BCBF46EA0646E9
:1038D000360C4FF000034FF000024FF0000194E768
:1038E0002DE9804C70B49A46934691E8380007C899
:1038F00031EA400C48BF34EA430C03D5FFF7E6FD3C
:10390000FFF780FFF0BCBDE8008C2DE9804C70B45F
:103910009A46934691E8380007C810F0804F08BFD8
:1039200013F0804F03D100F005F8FFF76BFFF0BCF8
:10393000BDE8008C20F07F4723F07F4C80EA030035
:1039400000F0004007EB0C03A3F57C53A3F1FE034A
:1039500092F0000F00F0B38095F0000F00F0778038
:103960002DE901494FEA114021EA00484FEA144687
:1039700024EA064700FB06FC08FB06F607FB08F8EE
:1039800018EB06484CEB164C00FB07F718EB074802
:103990004CEB17404FEA124B22EA0B4E4FEA15460A
:1039A00025EA06470BFB06FC0EFB06F607FB0EFEA0
:1039B0001EEB064E4CEB164C0BFB07F71EEB074EAF
:1039C0004CEB174B18EB0B0840F1000018EB0E0BFB
:1039D00058EB000840F100008F1A4FF000014FF043
:1039E00000063CBFC943661B14BFB5EB040C0021A5
:1039F0003CBFC943F61B4FEA174427EA04454FEA88
:103A00001C472CEA074C04FB076205FB07F70CFB7D
:103A100005F616EB074642EB174204FB0CFC16EBCF
:103A20000C4642EB1C421BEB060658EB02024141DE
:103A30004EEA8E0E46EA9E0601D5BDE80189B6190A
:103A4000524141EB0101A3F10103BDE801894FEAB5
:103A5000144524EA05464FEA114721EA074C05FBC5
:103A600007F406FB07F70CFB06F111EB074144EBEB
:103A7000174405FB0CFC11EB0C4144EB1C444FEAD2
:103A8000124722EA074C05FB07F206FB07F70CFB7F
:103A900006F616EB074642EB174205FB0CFC16EB4D
:103AA0000C4642EB1C456A1854F1000148BF7047B0
:103AB000B619524141EB0101A3F10103704795F0A2
:103AC000000F37D04FEA114221EA02464FEA14476D
:103AD00024EA074C02FB07F106FB07F70CFB06F490
:103AE00014EB074441EB174102FB0CFC14EB0C44B4
:103AF00041EB1C414FEA154725EA074C02FB07F54D
:103B000006FB07F70CFB06F616EB074645EB1745D9
:103B100002FB0CFC16EB0C4645EB1C42121951F152
:103B2000000148BF7047B619524141EB0101A3F1B2
:103B3000010370474FEA144524EA05464FEA11474E
:103B400021EA074C05FB07F106FB07F70CFB06F221
:103B500012EB074241EB174105FB0CFC12EB0C4248
:103B600051EB1C414FF0000648BF7047921841EBE3
:103B70000101A3F101037047490050EAC12018BFB9
:103B800004204A0D18BF40F0010040F2FF72B2EB72
:103B9000515F08BF40F00200012808BF05207047B0
:103BA00030380A2801D201207047002070470000F9
:103BB00010B500290AD00878002807D005487844B5
:103BC000FDF760FE002801D0002010BD02487844B7
:103BD00010BD00003A0200003202000010B50029BA
:103BE0000AD00878002807D005487844FDF74AFE37
:103BF000002801D0002010BD0248784410BD00000C
:103C00002A020000220200000808A0F500114FEA75
:103C10003101704743004FEAD30C4FEA3C0C43405C
:103C20001FBF40070CF1605113F0FE4F70471CF0AE
:103C3000006F03D10CF00041002070470CF00043EE
:103C400043EA507040EACC0010B500F00EF800BF17
:103C5000000000924FEA0001FFF7D6BF4FF000418D
:103C6000A1F500214FF0000070470EF1020E2EF07A
:103C7000030E5EF8044B244204D44FEA4102B2F131
:103C80007F4F11D84FEA4003B3F17F4F0CD80ED1CC
:103C90004FEAD07C0CEB4C0C0CF1020CB2F17F4FD4
:103CA00008BF4CEBD17C04E04FF0080C01E04FEA78
:103CB000D17C0CEB4C0324FA03F404F00704B4F1B8
:103CC000040C06D20EEB840CBDE810404CF0010C45
:103CD0006047DFE80CF0070802024FF00040A0F553
:103CE000800010BD0846420018BFD2F1807288BF24
:103CF00000F0004010BDFDF75EB8000000000000BD
:103D00000000000030313233343536373839414223
:103D1000434445464030580030313233343536372D
:103D200038396162636465664030780004000008D9
:103D30000000000000000002000100001000000070
:103D400002400000000000A000000000054000004C
:103D5000000000C8000000000C4000000000409C73
:103D600000000000194000000020BCBE0000000060
:103D700034400000BFC91B8E00000004B5400000A5
:103D8000504BCFD06607E2CF010000006C4100002D
:103D90003E8251AADFEEA73401000000D9420000A4
:103DA000DCB5A0E23A301F97FFFFFFFFB4450000EB
:103DB000FD25A0C8E9A3C14FFFFFFFFFFF3F0000A3
:103DC0000000008000000000FF3F000000000080B5
:103DD00000000000AD7F3101283F000800000020F6
:103DE0000800000050010008303F000808000020D3
:103DF00048070000700100081C000000430000009C
:103E0000F8FFFFFF0C0000000E0000000F00000094
:103E10002E0000001001000043000000F8FFFFFF2B
:103E200000404040404040404040414141414140CD
:103E30004040404040404040404040404040404082
:103E40004005020202020202020202020202020211
:103E50000220202020202020202020020202020216
:103E6000020290909090909010101010101010106E
:103E7000101010101010101010101010020202027A
:103E800002028888888888880808080808080808BE
:103E900008080808080808080808080802020202BA
:103EA00040000000000000000000000000000000D2
:103EB0000000000000000000000000000000000002
:103EC00000000000000000000000000000000000F2
:103ED00000000000000000000000000000000000E2
:103EE00000000000000000000000000000000000D2
:103EF00000000000000000000000000000000000C2
:103F000000000000000000000000000000000000B1
:103F100000000000000000000000000000000000A1
:103F2000000000000000000000A24A0400000000A1
:04000005080000ED02
:00000001FF
