:020000040800F2
:10000000280700204D02000855020008570200088A
:10001000590200085B0200085D02000800000000B1
:100020000000000000000000000000005F02000867
:10003000610200080000000063020008512100086E
:1000400067020008670200086702000867020008EC
:1000500067020008670200086702000867020008DC
:1000600041180008670200086702000867020008DC
:1000700067020008670200086702000867020008BC
:1000800067020008670200086702000867020008AC
:10009000670200086702000867020008670200089C
:1000A000670200086702000867020008670200088C
:1000B000670200086702000867020008670200087C
:1000C000670200086702000867020008670200086C
:1000D000670200086702000867020008670200085C
:1000E00067020008670200086702000800F002F8D3
:1000F00000F09CF814A696E8000CB244B344DA452C
:1001000001D100F093F8BAE80F000FA696E830008E
:10011000A5EB040504EB0607AAEB0704A7F101070A
:100120004FEA15154FEA3414A4F10104AC4201D38F
:1001300000F07CF813F0010F18BFFB1A43F0010325
:1001400000F001F8DBE71847A0460000B0460000C9
:10015000704700000023002400250026103A28BF25
:1001600078C1FBD8520728BF30C148BF0B60704729
:100170006E2900F0D182702900F01384662904F002
:100180008382652904F08082672904F07D826129D9
:1001900004F07C8203681B0A28BF41F080016929B2
:1001A00000F07E82642900F07B82752900F078825D
:1001B0006F2900F0A183782900F0DF83E92900F09E
:1001C0003B83E42900F03883F52900F03583EF29DB
:1001D00000F09E83F82900F0DE830368DB0928BF66
:1001E00041F08001632901F05D81732901F0628192
:1001F000E32901F06D81F32901F07281002070473D
:100200001FB59DE8030000F08BF901F0C5F904006B
:100210000020002103F020FE401C6060002000212F
:1002200003F004FEE0601FBD10B510BD01F087F9BA
:100230001146FFF7E5FF02F0E1FB01F063FA03B4BA
:10024000FFF7F2FF03BC01F093FA00000948804772
:1002500009480047FEE7FEE7FEE7FEE7FEE7FEE7A8
:10026000FEE7FEE7FEE7FEE704480549054A064BC0
:100270007047000061210008ED00000828010020FF
:1002800028070020280300202803002070B5A0FBC9
:100290000140B4F1805170F1000024BF002070BD16
:1002A000204600F06CF905001CBF214600F0F7F86D
:1002B000284670BD70B50446051F00F015F90068AA
:1002C000002C14BF446870BD002C18BFAC423CBF6A
:1002D00020466468F8D301680A18AA4218BF45602E
:1002E00003D12A6805461144016028684119A142DA
:1002F0001CBF6C6070BD616869602168084428603B
:1003000070BD00000FB41CB5084B06AA7B446946BB
:100310000090059800F019FA04460020694600F0A4
:1003200027FA20461CBC5DF814FB000061040000A5
:1003300010B5431C02E010F8011B71B18107FAD11E
:100340004FF0013202C88C1A8C4314EAC211F9D062
:10035000C01A0A0603D0C01E10BDC01A10BD0A0480
:1003600001D0801E10BD0902FCD0401E10BD40EA25
:10037000010370B59B072ED14FF00136042A2AD312
:1003800008C810C99D1B9D43121F15EAC61517D03A
:10039000D8B2E1B2401A50EA056110D198B2A1B2C8
:1003A000401A50EA05410AD123F07F4024F07F41F2
:1003B000401A50EA052102D1180EA0EB146070BD5E
:1003C000A342DBD018BA21BA884201D9012070BDFE
:1003D0004FF0FF3070BD0AB9002070BD10F8013B2E
:1003E00011F8014B63B1A3420AD1521E08D010F894
:1003F000013B11F8014B1BB1A34201D1521EEDD1BB
:10040000181B70BD032A40F2308010F0030C00F07E
:10041000158011F8013BBCF1020F624498BF11F83E
:1004200001CB00F8013B38BF11F8013BA2F10402F7
:1004300098BF00F801CB38BF00F8013B11F003036F
:1004400000F07E83083AC0F0088051F8043B083A77
:1004500051F804CBA0E80810F5E7121D5CBF51F875
:10046000043B40F8043BAFF30080D20724BF11F8EF
:10047000013B11F801CB48BF11F8012B24BF00F854
:10048000013B00F801CB48BF00F8012B704702F098
:10049000FF0343EA032242EA024200F002B84FF0AF
:1004A00000020429C0F0128010F0030C00F07C83DD
:1004B000CCF1040CBCF1020F18BF00F8012BA8BF4F
:1004C00020F8022BA1EB0C0100F06EBB5FEAC17CAF
:1004D00024BF00F8012B00F8012B48BF00F8012BC6
:1004E0007047704770477047004870470800002009
:1004F000704770477047704738B504460A46002079
:100500006946AFF30080002808BF38BD0246009955
:10051000204600F079FB012038BD012001F008B829
:10052000F8B5AFF30080054600200C460C2000BF54
:100530000646A819A0420DD9324669460020AFF3FD
:100540000080070008BF00F0F3FF0098A04218BF2A
:100550000546C419FFF7C8FF05600746F01D20F0E7
:1005600007004619284600F049FBB44208BFF8BD11
:10057000A21B31463868BDE8F84000F045BB70B5B5
:100580000646FFF7B1FF056806F10B0020F00704EF
:10059000B4429CBF002070BD2B466A68BAB1106897
:1005A000A04210D304F1080188423CBF5068586053
:1005B00007D35168101941601168091B0160586028
:1005C0001460101D70BD13465268002AE7D1214601
:1005D0002846FFF791FF0028DED170BD70B50446B4
:1005E00085690068C10601D5302600E02026C007D5
:1005F00007D070BDD4E9012130469047206A401CE5
:1006000020626D1EF6D570BD70B504468569007810
:10061000C00707D170BDD4E9012120209047206A8E
:10062000401C20626D1EF6D570BD09684A0501D5D3
:1006300040B27047C905FCD500B2704709684A0549
:1006400001D5C0B27047C905FCD580B2704770B5FE
:100650000C460546012A05D02878800600D5EA69AF
:10066000002302E0012305E05B1C934202D2E05C20
:100670000028F9D1A869E618C01AA861286A1844A8
:1006800028622846FFF7AAFF04E0D5E9012114F803
:10069000010B9047B442F8D32846FFF7B5FF70BD71
:1006A0002DE9F0410646002410687529314616A54B
:1006B00010D0FFF7BAFF002802DA404213A507E086
:1006C00031688A0701D512A502E0490704D511A5B2
:1006D000012401E0FFF7B2FF00210A2206F12407FE
:1006E00009E0B0FBF2FCB0FBF2F302FB1C0030307F
:1006F00078541846491C0028F3D123462A46304630
:10070000BDE8F04100F0DFBA000000002D0000005D
:100710002B0000002000000011680268006A5305E9
:1007200001D508700AE0D30501D5088006E013065C
:1007300003D5C217C1E9000200E00860012070473C
:1007400001694A1C02610878704700B58FB0CDE995
:1007500001310021059105497944CDE90310114685
:10076000684600F029F90FB000BD0000E5FFFFFF6B
:100770000A6802F8010B0A60704700002DE9FF5F6C
:1007800015468A460446DFF8AC80F8440027D8E9CD
:1007900000103E46CDE9001010E03AF816106A4607
:1007A00002A800F0A1FE411C07D02178890603D5DC
:1007B000E269391891420DD80744761C20788006EA
:1007C00002D5E069B84205DDAE42E6DB3AF8160034
:1007D0000028E2D1A069C01BA0612046FFF7FEFE01
:1007E000D8E90010CDE90010002017E03AF8181001
:1007F0006A4602A800F078FEB0F1FF3F81460BD0B8
:1008000000250DF1080B05E0D4E901211BF80500D6
:1008100090476D1C4D45F7D308F10100B04280466A
:10082000E4DB206A384420622046FFF7EDFEBDE895
:10083000FF9F0000023F00002DE9F0418046D21DDD
:1008400022F007020025D2E90002F52915A614D0EE
:10085000011E72F1000106DA0023D0EB030063EB06
:10086000020211A608E0D8F800108B0701D50FA6E8
:1008700002E0490701D50EA601251146002408F122
:10088000240704E000F0DAF930323A55641C50EAEB
:100890000102F7D12B46324621464046BDE8F041E1
:1008A00000F011BA000000002D0000002B00000035
:1008B0002000000030B4002100F1240408E002F020
:1008C0000705D208303542EA4372DB086554491CFB
:1008D00052EA0305F3D10468002310A2250708D5C6
:1008E00004F020040C4304D0C46901230CA2641E4C
:1008F000C46130BC00F0E7B910B504462146106869
:10090000FFF79CFE02462046BDE810400023D1E7D9
:10091000D21D22F00701D1E90023CBE7000000003F
:1009200030000000F0B40D460188090502D5214CC5
:100930007C4402E01F4C7C440E34002100F124066C
:1009400008E002F00F071209E75D42EA03721B0993
:100950007754491C52EA0307F3D1027800231207A7
:1009600004D5702D06D009B1022311342246F0BC03
:1009700000F0A9B901231034F8E770B504460D461C
:1009800021461068FFF75AFE024629462046BDE878
:1009900070400023C6E7D21D22F00703D3E90023ED
:1009A000C0E70368126843F0200303600823C361B3
:1009B0000023B7E7643D00002DE9F05F8946044657
:1009C0004FF0000ADFF874B1FB44C0F820A02046C5
:1009D000E1688847002874D0252806D0D4E9012191
:1009E0009047206A401C2062F1E700265F462046BF
:1009F000E16888472028054607DB312D05D27819A4
:100A000010F8200C08B10643F1E7B00701D526F035
:100A10000406C4F81CA00027C4F818A02A2D09D089
:100A2000284603F0FBF938B304EB8708303DC8F8DB
:100A3000185019E059F8041B204604EB8702916115
:100A4000E1688847012F054618D1E069002820DABF
:100A500026F020061DE0D8F8180000EB800005EB1A
:100A600040003038C8F818002046E168884705463D
:100A700003F0D4F90028EED1012F0AD02E2D08D191
:100A80002046E16888477F1C0546022F46F0200675
:100A9000C4DBA069002803DA404246F00106A061E9
:100AA000F00701D026F010066C2D0BD0682D09D070
:100AB0004C2D39D06A2D35D0742D35D07A2D33D0C8
:100AC00016E038E0E1682F4620468847B8420546E0
:100AD00009D16C2F26D04FF48060E1680643204690
:100AE0008847054604E06C2F1AD04FF48070064307
:100AF0000DB3A5F14100192802D8203546F400664F
:100B00004A462946204626604E46FFF731FB80B113
:100B100001280BD0F61D26F0070000F1080956E762
:100B20004020E4E78020D8E70020D6E706F104095A
:100B30004DE7284652E7206ABDE8F09FF43C0000EC
:100B400010B5203AC0F00B80B1E81850A0E818505A
:100B5000B1E81850A0E81850203ABFF4F5AF5FEAAA
:100B6000027C24BFB1E81850A0E8185044BF18C94F
:100B700018C0BDE810405FEA827C24BF51F8043BF6
:100B800040F8043B08BF7047D20728BF31F8023B4A
:100B900048BF11F8012B28BF20F8023B48BF00F8DE
:100BA000012B70474FF0000200B51346944696465D
:100BB000203922BFA0E80C50A0E80C50B1F1200170
:100BC000BFF4F7AF090728BFA0E80C5048BF0CC01E
:100BD0005DF804EB890028BF40F8042B08BF70477C
:100BE00048BF20F8022B11F0804F18BF00F8012BEE
:100BF000704700000048704700000020002101609D
:100C0000416070470C207047034640688C460028BE
:100C100018BF88423CBF03464068F8D318681844A0
:100C2000884207D00CF1030020F00700001D411A94
:100C3000521A0146081D0A60FFF73CBB30B5B0F1FF
:100C40000A0271F100034FEA900E4EEA817EB0EB8A
:100C50000E0061EB91014FEA101E4EEA017E10EB8F
:100C60000E0041EB11114FEA102E4EEA016E10EB0F
:100C70000E0041EB11214FEA104E4EEA014E10EBEF
:100C80000E0041EB1141401841F100014FEAD00044
:100C900040EA41704FEAD1014FEA810444EA90747E
:100CA00010EB800544EB01046D1944EB0404521B66
:100CB000A3414FF0000348BF0A3200D530BD401CAD
:100CC00041F1000130BD2DE9F0470D4699469246AD
:100CD000044600F124080168880604D5E06921F083
:100CE0001001216000E00120A84201DD471B00E067
:100CF0000027A1697A1902EB0900081AA06120787F
:100D0000C00602D42046FFF769FC002608E0D4E9BB
:100D100001211AF806009047206A401C761C2062C8
:100D20004E45F4DB2078C0060AD52046FFF756FC76
:100D300006E0D4E9012130209047206A401C20625F
:100D4000381EA7F10107F4DC07E0D4E9012118F807
:100D500005009047206A401C2062281EA5F101056D
:100D6000F3DC2046FFF750FC2078000602D5022075
:100D7000BDE8F0870120FBE72DE9FF4F0C461E463A
:100D80004FF0FF378BB0D2E90001DDF860800A90A8
:100D90008A46C1F30A5505B93D46002108464FF081
:100DA0000000BAF1000F00F4400005DA00EB80000B
:100DB0004FF4400101EA50004FEA9059B9F1010F98
:100DC00000DDB9460A9850EA4A000ED044F61050A9
:100DD000A5F2FF3545432F14B8F1000F1ED0754220
:100DE000291E1EDDC9F100021CE0B8F1010F4FF011
:100DF000000001D0302103E0F24305E02154401C03
:100E0000B042FBDB30460022002121540B99C1F88F
:100E10000880C1E900200FB0BDE8F08FBD1B6D1C3C
:100E2000DEE74A4600DA694206A800F0F9FB06ABA5
:100E300093E8070003AB83E8070050460A9902F0E5
:100E400010FC8DE80700A0F500501F3800900398B3
:100E5000002D0ADD42F21F014A460844002303A97F
:100E60000390684602F07AFE09E0A0F500504A4679
:100E70001F38002303A90390684602F084FE8DE822
:100E800007000004000C03D04FF0FF30410800E0E1
:100E90001046B8F1000F03D00022009215461EE064
:100EA000751E05D4FFF7CAFE303262556D1EF9D5A6
:100EB000B3460122084302D000227F1C04E02078C0
:100EC000302801D100227F1E002A099784D01DE01E
:100ED000112D07DAFFF7B2FE303262556D1C50EA71
:100EE0000102F5D1084302D00098C8B10EE00021FC
:100EF000681E05E0235C625C63542254401E491C5A
:100F00008142F7DBAB46A81B401E0990002004F885
:100F10000B000B98099AC0F80880C0E9002B7AE70B
:100F200011264FF0000857E72DE9F04F8846044698
:100F3000D21D22F0070191B0D1E90001CDE90A01EB
:100F400002F058FF02460B98C00F01D02D2007E099
:100F50002068810701D52B2002E0202101EAC00092
:100F6000032A099001D0072A05DB034641462046A3
:100F700000F016FB0BE12078800601D5E06900E067
:100F80000620B8F1650F814606D0B8F1660F18D07B
:100F9000B8F1670F70D131E00020B9F1110F009066
:100FA00001DB112301E009F101030AAA01A90CA840
:100FB000FFF7E2FEDDE90C70002609F1010583462A
:100FC00047E001204B4600904FF000470AAA01A9D4
:100FD0000CA8FFF7D1FEDDE90DB00C995D460026A7
:100FE00010B909F101000D18B9EB050003D4C0F1E7
:100FF000FF3609F10105A5EB09002BE0B9F1010F5E
:1010000001DA4FF001090020B9F1110F00904846B4
:1010100001DD112300E003460AAA01A90CA8FFF78D
:10102000ABFEDDE90C704D460026834620780007B4
:101030000AD4AB4500DA5D4601A8012D04DD411953
:1010400011F8011C302907D04F4502DA17F1040FBF
:1010500004DA012082460FE06D1EEEE7002F02DC6D
:10106000ED1B3E4403E0781CA84200DD7D1CB81B4C
:1010700000F1010A4FF000472078000703D4AA4589
:1010800001DB4FF0FF3A0021B7F1004F0DF14308AB
:101090008DF8431024D002202B23002F01DA7F4249
:1010A0002D230A21021EA0F1010000DC5FB197FB95
:1010B000F1FC97FBF1F201FB1C7C17460CF1300CA4
:1010C00008F801CDEEE7A8F10100037021880905B9
:1010D00001D5452100E06521A0F1010800F8011CBF
:1010E00009980FA9A1EB0807FF1D00B101204119C4
:1010F00001EBEA70A1693844081A401EA06120780B
:10110000C00602D42046FFF769FA099828B1D4E94D
:1011100001219047206A401C20622078C00622D519
:101120002046FFF75BFA1EE0002E04DBB34502DD2C
:1011300001A8805D00E03020D4E901219047206AB9
:10114000401C2062761CAAF101005FEA000A0AD165
:1011500000F022FAC0680168405CD4E901219047A0
:10116000206A401C2062281EA5F10105DCDC07E096
:10117000D4E9012118F8010B9047206A401C206235
:10118000381EA7F10107F3DC2046FFF73DFA0320E4
:1011900011B041E62DE9F04F04460D46D21D22F074
:1011A000070089B0D0E900974846394602F022FE90
:1011B0000246F80F01D02D2307E02068810701D5F2
:1011C0002B2302E0202101EAC0038DF820300BB16F
:1011D000012000E00020032A824601D0072A04DB18
:1011E0002946204600F0DCF93FE12078800601D452
:1011F0000D2500E0E569C7F30A560D2D49DA0021F7
:101200004FEA175B08464FF00000002F00F4400043
:1012100007DA00EB80004FF4400100EBD07001EAE8
:1012200060008115012901DD4FF0FF3100224FEAF6
:10123000850CBCF1180F06D31346ACF118004FF023
:101240008052C24003E04FF4801323FA0CF30CF1F8
:101250000C0CBCF1200F04D3ACF1200C09FA0CF0FB
:1012600001E007FA0CF000294FF0004801DD18B941
:101270000FE00ED140450CD319EB02095F4121B9B3
:10128000404502D19F4329EA0209BBEB175F00D01A
:10129000761C2088000502D57B48784402E07A4815
:1012A0007844193808AA302302F80A30037C0AF17E
:1012B0000101002E0AF1020A53546A4602DC4FF083
:1012C000300101E04FF031014FF001088DF80010BE
:1012D00002D0A6F2FF3603E059EA470100D06B4E78
:1012E000002D02DC2178090704D54FF002082E21D9
:1012F0008DF80110C44600210BE0C7F303433F0102
:10130000C35C491C6D1E02F80830052908F101086C
:1013100001DA002DF1DC00210CE000EB1973491C0F
:101320001B786D1E082902F808304FEA091908F1E8
:10133000010801DA002DF0DC21688B0602D516E0E9
:10134000A8F10108E04505DD02EB080313F8013CB4
:10135000302BF5D0B8F1000F09DD02EB080313F8CC
:10136000013C2E2B03D1090701D4A8F10108002D5F
:1013700005DD3E2102F808106D1E08F10108407CD1
:10138000002E02F8080008F1010804DA2D20764248
:1013900002F8080002E02B2002F808000A214FF4AE
:1013A0007A70864208F101080BDB96FBF0F33033CC
:1013B00002F8083096FBF0F308F1010800FB136611
:1013C00001E0642E0CDB642096FBF0F3303302F86E
:1013D000083096FBF0F308F1010800FB136601E00A
:1013E0000A2E06DB96FBF1F0303002F8080008F117
:1013F000010896FBF1F001FB1060303002F80800A4
:10140000A16908F1010808EB050202EB0A00081ABD
:10141000A0612078C00602D42046FFF7DFF8216AD9
:1014200008AE01EB0A00206204E0D4E9012116F8BD
:10143000010B9047BAF1010AF7D22078C00602D515
:101440002046FFF7CBF86E4609E016F8010B3E2860
:101450000FD0D4E901219047206A401C2062B8F1E6
:101460000108F2D22046FFF7CFF809B00320BDE80B
:10147000F08F206A2844206203E0D4E90121302063
:1014800090476D1EEBD3F8E74634000002FCFFFFE7
:1014900010B5436913B1AFF3008001E0FFF7D7F84F
:1014A000012010BD127800F124010A7000224A7058
:1014B0000122EDE711684FF0FF32E9E710B543690B
:1014C00013B1AFF3008001E0FFF758F9012010BD20
:1014D000128800F1240182840022C2840122EDE7F7
:1014E00011684FF0FF32E9E72DE9F04116460C464E
:1014F000054600F049F8036893F80101012807D078
:10150000FF2C12D8185D80B101202C70BDE8F0814D
:10151000D3F807013246214603F20713C7182846BD
:10152000BC46BDE8F041002360474FF0FF30EDE7D7
:1015300010B500F0F5F8BDE8104000F0ECB87546C5
:10154000FFF758FBAE4605006946534620F00700FA
:10155000854618B020B5FEF787FEBDE820404FF065
:1015600000064FF000074FF000084FF0000BAC46AC
:10157000ACE8C009ACE8C009ACE8C009ACE8C009F7
:1015800021F007018D46704710B500F005F8001DE9
:1015900010BD00BFC5280000004870472000002093
:1015A0002DE9F0411F46044603260168072A01F48D
:1015B000006004DB08B116A505E016A503E008B13C
:1015C00015A500E015A521F010002060A069C01E3F
:1015D000A0610FB1401EA0612046FEF7FFFF4FB192
:1015E000D4E9012138469047206A401C2062C01C83
:1015F000206206E0206AFAE7D4E9012115F8010B20
:101600009047761EF8D22046FEF7FEFFBDE8F08137
:101610004E414E006E616E00494E4600696E660096
:101620002DE9F047814616468AB0354878440DC802
:101630008DE80D0032487844801C03AC0DC884E866
:101640000D0041F69B300844372190FBF1F290FBEE
:10165000F1F5A5F1800501FB12041B3C02D56442A3
:10166000012000E00020DFF898A080460027FA441F
:10167000AAF1BE0A0EE0E0070AD03246684607EB40
:10168000470101230AEB810102F07DFA8DE8070092
:1016900064107F1C002CEED1194F7F44AE3F19E03F
:1016A000E80715D007EB04100DF1180A90E80E00BA
:1016B0008AE80E00C068F04201D1981908903246BD
:1016C000012306A903A802F05EFA03AB83E8070032
:1016D0006D10641C002DE3D14FF0010332466946C2
:1016E000B8F1000F03A802D002F038FA01E002F0CE
:1016F0004AFAC9E90001C9F808200AB0BDE8F08734
:101700004431000010B50446AFF300802046BDE828
:101710001040FEF794BD002801D000F029B87047B2
:1017200010B5012805D0002103A000F028F8012001
:1017300010BD09A1F8E7000053494752544D454DEB
:101740003A204F7574206F662068656170206D6562
:101750006D6F7279000000003A2048656170206D5D
:10176000656D6F727920636F727275707465640055
:1017700001491820ABBEFEE726000200704770B595
:1017800005460C460A2000E06D1C00F051F835B10A
:1017900028780028F8D102E0641C00F049F814B160
:1017A00020780028F8D1BDE870400A2000F040B849
:1017B0004FF0013C50F8042B51F8043B9A4221D1E0
:1017C000A2EB0C03934313EACC1317D150F8042B6C
:1017D00051F8043B9A4215D1A2EB0C03934313EA50
:1017E000CC130BD150F8042B51F8043B9A4209D189
:1017F000A2EB0C03934313EACC13DBD04FF00000B1
:10180000704700BFD01A01BAB1FA81F101F0180196
:1018100022FA01F0CB40DBB2C0B2C01AC1F1200104
:101820002CFA01F3D11A914311EAC311E6D17047A2
:1018300008B569468DF800000320ABBE08BD000066
:10184000B0B588B040F20010C2F200000490282128
:10185000FEF725FE049840F2F801C2F2000140F2C2
:10186000A00EC2F2000E40F2600CC2F2000C0A6838
:101870004B68DEF80010DEF804E0DCF80040DCF82D
:101880000450EC46CCF80C50CCF80840CCF804E0FE
:10189000CCF8001044F2D071C0F60001FEF732FD22
:1018A00040F2C100C2F20000059032210691FEF71D
:1018B000F6FD0599069A40F2A800C2F2000000F079
:1018C000C3F98DF81F009DF81F0038B1FFE740F203
:1018D000C100C2F2000000F05FFEFFE740F21441D9
:1018E000C4F20101086840F00400086008B0B0BD0F
:1018F00080B584B08DF80F0002919DF80F0040F084
:1019000080008DF8070040F60C01C4F2010100913F
:10191000086820F0100008609DF8070001F010FE34
:1019200001F0DAFD012000F089FD029801F0F0FDE0
:101930000099086840F01000086004B080BD000005
:1019400080B584B003900291012000F047F98DF832
:1019500007000298009006283CD80099DFE801F0C3
:10196000040E3A193A242F009DF8070000F0F80001
:101970008DF806000399002008602CE09DF8070010
:1019800000F0F80001308DF806000399012008608E
:1019900021E09DF8070000F0F80003308DF8060004
:1019A00003990320086016E09DF8070000F0F80096
:1019B00005308DF806000399052008600BE09DF8BE
:1019C000070000F0F80006308DF8060003990620A5
:1019D000086000E0FFE79DF80610012000F0D4FA4F
:1019E00004B080BD80B58AB0089001F0F9FC41F2E6
:1019F0001801C4F20201086840F00100086040F6D6
:101A00000001C4F201010691086820F480700860AA
:101A1000086820F400700860086840F4806008607E
:101A2000086820F4006008600821C4F20101086819
:101A300020F47060086040F20041C4F201010868BF
:101A400040F00400086040F20841C4F20101086857
:101A500040F00400086008200590002100F0E4FB3D
:101A6000059800F0B1FB0699086840F01000086086
:101A7000086840F020000860086820F04000086016
:101A8000086820F08000086040F60C01C4F20101F3
:101A9000086840F00200086000F0ACFA089800F016
:101AA00097F8002800F08B80FFE708980021FFF7E7
:101AB00047FF0A20049000F0C1FC0120039000F0D1
:101AC0008DF8014604988DF81E1000F0B7FC0398BD
:101AD0009DF81E1041F080018DF81F109DF81F1019
:101AE00000F052FA642000F0A9FC0898406800F069
:101AF00011F90898407B00F08FF90898807B00F07E
:101B00003BF90C20232100F03FFA00F0C1F90898BE
:101B1000007A00F08FF91F20FF2100F035FA1D2018
:101B2000019000F05BF8014601988DF81F10089AAB
:101B3000517A927A090141EA42029DF81F1011433D
:101B40008DF81F109DF81F1000F01EFA0898017BF9
:101B5000202000F019FA0898C17A212000F014FA28
:101B60004020029000F03AF8014602988DF81E10CD
:101B70009DF81E1041F03F018DF81F109DF81F10B9
:101B800000F002FA03990898FFF7DAFE0399049827
:101B9000089A116000F052FC422000F01FF88DF806
:101BA0001E009DF81E00122804D1FFE7C820ADF8E2
:101BB000260009E04FF4CA70ADF8260004E040F2B8
:101BC000F710ADF82600FFE7BDF826000AB080BD8B
:101BD00081B00090012001B07047000080B582B054
:101BE0008DF807009DF8070000F07F008DF80500D4
:101BF0009DF805000DF1060100F004F89DF80600BF
:101C000002B080BD80B584B08DF80F00029140F61F
:101C10000C01C4F201010191086820F01000086075
:101C20009DF80F0001F08CFC01F056FC002001F043
:101C300087FC01F051FC0199029A1070086840F08D
:101C40001000086004B080BD80B586B00590049196
:101C50008DF80F2000208DF80E008DF80B000598F0
:101C60000121FFF76DFE1220FFF7B8FF8DF80D0080
:101C70009DF80D004006002843D5FFE71220FF2104
:101C800000F082F91320FFF7A9FF8DF80C00102057
:101C9000FFF7A4FF8DF80D009DF80D100D2000F04A
:101CA00073F99DF80F009DF80C10884204DBFFE7E4
:101CB0009DF80C00019003E09DF80F000190FFE7F4
:101CC00001988DF80B0004983221FEF7E8FB002004
:101CD0008DF80E00FFE79DF80E009DF80B1088426E
:101CE0000EDAFFE70020FFF779FF04999DF80E2038
:101CF0008854FFE79DF80E0001308DF80E00EAE7EA
:101D0000FFE705980521FFF71BFE9DF80B0006B0C5
:101D100080BD000080B584B0039003994CF20000B0
:101D2000C0F2FF7000EA81300190BDF806008DF826
:101D30000B009DF80B10062000F026F905200090FE
:101D400000F07CFB0198000A8DF80B009DF80B1049
:101D5000072000F019F9009800F070FB01988DF849
:101D60000B009DF80B10082000F00EF9009800F011
:101D700065FB04B080BD000080B582B08DF807001F
:101D800000208DF806009DF807002C2804DCFFE7F2
:101D90002D208DF80700FFE79DF80700F12804DBF0
:101DA000FFE7F0208DF80700FFE79DF8070078288F
:101DB0000FDCFFE79DF807002D3846F26761C6F299
:101DC000666180FB0101480800EBD1708DF80600C8
:101DD00011E09DF80700F0280CDCFFE79DF80700F4
:101DE0001E3049F69A11C1F69911A0FB01108DF829
:101DF0000600FFE7FFE79DF8060040F020008DF8A1
:101E000006009DF806100B2000F0BEF80A2000F036
:101E100015FB02B080BD000080B582B08DF80700D0
:101E20009DF80710092000F0AFF80A2000F006FB2B
:101E300002B080BD80B584B0039003980D2803DB09
:101E4000FFE70C200390FFE70398062803DCFFE779
:101E500007200390FFE71E200090FFF7BFFE8DF8DC
:101E60000A000A20019000F0E9FA0098039A9DF810
:101E70000A1001F00F0141EA02118DF80B109DF8D4
:101E80000B1000F081F8019800F0D8FA04B080BD82
:101E900080B582B01E200090FFF7A0FE014600989A
:101EA0008DF807109DF8071041F007018DF8061016
:101EB0009DF8061000F068F80A2000F0BFFA02B0A2
:101EC00080BD000080B582B0019001980521FFF728
:101ED00037FD02B080BD000080B586B0049003914C
:101EE0008DF80B20ADF80830049800680090049835
:101EF0000121FFF725FD0E20FFF770FE8DF807008A
:101F00009DF807100D2000F03FF89DF80B102220DF
:101F100000F03AF803990020FFF7EAFC0498032147
:101F2000FFF70EFDFFE71220FFF758FE8DF80700C0
:101F30009DF80700000700280CD5FFE71220FF21BD
:101F400000F022F804980099FFF7FAFC01208DF8C0
:101F5000170014E0BDF808000138ADF808000004CF
:101F600040B9FFE704980099FFF7EAFC00208DF8DC
:101F7000170004E0FFE7012000F060FAD3E79DF8C6
:101F8000170006B080BD000080B582B08DF8070054
:101F90008DF806109DF8070040F080008DF80500D0
:101FA0009DF805009DF8061000F002F802B080BD13
:101FB00080B582B08DF807008DF8061040F60C0150
:101FC000C4F201010091086820F0100008609DF83B
:101FD000070001F0B5FA01F07FFA9DF8060001F064
:101FE000AFFA01F079FA0099086840F01000086033
:101FF00002B080BD80B582B040F60C01C4F2010190
:102000000191086820F002000860012000F016FA33
:102010000199086840F002000860642000F00EFAA0
:1020200002B080BD80B500F001F880BD84B0002012
:102030000390029041F20001C4F20201086840F4EA
:1020400080300860FFE741F20000C4F2020000683F
:1020500000F400300290039801300390FFE70299EA
:102060000020019039B9FFE70398B0F5A06018BFD0
:1020700001200190FFE70198C0070028E3D1FFE7A6
:1020800041F20000C4F2020000688003002803D57A
:10209000FFE70120029002E000200290FFE7029893
:1020A000012851D1FFE742F20001C4F202010868A1
:1020B00040F010000860086820F007000860086819
:1020C00040F00200086041F20401C4F202010091F4
:1020D0000868086008680860086840F48060086064
:1020E000086820F47C100860086840F4E810086074
:1020F00041F20001C4F20201086840F080700860FB
:10210000FFE741F20000C4F20200006880010028ED
:1021100001D4FFE7F5E741F20401C4F202010868C7
:1021200020F003000860086840F002000860FFE744
:1021300041F20400C4F20200006800F00C0008281C
:1021400001D0FFE7F4E700E0FFE704B070470000CC
:1021500040F29C01C2F2000108680130086070473B
:1021600080B541F20002C4F20202106840F00100A2
:10217000106041F20401C4F2020108680023CFF6A6
:10218000FF031840086010684FF6FF73CFF6F66340
:1021900018401060106820F480201060086820F457
:1021A000FE00086041F20801C4F202014FF41F0072
:1021B0000860FFF737FF4EF60851CEF200014FF0EE
:1021C0000060086080BD000081B08DF803009DF9BB
:1021D000030000280ED4FFE79DF9031001F01F0251
:1021E000012090404A094EF20011CEF2000141F860
:1021F0002200FFE701B0704781B08DF803009DF920
:10220000030000280ED4FFE79DF9031001F01F0220
:10221000012090404A094EF20011CEF2000141F82F
:102220002200FFE701B0704782B08DF807000091EF
:102230009DF9070000280AD4FFE7009800019DF9E6
:1022400007104EF20042CEF2000288540BE00098D4
:1022500000019DF8071001F00F014EF61452CEF266
:1022600000028854FFE702B07047000041F21801F5
:10227000C4F20201086840F400700860086840F089
:102280000400086042F20442C4F20102106840F403
:102290000060106042F20841C4F20101086820F4B5
:1022A00000600860086820F002000860106840F4D0
:1022B00060401060086840F46020086042F22C41E1
:1022C000C4F201014FF47000086042F23442C4F2DB
:1022D000010248F62000C0F64120106042F2304270
:1022E000C4F201024AF2E600C1F2A46010604BF6AB
:1022F000AC10C0F2070008607047000080B582B0E3
:10230000002001F00BF8FFE700F00AFF08B1FFE73B
:1023100000E0F9E7FFE700F003FF08B1FFE7FAE7A5
:10232000002000F0F1FF00F05BF8FFE700F0F8FE9E
:1023300060B9FFE700F02AF95A2806DBFFE700F052
:1023400041F8FF208DF8070011E0EFE700F01EF9DB
:102350003B2806DCFFE700F035F8FF208DF807008A
:1023600005E000F02FF800208DF80700FFE79DF949
:10237000070002B080BD000080B50120002100F000
:10238000F3FE052000F05AF880BD000081B08DF802
:1023900003009DF8030048B1FFE74EF21001CEF2B2
:1023A0000001086840F00100086008E04EF21001EA
:1023B000CEF20001086820F001000860FFE701B0DC
:1023C000704700004EF21001CEF20001086820F0C4
:1023D00001000860086820F00200086070470000F3
:1023E0004EF21001CEF20001086840F001000860D2
:1023F000086840F00200086070470000014647F698
:10240000AC70C0F2311008600F20087270470000F5
:102410004EF21001CEF20001086840F0040008609E
:102420004EF21401CEF20001472008604EF218016E
:10243000CEF20001002008607047000080B582B035
:102440000190FFE7019840B1FFE74FF47A7000F088
:1024500007F8019801380190F4E702B080BD000050
:1024600080B582B00190FFF7D3FF0120FFF78EFF08
:10247000FFE70198B0B1FFE74EF21000CEF2000086
:102480000068C00300280CD5FFE74EF21001CEF221
:102490000001086820F4803008600198013801903C
:1024A000FFE7E6E70020FFF771FF02B080BD000004
:1024B00080B541F21801C4F20201086840F0100032
:1024C00008604FF0FF30FFF797FEFFF77BFF40F209
:1024D0009C01C2F200010020086080BD80B58AB076
:1024E000DDF830C00593049203910290BDF814000A
:1024F000ADF8240002980399049A08920791069077
:102500000020009001900C9832213722FDF7BFFF88
:1025100000989DF81B100C9A1170BDF81A100C9AB7
:1025200051700699090A0C9A917006990C9AD1700B
:102530009DF81F100C9A1171BDF81E100C9A517164
:102540000799090A0C9A917107990C9AD1719DF813
:1025500021100C9A11720190FFE701989DF821104B
:1025600088420CDAFFE7DDF822000199405C0C9A02
:1025700011444872FFE7019801300190EDE79DF8A2
:1025800020000C9981F831000AB080BD40F29C0017
:10259000C2F200000068704780B598B01790179895
:1025A000006800BACDF84A001798406800BACDF824
:1025B0004E00179890F831008DF852001798007A65
:1025C0008DF853009DF853000121FDF75FFE159033
:1025D00000201690FFE716989DF8531088420BD202
:1025E000FFE71798169A1044407A15998854FFE728
:1025F000169801301690EEE7DDF84E0047F6AC7104
:10260000C0F23111884232D0FFE7DDF84A0047F6C8
:10261000AC71C0F23111884229D0FFE7179940F21E
:102620006800C2F200003122FDF7A1FEF0B1FFE721
:102630009DF85200012819DBFFE79DF85200013890
:102640008DF85200BDF85600ADF83800DDF84A00AC
:10265000DDF84E10DDF852200D920C910B900B9886
:102660000C990D9A0E9B00F08BFAFFE762E0DDF803
:102670004E0047F6AC71C0F23111884259D1FFE7E4
:10268000179940F26800C2F200003122FDF76FFE98
:1026900000284DD0FFE740F26800C2F20000019030
:1026A00032210291FDF7FBFE0198029A1799FDF77E
:1026B000A9FE159844F2DF71C0F600010722FDF76C
:1026C00056FEA0BBFFE70DF11E00FFF797FEBDF819
:1026D0002A00ADF84800DDF81E00DDF82210DDF814
:1026E0002620119210910F9047F6AB70C0F2311076
:1026F000109040F20010C2F200000090FDF718FEAA
:10270000014600988DF84510CDF84600BDF8480008
:10271000ADF818000F981099119A05920491039042
:1027200003980499059A069B00F06CFAFFE7FFE70F
:10273000FFE7FFE71598FDF7BDFD18B080BD00006D
:1027400080B582B0019000200090FFE701980099C9
:10275000405C58B1FFE701980099405C012100F00E
:1027600003FDFFE7009801300090EFE702B080BD65
:1027700080B582B08DF807008DF8061000208DF826
:1027800005009DF8060030B9FFE79DF8070080308E
:102790008DF80500FFE79DF80600012806D1FFE748
:1027A0009DF80700C0308DF80500FFE79DF8050093
:1027B000002100F0D9FC6420FFF752FE02B080BD7A
:1027C00080B586B000F074F80120039006210191D5
:1027D000FDF75CFD019BDDF80CC0014640F2B8003E
:1027E000C2F2000001600268117801F0F00111707E
:1027F000026811786CF31F1111700268517801F0B2
:10280000F0010A315170026851784FF00B0C6CF3F3
:102810001F1151700268917801F0F001053191703B
:102820000268917863F31F1191700268D17801F00A
:10283000F0010731D1700268D178082363F31F11CA
:10284000D1700268117901F0F0010931117102684B
:1028500011790C23029363F31F11117101680D208C
:1028600048710E200021049100F07EFC05200590A7
:10287000FFF7E4FD04993C2000F076FC0598FFF793
:10288000DDFD0298049900F06FFC0598FFF7D6FD76
:102890000398049900F068FC0598FFF7CFFD0499B0
:1028A000022000F061FC0598FFF7C8FD06B080BD6E
:1028B00081B041F21801C4F20201086840F008003A
:1028C000086040F60041C4F20101002008608DF864
:1028D0000300FFE79DF803001E281BDCFFE79DF8BF
:1028E0000310012000FA01F340F60041C4F2010197
:1028F0000A681A430A609DF80320013200FA02F2C6
:10290000086810430860FFE79DF8030004308DF865
:102910000300DFE740F60441C4F201010020086033
:102920008DF80300FFE79DF803001E281BDCFFE77E
:102930009DF80310012000FA01F340F60441C4F2AF
:1029400001010A681A430A609DF80320013200FA67
:1029500002F2086810430860FFE79DF803000430A6
:102960008DF80300DFE701B07047000081B08DF8FB
:1029700003008DF802109DF8020068B1FFE79DF892
:102980000310012000FA01F240F60C41C4F20101EB
:102990000868104308600CE09DF80310012000FA5D
:1029A00001F240F60C41C4F201010868904308604E
:1029B000FFE701B07047000082B08DF8070042F2D7
:1029C0003441C4F2010108689DF8072002EB82023D
:1029D000D0400090009800F01F000090009A086816
:1029E000104308609DF8070000EB80021F2000FAEA
:1029F00002F208689043086002B0704780B5ADF5F8
:102A0000127D002091900DF1370000F02FF940F277
:102A1000A801C2F20001DDF83700DDF83B20DDF847
:102A20003F30DDF842C0C1F80BC08B604A600860DF
:102A3000FFF7C6FEFFE740F2A800C2F20000FEF773
:102A4000D1FFC8280ED0FFE700210846FFF790FE0F
:102A500044F28C70C0F60000FFF772FE6420FFF7AE
:102A6000EDFCE8E7FFF724FDFFF700FCFFF784FC2F
:102A700000210846FFF77CFE44F29C70C0F600007F
:102A8000FFF75EFE40F2A800C2F20000FFF71AFA5C
:102A90004FF4FA60FFF7D2FC00F0AAFD40F26800A4
:102AA000C2F2000032216122FDF7F1FCFFE740F2A3
:102AB000F800C2F20000089040F2A001C2F200014A
:102AC000099100F02DF9032000F064FC0A4640F261
:102AD0006001C2F2000107914A6008600DF14600F2
:102AE0000C90FF210691FDF7DAFC06990DF24510D6
:102AF0000A90FDF7D4FC079A0C98116853686A464F
:102B00005360116044F2C771C0F6000144F2AA722A
:102B1000C0F60002FDF7F6FB089B099A0A981968AF
:102B20005B68D2F800C0D2F804E06A46C2F814E04C
:102B3000C2F810C04FF0480CC2F808C053601160D2
:102B400044F2B571C0F600015422FDF7DBFB002111
:102B50000B910846FFF70CFE0A98FFF7F1FD0B9862
:102B60000121FFF705FE0C98FFF7EAFD00F090F851
:102B70004FF4FA70FFF762FCFFF7FEFB97E70000E7
:102B800080B59EB01993189217911690BDF8640005
:102B9000ADF8740016981799189A1C921B911A9008
:102BA000BDF87400ADF820001A981B991C9A079282
:102BB0000691059005980699079A089BEE460DF137
:102BC000260CCDF80CC0CEF800C0FFF787FC40F211
:102BD0006800C2F20000029032210491FDF75FFC10
:102BE00002980399049AFDF70DFC0399049A40F2A8
:102BF000A800C2F200004FF47A73FFF76DF91EB01F
:102C000080BD000080B59CB017931692159114906A
:102C1000BDF85C00ADF86C0014981599169A1A92DC
:102C200019911890BDF86C00ADF818001898199912
:102C30001A9A05920491039003980499059A069BA9
:102C4000EE460DF11E0CCDF808C0CEF800C0FFF71F
:102C500045FC029940F2A800C2F2000032224FF473
:102C60007A73FFF739F91CB080BD0000014640F2CD
:102C7000B110486007200872487201208872FF2056
:102C80004873642088730820A1F80B007047000087
:102C900080B582B043F20001C4F2000101914AF60E
:102CA000AA2008600320FFF7C9FB01994CF6CC402D
:102CB000086002B080BD000080B582B08DF80700CA
:102CC0009DF8070000F0F2FA9DF8070000EB4001C4
:102CD000072000FA01F242F21041C4F20101086833
:102CE000104308609DF80700FFF766FE00F04AFCFD
:102CF000FFE742F20040C4F20100006880070028AC
:102D000001D4FFE7F5E79DF8070000F011FA42F261
:102D10004C40C4F2010000686FF31F3002B080BD68
:102D200080B58CB00A90099100F04AFCFFF7E6FAF2
:102D3000FFE700F0F5F9012801D1FFE7F9E70720E7
:102D40008DF82300FFE79DF9230000283AD4FFE720
:102D5000FFE700F0E5F908B9FFE7FAE7002000F027
:102D6000D3FAFFF73DFBFFE700F0DAF9012801D1C4
:102D7000FFE7F9E7FFF70AFC27280DDCFFE79DF9DD
:102D80002310012000FA01F240F2BD01C2F200015D
:102D90000878904308700CE09DF92310012000FA98
:102DA00001F240F2BD01C2F2000108781043087040
:102DB000FFE7FFF707FBFFE79DF8230001388DF8D9
:102DC0002300C0E707208DF82300FFE79DF92300CB
:102DD00000283AD4FFE7FFE700F0A2F908B9FFE7BF
:102DE000FAE7002000F090FAFFF7FAFAFFE700F0A8
:102DF00097F9012801D1FFE7F9E7FFF7C7FB27287B
:102E00000DDCFFE79DF92310012000FA01F240F2EA
:102E1000BF01C2F200010878904308700CE09DF9F0
:102E20002310012000FA01F240F2BF01C2F20001BA
:102E3000087810430870FFE7FFF7C4FAFFE79DF832
:102E4000230001388DF82300C0E707208DF8230008
:102E5000FFE79DF9230000283AD4FFE7FFE700F0E1
:102E60005FF908B9FFE7FAE7002000F04DFAFFF735
:102E7000B7FAFFE700F054F9012801D1FFE7F9E7BD
:102E8000FFF784FB27280DDCFFE79DF923100120C5
:102E900000FA01F240F2BE01C2F20001087890434C
:102EA00008700CE09DF92310012000FA01F240F2B5
:102EB000BE01C2F20001087810430870FFE7FFF777
:102EC00081FAFFE79DF8230001388DF82300C0E761
:102ED00007208DF82300FFE79DF9230000283AD44E
:102EE000FFE7FFE700F01CF908B9FFE7FAE7002069
:102EF00000F00AFAFFF774FAFFE700F011F9012871
:102F000001D1FFE7F9E7FFF741FB27280DDCFFE7D9
:102F10009DF92310012000FA01F240F2C001C2F233
:102F200000010878904308700CE09DF923100120FF
:102F300000FA01F240F2C001C2F200010878104329
:102F40000870FFE7FFF73EFAFFE79DF8230001381E
:102F50008DF82300C0E707208DF82300FFE79DF9D7
:102F6000230000283AD4FFE7FFE700F0D9F808B9BA
:102F7000FFE7FAE7002000F0C7F9FFF731FAFFE7B3
:102F800000F0CEF8012801D1FFE7F9E7FFF7FEFADC
:102F900027280DDCFFE79DF92310012000FA01F23C
:102FA00040F2BC01C2F200010878904308700CE0C6
:102FB0009DF92310012000FA01F240F2BC01C2F297
:102FC0000001087810430870FFE7FFF7FBF9FFE7FF
:102FD0009DF8230001388DF82300C0E740F2C000BF
:102FE000C2F200000078622810DCFFE740F2C00067
:102FF000C2F20000007801F047F900220023C4F279
:10300000590300F0E7FF0490059110E040F2C00082
:10301000C2F20000007801F037F9002244F2000308
:10302000C4F28F0300F0D6FF04900591FFE70499E6
:1030300005980691079040F2BE00C2F200000078A9
:1030400001F022F9069A079B00F01CFF0A460A9934
:103050004A60086040F2BF00C2F2000000786228B7
:1030600010DCFFE740F2BF00C2F20000007801F080
:103070000BF900220023C4F2590300F0ABFF0290C9
:10308000039110E040F2BF00C2F20000007801F0AE
:10309000FBF8002244F20003C4F28F0300F09AFF11
:1030A00002900391FFE7029903980691079040F27E
:1030B000BD00C2F200000190007801F0E5F8069A28
:1030C000079B00F0DFFE0B460199099A53601060E0
:1030D00040F2BE00C2F20000007840F2C002C2F22C
:1030E0000002127810440978084440F2BF01C2F28D
:1030F00000010978084440F2BC01C2F200010978DD
:10310000884204D1FFE700208DF82F0003E0FF2064
:103110008DF82F00FFE79DF92F000CB080BD000057
:1031200041F20800C4F201000068C0F3803070472B
:1031300082B08DF8070042F23441C4F20101086800
:1031400000F01F00009000989DF8072002EB82021B
:1031500000FA02F2086810430860086820F01F00B7
:10316000086002B07047000080B584B08DF80F0091
:103170008DF80E109DF80E0060B9FFE740F2B80020
:10318000C2F200000068007800F00F000021FFF795
:10319000EDFB11E09DF80E0001280CD1FFE740F295
:1031A000B800C2F200000068007800F00F000121B2
:1031B000FFF7DCFBFFE7FFE73220FFF751F940F2B2
:1031C000B800C2F2000001900068407800099DF844
:1031D0000F1001F00101FFF7C9FB0198006880782A
:1031E0009DF80F10C1F3400100F00F00FFF7BEFB88
:1031F00001980068807800099DF80F10C1F38001E4
:10320000FFF7B4FB01980068C0789DF80F10C1F378
:10321000C00100F00F00FFF7A9FB01980068C0781B
:1032200000099DF80F10C1F30011FFF79FFB0198F3
:10323000006800799DF80F10C1F3401100F00F00F5
:10324000FFF794FB01980068007900099DF80F10C2
:10325000C1F38011FFF78AFB0198006840799DF85F
:103260000F10C909FFF782FB01980068407800F051
:103270000F0000210291FFF779FB0A200090FFF771
:10328000EFF801980068407800F00F000121FFF787
:103290006DFB0098FFF7E4F8019802990068407808
:1032A00000F00F00FFF762FB04B080BD81B08DF825
:1032B00003009DF803008100012000FA01F340F6AD
:1032C0000001C4F201010A689A430A609DF80320D4
:1032D0009200013200FA02F30A689A430A609DF8EC
:1032E00003209200023200FA02F30A689A430A604D
:1032F0009DF803209200033200FA02F2086890431E
:10330000086001B07047000081B00090009840F262
:103310009C01C2F20001086001B0704783B08DF8D3
:103320000B009DF80B00012816D1FFE741F20401C4
:10333000C4F201010191086840F0807008600868DB
:1033400040F000700860086840F08060086008681D
:1033500020F0006008601AE09DF80B00B0B9FFE7AC
:1033600041F20401C4F201010091086820F080706C
:103370000860086820F000700860086840F080600D
:103380000860086820F000600860FFE7FFE703B00E
:103390007047000080B586B08DF817009DF81700C3
:1033A000FFF78AFC00F070FF0391029002980399E6
:1033B000002201920023C4F2590300F079FF019A20
:1033C00003910290029803994FF60063C4F2AF0391
:1033D00000F000FE039102900298039906B080BDB0
:1033E00041F21801C4F20201086840F001000860CF
:1033F000086840F480500860086840F004000860E5
:1034000040F60001C4F2010108680022C3F2330251
:1034100010430860086820F480200860086820F4E1
:1034200000200860086840F400000860086820F484
:1034300080000860086820F080700860086820F04C
:1034400000700860086840F080600860086820F03C
:1034500000600860086820F080400860086840F05C
:103460000040086040F60C01C4F20101086840F019
:103470001000086043F20001C4F20101088840F026
:1034800004000880088820F400500880088820F490
:1034900000600880088820F480600880088820F098
:1034A00080000880088840F01000088043F2040281
:1034B000C4F20102108840F004001080088820F057
:1034C00001000880088820F002000880088840F089
:1034D0004000088070470000FFE743F20800C4F294
:1034E000010000880006002801D5FFE7F5E7FFE7A7
:1034F00043F20800C4F201000088C00708B9FFE7E2
:10350000F6E743F20C00C4F201000088C0B2704735
:1035100080B582B0019000200090FFE701980099EB
:10352000405C58B1FFE701980099405C00F008F852
:10353000FFF7D2FF009801300090EFE702B080BDA6
:1035400081B08DF80300FFE743F20800C4F20100E8
:1035500000880006002801D5FFE7F5E79DF8030085
:1035600043F20C01C4F201010880FFE743F20800B6
:10357000C4F2010000888007002801D4FFE7F5E7C6
:1035800001B0704780B582B042F20841C4F2010137
:103590000191086840F0010008600A200090FEF7E1
:1035A0004DFF0098019A116841F001011160FEF78A
:1035B00045FF0199086840F48000086002B080BDB2
:1035C00080B582B00120FFF7A9FE41F20C01C4F2E0
:1035D00001010191086820F4804008601320FEF783
:1035E0002DFF0199086840F48040086002B080BD5A
:1035F00041F22401C4F20201086840F001000860B1
:10360000FFE741F22400C4F20200006880070028AE
:1036100001D4FFE7F5E743F20001C4F2000145F2EF
:1036200055500860FFE743F20C00C4F20000006848
:10363000800708B1FFE7F6E743F20401C4F2000196
:103640000620086043F20801C4F2000140F6FF7052
:10365000086043F20001C4F200014CF6CC4008605F
:1036600070475FEA400C08BF91F0000F4FEA8C23CF
:103670004FEAC12243EA51514FEA1C5018BF00F5EE
:10368000F0404FEA300018BF41F000415FEA6C5C47
:1036900000F02980BCF1FF3F08BF40F08040704738
:1036A000130C06BF12044FF0100C4FF0000C130E59
:1036B00004BF12020CF1080C130F04BF12010CF12D
:1036C000040C930F04BF92000CF1020CD30F04BF43
:1036D00052000CF1010C11464FF00002A0F11F0046
:1036E000A0EB0C00704711F0004F08BF704731F09D
:1036F00000413FF4D5AF0B0C06BF09044FF0100C8E
:103700004FF0000C0B0E04BF09020CF1080C0B0F5C
:1037100004BF09010CF1040C8B0F04BF89000CF1EC
:10372000020CCB0F04BF49000CF1010CCCF12003BB
:1037300022FA03F341EA030102FA0CF2A0EB0C00B7
:1037400000F101007047000023F07F4720F07F4C1C
:1037500080EA030000F00040ACEB070303F57C5364
:1037600003F1FF032DE9804909B44FEA144324EA29
:1037700003484FEA154B25EA0B4E0FF2042606EBE1
:1037800013273E7803FB0667C7F5000707FB06F61D
:103790004FEAD64606F102064FEA543707FB066C9D
:1037A000CCF1005C4FEA1C472CEA074C0CFB06F5F9
:1037B00007FB06F404EB15464FEA961649085FEA44
:1037C000320234BF00204FF000404FEAD13706FBF1
:1037D00007FC4FEA1C4C0CFB0BF7D21B03FB0CF74E
:1037E00061EB07010CFB0EF7B0EB074072EB1742E1
:1037F0000CFB08F734BFA2EB0742B2EB074261EBC8
:1038000017414FEA0C444FEA910706FB07FC4FEAC9
:103810001C4C0CFB0BF7B0EBC74072EB573203FBB1
:103820000CF734BFA2EBC742B2EBC74261EB573192
:103830000CFB0EF7B0EBC70072EB57720CFB08F7EE
:1038400034BFA2EBC702B2EBC70261EB57714FEA7C
:10385000816141EA92114FEA826242EA90124FEA94
:10386000806004EBCC04039F4FEAD13706FB07FCD2
:103870004FEA1C4C0CFB0BF7D21B03FB0CF761EB64
:1038800007010CFB0EF7B0EB074072EB17420CFB85
:1038900008F734BFA2EB0742B2EB074261EB1741D6
:1038A0004FEA8C5504EB9C244FEA910706FB07FC7A
:1038B0004FEA1C4C0CFB0BF7B0EBC74072EB5732D6
:1038C00003FB0CF734BFA2EBC742B2EBC74261EB7C
:1038D00057310CFB0EF7B0EBC70072EB57720CFBC5
:1038E00008F734BFA2EBC702B2EBC70261EB577116
:1038F0004FEA816141EA92114FEA826242EA9012F4
:103900004FEA806015EB4C2544F100044FEAD137B3
:1039100006FB07FC4FEA1C4C0CFB0BF7D21B03FB0E
:103920000CF761EB07010CFB0EF7B0EB074072EBF5
:1039300017420CFB08F734BFA2EB0742B2EB074279
:1039400061EB17414FEA813141EA92414FEA8232FD
:1039500042EA90424FEA80304FEA0C7615EB1C1594
:1039600044F1000448EA03434EEA0B484FF0000ECE
:10397000B2EB080C71EB030724BF624639464EEBED
:103980000E0E4FF0000B0018524149414BEB0B0B50
:10399000B2EB080C71EB03077BF1000B24BF62460E
:1039A00039464EEB0E0E4FF0000B001852414941C4
:1039B0004BEB0B0BB2EB080C71EB03077BF1000B2D
:1039C00024BF624639464EEB0E0E51EA020718BF7D
:1039D00046F0010616EB0E7655F1000254F1000197
:1039E00003D5BDE88901BDE80088BDE88901BDE8CF
:1039F0000048B619524141EB0101A3F101037047A0
:103A000080807F7E7D7C7B7A79787776767574731B
:103A1000727171706F6E6E6D6C6C6B6A6A696868DA
:103A2000676666656464636362616160605F5F5E70
:103A30005E5D5D5C5C5B5B5A5A59595858575756E6
:103A4000565555555454535352525251515050504B
:103A50004F4F4F4E4E4D4D4D4C4C4C4B4B4B4A4A9D
:103A60004A494949484848474747474646464545E1
:103A7000454444444443434343424242424141411A
:103A80009C46002B30D477002BD04FEA37071CB56B
:103A900003B44FF010004FF01001BAF1000F06D040
:103AA000BCF1000FDCBF40F0080040F008014FF00F
:103AB00000000FBCBDE810400BF1010BBBF1010F82
:103AC00008BF5FEA170722BF12F1010211F10101DD
:103AD0004FF0004143F1000300F0004043EA0000D2
:103AE0007047F9D35708D0E746EA06464FEA16462C
:103AF00013F1400F1FDD13F1200FDFBF16430A46FD
:103B0000002120335B42BED0C3F1200746EA0646BF
:103B10004FEA164602FA07F746EA070622FA03F2C8
:103B2000C3F1200701FA07F742EA070221FA03F17D
:103B30004FF00003A7E746EA020646EA06464FEAC8
:103B4000164646EA0106BCBF46EA0646360C4FF06A
:103B500000034FF000024FF0000194E72DE9804C84
:103B600070B49A46934691E8380007C831EA400C91
:103B700048BF34EA430C03D5FFF7E6FDFFF780FFAB
:103B8000F0BCBDE8008C2DE9804C70B49A46934699
:103B900091E8380007C810F0804F08BF13F0804F3D
:103BA00003D100F005F8FFF76BFFF0BCBDE8008C17
:103BB00020F07F4723F07F4C80EA030000F00040B4
:103BC00007EB0C03A3F57C53A3F1FE0392F0000F67
:103BD00000F0B38095F0000F00F077802DE90149E7
:103BE0004FEA114021EA00484FEA144624EA06470A
:103BF00000FB06FC08FB06F607FB08F818EB064876
:103C00004CEB164C00FB07F718EB07484CEB174042
:103C10004FEA124B22EA0B4E4FEA154625EA0647B9
:103C20000BFB06FC0EFB06F607FB0EFE1EEB064E1C
:103C30004CEB164C0BFB07F71EEB074E4CEB174BF0
:103C400018EB0B0840F1000018EB0E0B58EB0008C6
:103C500040F100008F1A4FF000014FF000063CBF0A
:103C6000C943661B14BFB5EB040C00213CBFC9431C
:103C7000F61B4FEA174427EA04454FEA1C472CEA93
:103C8000074C04FB076205FB07F70CFB05F616EB78
:103C9000074642EB174204FB0CFC16EB0C4642EBCA
:103CA0001C421BEB060658EB020241414EEA8E0E07
:103CB00046EA9E0601D5BDE80189B619524141EB9D
:103CC0000101A3F10103BDE801894FEA144524EA8B
:103CD00005464FEA114721EA074C05FB07F406FBAE
:103CE00007F70CFB06F111EB074144EB174405FB0A
:103CF0000CFC11EB0C4144EB1C444FEA124722EA46
:103D0000074C05FB07F206FB07F70CFB06F616EB64
:103D1000074642EB174205FB0CFC16EB0C4642EB48
:103D20001C456A1854F1000148BF7047B61952414A
:103D300041EB0101A3F10103704795F0000F37D06B
:103D40004FEA114221EA02464FEA144724EA074C9F
:103D500002FB07F106FB07F70CFB06F414EB074424
:103D600041EB174102FB0CFC14EB0C4441EB1C41F2
:103D70004FEA154725EA074C02FB07F506FB07F754
:103D80000CFB06F616EB074645EB174502FB0CFC51
:103D900016EB0C4645EB1C42121951F1000148BFCD
:103DA0007047B619524141EB0101A3F1010370477D
:103DB0004FEA144524EA05464FEA114721EA074C29
:103DC00005FB07F106FB07F70CFB06F212EB0742B7
:103DD00041EB174105FB0CFC12EB0C4251EB1C4173
:103DE0004FF0000648BF7047921841EB0101A3F164
:103DF00001037047490050EAC12018BF04204A0D52
:103E000018BF40F0010040F2FF72B2EB515F08BFF3
:103E100040F00200012808BF0520704730380A280A
:103E200001D20120704700207047000010B5002922
:103E30000AD00878002807D005487844FDF7B8FC78
:103E4000002801D0002010BD0248784410BD0000B9
:103E5000BE090000B609000010B500290AD0087894
:103E6000002807D005487844FDF7A2FC002801D0BF
:103E7000002010BD0248784410BD0000AE090000CB
:103E8000A609000010B591EA030F48BF83F0004374
:103E900000F11483841A71EB030C05D2121943EB61
:103EA0000C03001B61EB0C014FEA1154A4EB135CF3
:103EB000DFF81CE11EEA430F18BF9EEA445F00F0E2
:103EC000748021EA045123EA0E0343F48013DCF1E9
:103ED000200E32D322FA0CFE10EB0E0023FA0CFE59
:103EE00041EB0E01CCF1200E03FA0EFE10EB0E009A
:103EF000CCF1200E51F10001B1F5801F32D201EB5F
:103F0000045112FA0EF2BDE8104058BF7047401C31
:103F100038BF5FEA420218BF7047002814BF20F084
:103F2000010041F100014FEA410313F5001F38BFC2
:103F30007047A1F1C04100F0B3BA012A43EB03027C
:103F4000ACF1200CDCF11F0E32BF4FF0000E23FA53
:103F50000CF310EB030041EB0451B4EB115FD0D034
:103F6000A1EB045101F58011490801EB04515FEA0E
:103F700030000ED350F1000038BF12FA0EFE08D107
:103F8000BDE81040C9E7401C38BF5FEA4202CAD111
:103F9000C3E7BDE810404FEA410313F5001F38BFE7
:103FA0007047A1F1C04100F07BBA9EEA445F08D09F
:103FB00011EA5E0FBDE8104004BF01F0004100208F
:103FC0007047BDE8104070B500F01CFA64FBBE3EBF
:103FD0000000E0FF2DE9C04130B4DFF8A4C23CEAA4
:103FE000111418BF3CEA131400F0ED801CEA111400
:103FF00081EA030544EAD57418BF1CEA131500F0E2
:10400000C880A4EB050404F17F7404F500344FF07C
:10401000004545EAC12145EAC32341EA505143EA3C
:1040200052534FEAC0204FEAC222994208BF904241
:1040300000F09D804FEA13650FF24416765D4FEA5B
:10404000134506FB05F7C7F1807706FB07F74FEA34
:10405000D737A7FB03687642A7FB06CEC8F58038A2
:1040600038BFA8F1010807FB08E6A6FB028C4FF059
:10407000000EE6FB03CEDCF1000CCEF1004E38BFA3
:10408000AEF1010EA6FB0C584FF00007E6FB0E87C1
:10409000A1FB08C6A0FB07CE16EB0E064FF00005ED
:1040A00045F10005E1FB076515F1E04E7EBFA4F583
:1040B00080345FEA46066D4116F1800745F1000540
:1040C0004FEA172747EA05674FEA15254FEA0666C4
:1040D000A6F1DE46B6F1805F20D9384605EBC47103
:1040E00024F0010C01EB0C11BCF1FE6F02D8F0BC06
:1040F000BDE8008124425CBF01F5801E9EEAC47FBA
:1041000002D4F0BCBDE80081244200F13980A1F165
:10411000C041F0BCBDE8004100F0C2B94FEAD02078
:1041200040EA41504FEAD1214FEAD22242EA4352BB
:104130004FEAD323A7FB028607FB036605FB026653
:104140001EEA0E0F58BFA6EB0056B6EB00564FEA1C
:10415000520E4EEAC37E18EB0E0E56EB530EBCD534
:1041600018EB02085E417F1C55F10005B5E74FF4DE
:1041700080154FF000074FF000064FF00008ACE745
:1041800001F1C04101F000414FF00000F0BCBDE87A
:1041900000810CEA131511EA0C1F00D00CE013EAA1
:1041A0000C1F00F026804FF0000081EA030101F0AF
:1041B0000041F0BCBDE80081F0BCBDE8004181EAEF
:1041C000030100F06DB9F0BCBDE8004170B500F02E
:1041D00019F900BF097EFC3E00F007B84FF000005F
:1041E00081EA030101F00041704781EA030100F018
:1041F00057B9F0BCBDE8004122494FF000007047BC
:10420000FFFDFBF9F7F5F4F2F0EEEDEBE9E8E6E49B
:10421000E3E1E0DEDDDBDAD8D7D5D4D3D1D0CFCD22
:10422000CCCBCAC8C7C6C5C4C2C1C0BFBEBDBCBB5B
:10423000BAB9B8B7B6B5B4B3B2B1B0AFAEADACAB56
:10424000AAA9A8A8A7A6A5A4A3A3A2A1A09F9F9E30
:104250009D9C9C9B9A9999989797969595949393E2
:10426000929191908F8F8E8E8D8C8C8B8B8A898979
:1042700088888787868585848483838282818180FC
:104280000000FF070000F87FB0FA80F310FA03F196
:104290000AD0C3F11D0303F580634FEA03524FEACE
:1042A000415002EBD12170474FF0000070470000F1
:1042B00070B5DFF848C11CEA111E1EBF1CEA1315B9
:1042C0009EEA0C0F95EA0C0F00F06F8081EA030460
:1042D0004EEAD47EAE4421EA4C1123EA4C1341F459
:1042E000801143F48013AEF17F7EA1FB024CA0FB52
:1042F0000365361955EB0C05A1FB034C4CF100038B
:10430000A0FB021C16EB0C06654153F100030942A9
:1043100018BF46F0010613F4007F0BD14FEA0331BA
:104320004FEA053041EA155140EA165034036FF068
:1043300003020AE04FEAC3214FEAC52041EA555182
:1043400040EA5650F4026FF0020202EB2E4201EBFB
:10435000025585EACE710AD05FEA440C18BF24F0FA
:10436000004450F1000041F1000120EAD47040F215
:10437000FE7C624500D270BDA84214BF4FF080445D
:104380004FF04044002E08BF0024BEF1806FA8BF4C
:10439000A1F1C041BDE8704080F2828001F1C041CE
:1043A00001F000414FF0000070470CEA13159EEA3F
:1043B0000C0F18BF95EA0C0F06D081EA030E4FF0E0
:1043C00000000EF0004170BD00F01CF88900013EB5
:1043D00000F007B800F009B84FEA430C5FEA5C5CF4
:1043E00008D081EA030100F05BB84FEA410C5FEAB4
:1043F0005C5CF6D102494FF0000070470000FF07F7
:104400000000F87F0EF1020E2EF0030E5EF8046B32
:10441000364205D4012A43EB030515F5001F12D8D7
:10442000012841EB010C1CF5001F0CD80ED14FEAFE
:10443000D17C0CEB4C0C0CF1020C15F5001F08BFE5
:104440004CEBD37C04E04FF0080C01E04FEAD37C46
:104450000CEB4C0526FA05F606F00706B6F1040C3F
:1044600006D20EEB860CBDE870404CF0010C6047A4
:10447000DFE80CF0090B02024FF00041A1F500212A
:104480004FF0000070BD19461046012851EB0104A1
:1044900018BFD4F5001484BF002001F0004170BDA6
:1044A0000808A0F500114FEA3101704710B591EAF4
:1044B000030F48BF83F000433FF5ECAC841A71EB67
:1044C000030C07D28CF0004C121943EB0C03001BB9
:1044D00061EB0C014FEA1154A4EB135CDFF8A4E18B
:1044E0001EEA430F18BF9EEA445F00F0B48021EA41
:1044F000045123EA6E035242C3EB6E0338BF5B1EC6
:10450000DCF1200E25D322FA0CFE10EB0E0043FA4C
:104510000CFE41EB0E01CCF1200E03FA0EFE10EB67
:104520000E00CCF1200E51F1000129D401EB045111
:1045300012FA0EF2BDE8104058BF7047401C1CBF75
:10454000B2F1004F704700280CBF491C20F0010059
:10455000704712EB020E43EB030218BF4FF0010E3F
:104560004EEA4202ACF1200CDCF11E0E56D943FAA1
:104570000CFE10EB0E00CCF11E0E51F1FF31D5D523
:104580000EF1010E12FA0EFE404141EB010101EB6A
:10459000445C5FEA5C5C10D901EB045110EBDE7007
:1045A00038BFBEF1004FBDE8104018BF704700286B
:1045B0000CBF491C20F00100704734D24FEAD42CC4
:1045C00024F4006411F500111BD0B1FA81F20B3A0A
:1045D000A41AA41ED2F12003914030FA03F3194328
:1045E000904001EBCC7101EB0451002CBDE8104070
:1045F000A8BF704701F1C04101F000414FF0000039
:104600007047B0FA80F310FA03F102D1BDE8104010
:104610007047E41A173C4805C90AE2E701EB045168
:10462000BDE81040704749104FEA300001EB0451DB
:10463000BDE8104002E04FF0000170474A0008BF9B
:104640000042F8D0B2F5001F28BF704701F00041CA
:104650004FF0000070479EEA445F07D011EA5E0FFA
:10466000BDE8104004BF002100207047BDE81040A5
:1046700070B5FFF7C7FE00BF40DFF63E104683F07F
:10468000004170470000E0FFFCF74EBCFCF782BD24
:10469000000000000000000030313233343536377E
:1046A0003839414243444546403058003031323376
:1046B0003435363738396162636465664030780076
:1046C00004000008000000000000000200010000DB
:1046D00010303132333435363738396162636465CE
:1046E00066787000303132333435363738394142EC
:1046F000434445465850000002400000000000A01E
:104700000000000005400000000000C8000000009C
:104710000C4000000000409C000000001940000018
:104720000020BCBE0000000034400000BFC91B8E4A
:1047300000000004B5400000504BCFD06607E2CF28
:10474000010000006C4100003E8251AADFEEA73458
:1047500001000000D9420000DCB5A0E23A301F970A
:10476000FFFFFFFFB4450000FD25A0C8E9A3C14F2E
:10477000FFFFFFFFFF3F000000000080000000007F
:10478000FF3F00000000008000000000506C6561E9
:10479000736520576169742E2E2E2100496E69744D
:1047A0002073756363657373210053206D6F6973A4
:1047B000747572650025633A20252E31662C2025FC
:1047C0006320252E31660025733A20252E3266009F
:1047D000252E326620252E326620252E3266007266
:1047E000657175657374000024490008000000209D
:1047F00028070000540100081C00000043000000CE
:10480000F8FFFFFF0C0000000E0000000F0000008A
:104810002E0000001001000043000000F8FFFFFF21
:1048200000404040404040404040414141414140C3
:104830004040404040404040404040404040404078
:104840004005020202020202020202020202020207
:10485000022020202020202020202002020202020C
:104860000202909090909090101010101010101064
:104870001010101010101010101010100202020270
:1048800002028888888888880808080808080808B4
:1048900008080808080808080808080802020202B0
:1048A00040000000000000000000000000000000C8
:1048B00000000000000000000000000000000000F8
:1048C00000000000000000000000000000000000E8
:1048D00000000000000000000000000000000000D8
:1048E00000000000000000000000000000000000C8
:1048F00000000000000000000000000000000000B8
:1049000000000000000000000000000000000000A7
:104910000000000000000000000000000000000097
:044920000000000093
:04000005080000ED02
:00000001FF
