:020000040800F2
:1000000058080020150200081D0200081F02000801
:100010002102000823020008250200080000000059
:10002000000000000000000000000000270200089F
:1000300029020008000000002B0200080523000828
:100040002F0200082F0200082F0200082F020008CC
:100050002F0200082F0200082F0200082F020008BC
:10006000551900082F0200082F0200082F0200086F
:100070002F0200082F0200082F0200082F0200089C
:100080002F0200082F0200082F0200082F0200088C
:100090002F0200082F0200082F0200082F0200087C
:1000A0002F0200082F0200082F0200082F0200086C
:1000B0002F0200082F0200082F0200082F0200085C
:1000C0002F0200082F0200082F0200082F0200084C
:1000D0002F0200082F0200082F0200082F0200083C
:1000E0002F0200082F0200082F02000800F002F87B
:1000F00000F081F814A696E8000CB244B344DA4547
:1001000001D100F078F8BAE80F000FA696E83000A9
:10011000A5EB040504EB0607AAEB0704A7F101070A
:100120004FEA15154FEA3414A4F10104AC4201D38F
:1001300000F061F813F0010F18BFFB1A43F0010340
:1001400000F001F8DBE718474C3F00006C3F00006F
:10015000103A24BF78C878C1FAD8520724BF30C8F3
:1001600030C144BF04680C60704700007047000055
:100170000023002400250026103A28BF78C1FBD8B0
:10018000520728BF30C148BF0B607047662903F093
:100190000A87692900F01081642900F00D81752912
:1001A00000F00A816F2900F0A181782900F0C88150
:1001B0000368DB0928BF41F08001632900F05987FB
:1001C000E32900F06C87002070471FB59DE803000D
:1001D00000F062FC01F016F804000020002103F09A
:1001E00055FE401C60600020002103F039FEE060F5
:1001F0001FBD10B510BD01F0EAFA1146FFF7E5FF8B
:1002000002F04EFE01F008FB03B4FFF7F2FF03BC5F
:1002100001F078FB0948804709480047FEE7FEE700
:10022000FEE7FEE7FEE7FEE7FEE7FEE7FEE7FEE7A6
:1002300004480549054A064B70470000152300088D
:10024000ED00000858020020580800205804002043
:100250005804002070B5A0FB0140B4F1805170F14A
:10026000000024BF002070BD204600F044FC0500C3
:100270001CBF214600F07CFB284670BD70B50446CB
:10028000051F00F0EDFB0068002C14BF446870BD32
:10029000002C18BFAC423CBF20466468F8D301680C
:1002A0000A18AA4218BF456003D12A6805461144BE
:1002B000016028684119A1421CBF6C6070BD616873
:1002C000696021680844286070BD00000FB41CB547
:1002D000074B06AA7B4469460090059800F0A7FEEC
:1002E0000020694600F0B6FE1CBC5DF814FB00005F
:1002F0007D0D000070B5044685690068C10601D512
:10030000302600E02026C00707D070BDD4E90121C7
:1003100030469047206A401C20626D1EF6D570BDA5
:1003200070B5044685690078C00707D170BDD4E96F
:10033000012120209047206A401C20626D1EF6D5C6
:1003400070BD09684A0501D540B27047C905FCD5A2
:1003500000B2704709684A0501D5C0B27047C905A7
:10036000FCD580B2704770B50C460546012A05D011
:100370002878800600D5EA69002302E0012305E021
:100380005B1C934202D2E05C0028F9D1A869E61810
:10039000C01AA861286A184428622846FFF7AAFFF5
:1003A00004E0D5E9012114F8010B9047B442F8D3D9
:1003B0002846FFF7B5FF70BD2DE9F0410646002441
:1003C00010687529314616A510D0FFF7BAFF00282E
:1003D00002DA404213A507E031688A0701D512A569
:1003E00002E0490704D511A5012401E0FFF7B2FF9F
:1003F00000210A2206F1240709E0B0FBF2FCB0FB61
:10040000F2F302FB1C00303078541846491C0028D7
:10041000F3D123462A463046BDE8F04100F09ABBAE
:10042000000000002D0000002B0000002000000054
:100430002DE9FF5F15468A460446DFF8AC80F84494
:100440000027D8E900103E46CDE9001010E03AF848
:1004500016106A4602A800F073FE411C07D02178EE
:10046000890603D5E269391891420DD80744761CF4
:100470002078800602D5E069B84205DDAE42E6DBB1
:100480003AF816000028E2D1A069C01BA0612046FE
:10049000FFF730FFD8E90010CDE90010002017E089
:1004A0003AF818106A4602A800F04AFEB0F1FF3F81
:1004B00081460BD000250DF1080B05E0D4E90121A0
:1004C0001BF8050090476D1C4D45F7D308F101005E
:1004D000B0428046E4DB206A384420622046FFF7C1
:1004E0001FFFBDE8FF9F00006A3B000070B5044697
:1004F00021461068FFF72EFF002104F1240505E0D6
:1005000000F007023032C0086A54491C0028F7D1B5
:100510002068002308A2050708D500F02000084342
:1005200004D0E069012305A2401EE0612046BDE839
:10053000704000F00FBB0000000000003000000021
:1005400070B504460D4621461068FFF703FF218869
:10055000090502D50F4A7A4402E00E4A7A440E3267
:10056000002104F1240305E000F00F060009965D68
:100570005E54491C0028F7D120780023000704D5D9
:10058000702D02D009B1022311322046BDE870401F
:1005900000F0E0BA5A3A00002DE9F05F89460446BF
:1005A0004FF0000ADFF874B1FB44C0F820A02046E9
:1005B000E1688847002874D0252806D0D4E90121B5
:1005C0009047206A401C2062F1E700265F462046E3
:1005D000E16888472028054607DB312D05D27819C8
:1005E00010F8200C08B10643F1E7B00701D526F05A
:1005F0000406C4F81CA00027C4F818A02A2D09D0AE
:10060000284603F025FC38B304EB8708303DC8F8D2
:10061000185019E059F8041B204604EB8702916139
:10062000E1688847012F054618D1E069002820DAE3
:1006300026F020061DE0D8F8180000EB800005EB3E
:1006400040003038C8F818002046E1688847054661
:1006500003F0FEFB0028EED1012F0AD02E2D08D189
:100660002046E16888477F1C0546022F46F0200699
:10067000C4DBA069002803DA404246F00106A0610D
:10068000F00701D026F010066C2D0BD0682D09D094
:100690004C2D39D06A2D35D0742D35D07A2D33D0EC
:1006A00016E038E0E1682F4620468847B842054604
:1006B00009D16C2F26D04FF48060E16806432046B4
:1006C0008847054604E06C2F1AD04FF4807006432B
:1006D0000DB3A5F14100192802D8203546F4006673
:1006E0004A462946204626604E46FFF74FFD80B118
:1006F00001280BD0F61D26F0070000F1080956E787
:100700004020E4E78020D8E70020D6E706F104097E
:100710004DE7284652E7206ABDE8F09F303A0000D6
:100720000FB400B58DB010A9099000910B904FF057
:10073000FF300A9000200C90064878440690064846
:1007400078446A4607900F9909A800F0C9FC0DB0DB
:100750005DF814FBC3090000DB0900002DE9FF5F11
:100760001D464FF0FF3B91464FF000085F46D5E92C
:100770000146A96901987F1C8847296A82468847F3
:100780000028F6D1BAF1FF3F0CD0002E24F4C0644B
:1007900019DD600614D5BAF12B0F09D0BAF12D0F6F
:1007A0000ED103E0584604B0BDE8F09F44F48064E5
:1007B000A96901987F1C8847761E8246002E02DDBB
:1007C000BAF1300F03D0B9F1000F26D032E0A96999
:1007D000761E01987F1C44F400748847002E8246E0
:1007E00005DDBAF1780F06D0BAF1580F03D0B9F190
:1007F000000F10D01EE0B9F1000F02D0B9F1100FB8
:1008000018D1A969761E01987F1C24F400748847CA
:100810008246102002E0082000E00A20814609E01C
:10082000A96908FB0908761E01987F1C44F400742E
:1008300088478246002E05DD4946504600F03BFCC5
:100840000028EDDAE96901988847A00502D46FF025
:100850000100A8E7E00725D1600613D5600502D5A1
:10086000C8F1000000E0404629680A1D2A600968B6
:10087000220501D5087015E0220701D5088011E096
:1008800008600FE02868011D29600068210502D575
:1008900080F8008006E0210702D5A0F8008001E082
:1008A000C0F8008038467EE710B5431C02E010F81F
:1008B000011B71B18107FAD14FF0013202C88C1AC5
:1008C0008C4314EAC211F9D0C01A0A0603D0C01E24
:1008D00010BDC01A10BD0A0401D0801E10BD09024F
:1008E000FCD0401E10BD032A40F2308010F0030CF3
:1008F00000F0158011F8013BBCF1020F624498BF73
:1009000011F801CB00F8013B38BF11F8013BA2F10F
:10091000040298BF00F801CB38BF00F8013B11F08A
:10092000030300F03184083AC0F0088051F8043B1A
:10093000083A51F804CBA0E80810F5E7121D5CBF97
:1009400051F8043B40F8043BAFF30080D20724BFCA
:1009500011F8013B11F801CB48BF11F8012B24BF5E
:1009600000F8013B00F801CB48BF00F8012B7047AD
:100970004FF000020429C0F0128010F0030C00F0C8
:100980001B80CCF1040CBCF1020F18BF00F8012B46
:10099000A8BF20F8022BA1EB0C0100F00DB85FEA14
:1009A000C17C24BF00F8012B00F8012B48BF00F8E0
:1009B000012B70474FF0000200B51346944696464F
:1009C000203922BFA0E80C50A0E80C50B1F1200162
:1009D000BFF4F7AF090728BFA0E80C5048BF0CC010
:1009E0005DF804EB890028BF40F8042B08BF70476E
:1009F00048BF20F8022B11F0804F18BF00F8012BE0
:100A0000704710B5044610F0030F08BF11F0030F34
:100A100040F015804FF0013E121FC0F20E8051F8D9
:100A2000043BA3EB0E0C2CEA030C1CEACE1C08BF03
:100A300040F8043BF0D0A1F1040102F10402521E7F
:100A400008DB11F8013B00F8013B002BF7D1114600
:100A5000FFF78EFF204610BD7047704770470000BB
:100A6000004870471000002070477047704770477B
:100A700038B504460A4600206946AFF300800028D6
:100A800008BF38BD02460099204600F0C5FB012092
:100A900038BD012000F094BEF8B5AFF300800546E4
:100AA00000200C460C2000BF0646A819A0420DD914
:100AB000324669460020AFF30080070008BF00F00F
:100AC0007FFE0098A04218BF0546C419FFF7C8FF73
:100AD00005600746F01D20F007004619284600F083
:100AE00095FBB44208BFF8BDA21B31463868BDE88B
:100AF000F84000F091BB70B50646FFF7B1FF0568FE
:100B000006F10B0020F00704B4429CBF002070BD2A
:100B10002B466A68BAB11068A04210D304F10801EC
:100B200088423CBF5068586007D351681019416033
:100B30001168091B016058601460101D70BD1346D8
:100B40005268002AE7D121462846FFF791FF002886
:100B5000DED170BD2DE9F0470D4699469246044618
:100B600000F124080168880604D5E06921F010012D
:100B7000216000E00120A84201DD471B00E00027C2
:100B8000A1697A1902EB0900081AA0612078C00651
:100B900002D42046FFF7AEFB002608E0D4E901218D
:100BA0001AF806009047206A401C761C20624E45C9
:100BB000F4DB2078C0060AD52046FFF79BFB06E051
:100BC000D4E9012130209047206A401C2062381E61
:100BD000A7F10107F4DC07E0D4E9012118F80500CA
:100BE0009047206A401C2062281EA5F10105F3DC15
:100BF0002046FFF795FB2078000602D50220BDE8CD
:100C0000F0870120FBE72DE9FF4F0C461E464FF011
:100C1000FF378BB0D2E90001DDF860800A908A4688
:100C2000C1F30A5505B93D46002108464FF00000C2
:100C3000BAF1000F00F4400005DA00EB80004FF439
:100C4000400101EA50004FEA9059B9F1010F00DD6F
:100C5000B9460A9850EA4A000ED044F61050A5F260
:100C6000FF3545432F14B8F1000F1ED07542291EE1
:100C70001EDDC9F100021CE0B8F1010F4FF00000C9
:100C800001D0302103E0F24305E02154401CB04282
:100C9000FBDB30460022002121540B99C1F808806B
:100CA000C1E900200FB0BDE8F08FBD1B6D1CDEE771
:100CB0004A4600DA694206A800F010FD06AB93E848
:100CC000070003AB83E8070050460A9902F0E4FCF2
:100CD0008DE80700A0F500501F3800900398002D04
:100CE0000ADD42F21F014A460844002303A903908B
:100CF000684602F04DFF09E0A0F500504A461F3853
:100D0000002303A90390684602F057FF8DE807000F
:100D10000004000C03D04FF0FF30410800E0104603
:100D2000B8F1000F03D00022009215461EE0751E98
:100D300005D400F08BFA303262556D1EF9D5B346FA
:100D40000122084302D000227F1C04E020783028D2
:100D500001D100227F1E002A099784D01DE0112DA9
:100D600007DA00F073FA303262556D1C50EA010266
:100D7000F5D1084302D00098C8B10EE00021681EEA
:100D800005E0235C625C63542254401E491C81428E
:100D9000F7DBAB46A81B401E0990002004F80B00AF
:100DA0000B98099AC0F80880C0E9002B7AE7112651
:100DB0004FF0000857E72DE9F04F88460446D21D52
:100DC00022F0070191B0D1E90001CDE90A0103F059
:100DD0002BF802460B98C00F01D02D2007E02068A9
:100DE000810701D52B2002E0202101EAC000032A5F
:100DF000099001D0072A05DB03464146204600F052
:100E000073FA0BE12078800601D5E06900E0062046
:100E1000B8F1650F814606D0B8F1660F18D0B8F169
:100E2000670F70D131E00020B9F1110F009001DBA4
:100E3000112301E009F101030AAA01A90CA8FFF797
:100E4000E2FEDDE90C70002609F10105834647E06A
:100E500001204B4600904FF000470AAA01A90CA8B8
:100E6000FFF7D1FEDDE90DB00C995D46002610B903
:100E700009F101000D18B9EB050003D4C0F1FF36EC
:100E800009F10105A5EB09002BE0B9F1010F01DA29
:100E90004FF001090020B9F1110F0090484601DD23
:100EA000112300E003460AAA01A90CA8FFF7ABFE34
:100EB000DDE90C704D4600268346207800070AD4F1
:100EC000AB4500DA5D4601A8012D04DD411911F89A
:100ED000011C302907D04F4502DA17F1040F04DA5C
:100EE000012082460FE06D1EEEE7002F02DCED1BB5
:100EF0003E4403E0781CA84200DD7D1CB81B00F1D5
:100F0000010A4FF000472078000703D4AA4501DB0F
:100F10004FF0FF3A0021B7F1004F0DF143088DF873
:100F2000431024D002202B23002F01DA7F422D23EF
:100F30000A21021EA0F1010000DC5FB197FBF1FC69
:100F400097FBF1F201FB1C7C17460CF1300C08F802
:100F500001CDEEE7A8F1010003702188090501D554
:100F6000452100E06521A0F1010800F8011C099865
:100F70000FA9A1EB0807FF1D00B10120411901EBEA
:100F8000EA70A1693844081A401EA0612078C006A2
:100F900002D42046FFF7AEF9099828B1D4E901211F
:100FA0009047206A401C20622078C00622D5204647
:100FB000FFF7A0F91EE0002E04DBB34502DD01A817
:100FC000805D00E03020D4E901219047206A401C78
:100FD0002062761CAAF101005FEA000A0AD100F043
:100FE00011F9C0680168405CD4E901219047206A8A
:100FF000401C2062281EA5F10105DCDC07E0D4E9D5
:10100000012118F8010B9047206A401C2062381E0D
:10101000A7F10107F3DC2046FFF782F9032011B0A6
:1010200041E6000001694A1C02610878704700B57A
:101030008FB0CDE901310021059105497944CDE911
:10104000031011466846FFF7A7FA0FB000BD000075
:10105000E5FFFFFF0A6802F8010B0A60704710B550
:10106000436913B1AFF3008001E0FFF77CF9012081
:1010700010BD127800F124010A7000224A7001228A
:10108000EDE711684FF0FF32E9E710B5436913B19E
:10109000AFF3008001E0FFF7CBF9012010BD12880B
:1010A00000F1240182840022C2840122EDE711684C
:1010B0004FF0FF32E9E73A2800D2303820F0200222
:1010C000412A01D3A2F13700884201D34FF0FF300B
:1010D0007047000002681144137801601846704799
:1010E000D160054979445161044979441162002174
:1010F0001161114600F038B9EDFFFFFFE901000072
:10110000426842B1016811F8013B23B1521EC0E9A7
:101110000012184670470121C160881E704742685E
:101120005AB1C368016843B983688B4205D0491E30
:10113000521CC0E90012002070474FF0FF3070478A
:101140002DE9F04116460C46054600F053F80368B9
:1011500093F80101012807D0FF2C12D8185D80B147
:1011600001202C70BDE8F081D3F8070132462146FA
:1011700003F20713C7182846BC46BDE8F041002318
:1011800060474FF0FF30EDE710B5203AC0F00B801C
:10119000B1E81850A0E81850B1E81850A0E818506D
:1011A000203ABFF4F5AF5FEA027C24BFB1E81850E3
:1011B000A0E8185044BF18C918C0BDE810405FEA45
:1011C000827C24BF51F8043B40F8043B08BF7047C1
:1011D000D20728BF31F8023B48BF11F8012B28BFC6
:1011E00020F8023B48BF00F8012B704700487047C9
:1011F0000800002010B500F005F8001D10BD00BF6C
:101200008D2C00000048704728000020002101605C
:10121000416070470C207047034640688C460028A8
:1012200018BF88423CBF03464068F8D3186818448A
:10123000884207D00CF1030020F00700001D411A7E
:10124000521A0146081D0A60FFF718B830B5B0F110
:101250000A0271F100034FEA900E4EEA817EB0EB74
:101260000E0061EB91014FEA101E4EEA017E10EB79
:101270000E0041EB11114FEA102E4EEA016E10EBF9
:101280000E0041EB11214FEA104E4EEA014E10EBD9
:101290000E0041EB1141401841F100014FEAD0002E
:1012A00040EA41704FEAD1014FEA810444EA907468
:1012B00010EB800544EB01046D1944EB0404521B50
:1012C000A3414FF0000348BF0A3200D530BD401C97
:1012D00041F1000130BD10B50446FFF78BFF0068F7
:1012E000005D00F0010010BD2DE9F0411F460446ED
:1012F00003260168072A01F4006004DB08B116A583
:1013000005E016A503E008B115A500E015A521F03C
:1013100010002060A069C01EA0610FB1401EA06136
:101320002046FEF7E7FF4FB1D4E901213846904748
:10133000206A401C2062C01C206206E0206AFAE796
:10134000D4E9012115F8010B9047761EF8D220460A
:10135000FEF7E6FFBDE8F0814E414E006E616E0083
:10136000494E4600696E66002DE9F34F4FF0000AC2
:101370000C4656468DB001200C9001F10C000B90EC
:1013800062690B9801219047051E2DD0252D2CD088
:10139000216A8847C0B162690B9801219047216A90
:1013A00088470028F7D16269411E0B98904700E0FA
:1013B000761CA1690D988847216A88470028F7D1D3
:1013C000E1690D988847DBE7A1690D988847A84235
:1013D000074601D1761CD3E7E1690D9888477F1C49
:1013E00002D1BAF1000F6FD06BE162690B98002750
:1013F0003D46394690472A2804D162690B9801215D
:1014000090470125DFF8D08262690B98012190474F
:10141000A0F130010A290AD24745E5DC07EB870134
:1014200000EB4107303FDFD445F01005ECE7E9065B
:1014300001D46FF000476C280AD04C2814D06828DB
:1014400015D06A280DD074281CD07A281AD01DE037
:1014500062690B98012190476C2802D045F0040581
:1014600014E045F002050DE045F020050AE0626950
:101470000B9801219047682802D045F0080505E047
:1014800045F4006562690B9801219047C4E9015752
:1014900065283DD019DC58287AD00CDC452837D097
:1014A00004DC252826D041289ED131E046282FD0C3
:1014B000472899D12CE05B2877D0612828D0632871
:1014C0007CD0642823D15AE0F6E06F2848D008DCAD
:1014D00066281DD067281BD0692821D06E2816D118
:1014E00027E0702845D0732868D0752847D0782821
:1014F0000DD14DE0A1690D988847252805463FF498
:1015000069AFE1690D9888476D1C3FF46AAFD8E078
:101510000D9923466A466FF00100AFF30080C5E0E5
:1015200045F0400023464FF000026060A80736D423
:101530003EE0E8077FF447AF2068011D21600068A6
:10154000290501D506701BE7290701D5068017E795
:10155000A90703D5F117C0E9006111E706600FE79D
:1015600045F0400023464FF008026060A80716D4FB
:101570001EE040F60E0125EA0100606016E045F02D
:10158000400023464FF00A026060A80707D40FE02E
:1015900045F040006060A80708D5234610220D9949
:1015A0006FF00100AFF3008080E007E010222346D7
:1015B0000D996FF00100FFF7D1F877E04FF00009C7
:1015C00063284F46C8464B46CB4602D05B2806D020
:1015D00038E0E80601D40120A060012732E062690A
:1015E000D4F80CB00B98012190475E2807D14FF03A
:1015F000010949466269D4F80CB00B9890472169FB
:1016000039B900210A4603AB43F82120491C0829B7
:10161000FADBD8B3216949B308F1010862690B9874
:10162000012190475D28F4D1B9F1000F09D00020C5
:1016300003A951F82020D24341F82020401C08285B
:10164000F7DB03AB2069002820794FEA40701ED0F9
:101650005B462246CDF80080CDE901970D99002820
:101660006FF0010020DAAFF300801FE0C11703AA7A
:1016700000EBD1614B1121F01F0102EB8302411AF3
:1016800013680120884003431360C7E719E00D99F0
:10169000224600286FF00100009702DAAFF30080C5
:1016A00004E0AFF3008001E0AFF3008000280ADA25
:1016B000401C06D10C9820B14FF0FF300FB0BDE8B0
:1016C000F08F5046FAE7E90701D10AF1010A064412
:1016D00000200C9054E60000CCCCCC0C2DE9F04757
:1016E000814616468AB0354878440DC88DE80D000D
:1016F00032487844801C03AC0DC884E80D0041F6E4
:101700009B300844372190FBF1F290FBF1F5A5F1F5
:10171000800501FB12041B3C02D56442012000E05D
:101720000020DFF898A080460027FA44AAF1BE0AFC
:101730000EE0E0070AD03246684607EB4701012376
:101740000AEB810102F039FA8DE8070064107F1C72
:10175000002CEED1194F7F44AE3F19E0E80715D0B9
:1017600007EB04100DF1180A90E80E008AE80E004D
:10177000C068F04201D1981908903246012306A9A9
:1017800003A802F01AFA03AB83E807006D10641C8B
:10179000002DE3D14FF0010332466946B8F1000F46
:1017A00003A802D002F0F4F901E002F006FAC9E958
:1017B0000001C9F808200AB0BDE8F08780290000C0
:1017C00010B500F037F8BDE8104000F02EB87546AF
:1017D000FFF70CFDAE4605006946534620F00700B2
:1017E000854618B020B5FEF723FDBDE820404FF038
:1017F00000064FF000074FF000084FF0000BAC461A
:10180000ACE8C009ACE8C009ACE8C009ACE8C00964
:1018100021F007018D46704710B50446AFF30080F4
:101820002046BDE81040FEF7EFBC002801D000F0D4
:1018300069B8704710B5012805D0002103A000F059
:1018400068F8012010BD09A1F8E70000534947528C
:10185000544D454D3A204F7574206F662068656180
:1018600070206D656D6F7279000000003A20486548
:101870006170206D656D6F727920636F7272757023
:10188000746564004FF0013C50F8042B51F8043BA0
:101890009A4221D1A2EB0C03934313EACC1317D144
:1018A00050F8042B51F8043B9A4215D1A2EB0C03DB
:1018B000934313EACC130BD150F8042B51F8043B9B
:1018C0009A4209D1A2EB0C03934313EACC13DBD069
:1018D0004FF00000704700BFD01A01BAB1FA81F191
:1018E00001F0180122FA01F0CB40DBB2C0B2C01AFD
:1018F000C1F120012CFA01F3D11A914311EAC3116D
:10190000E6D1704701491820ABBEFEE72600020071
:10191000704770B505460C460A2000E06D1C00F0CB
:1019200011F835B128780028F8D102E0641C00F0E5
:1019300009F814B120780028F8D1BDE870400A20D9
:10194000AFF3008008B569468DF800000320ABBEF8
:1019500008BD000040F2DC10C2F20000012101705D
:1019600040F21440C4F20100016841F0040101603A
:1019700070470000F0B581B040F60C07C4F20107D3
:101980000C463968054621F010003860012001F04E
:1019900059FE01F029FE002001F054FE01F024FE62
:1019A000396841F010013960DFE804F0040B2B0FB7
:1019B0002B07130000F0F8060EE000F0F800461DBB
:1019C0000AE000F0F800461C06E000F0F800C61C33
:1019D00002E000F0F800861D2C60386820F010004E
:1019E0003860812001F02EFE01F0FEFD304601F04E
:1019F00029FE01F0F9FD386840F01000386001B0B0
:101A0000F0BD00002DE9F041044601F079FD41F2FE
:101A10001800C4F202000168002541F001010160D4
:101A200040F60000C4F20100016840F60C0621F403
:101A3000807101600168C4F2010621F40071016047
:101A400001684FF0010841F480610160016821F4F0
:101A5000006101604FF60801CFF6FF71425822F491
:101A6000706242504FF60041CFF6FF71425842F08B
:101A7000040242504FF60841CFF6FF71425842F03F
:101A8000040242504EF20011CEF2000181F80853D8
:101A90004FF480720A60016841F010010160016832
:101AA00041F020010160016821F0400101600168FE
:101AB00021F080010160306840F002003060306841
:101AC00020F002003060012000F0F2FC306840F0AD
:101AD00002003060642000F0EBFC306820F0100061
:101AE0003060012001F0AEFD01F07EFD002001F02C
:101AF000A9FD01F079FD316841F0100131602560E8
:101B00003168054621F010003060812001F09AFD17
:101B100001F06AFD05F0F80001F094FD01F064FDAC
:101B2000306840F0100030600A2000F0C1FC3068DE
:101B300020F010003060012001F084FD01F054FD20
:101B4000002001F07FFD01F04FFD3168054641F0B6
:101B5000100030600A2000F0ABFC306845F08005D2
:101B600020F010003060812001F06CFD01F03CFDA0
:101B7000284601F067FD01F037FD306840F01000A5
:101B80003060642000F094FC6568306820F010003C
:101B90003060862001F056FD01F026FDC5F3870078
:101BA00001F050FD01F020FD306840F01000306081
:101BB000052000F07DFC3068AD0120F010003060A1
:101BC000872001F03FFD01F00FFDE8B201F03AFD82
:101BD00001F00AFD306840F010003060052000F090
:101BE00067FC306820F010003060882001F02AFD8A
:101BF00001F0FAFC002001F025FD01F0F5FC306851
:101C000040F010003060052000F052FC657B306829
:101C100020F010003060892001F014FD01F0E4FC98
:101C2000284601F00FFD01F0DFFC306840F01000A5
:101C300030600A2000F03CFCA07B4CF6CD422D2801
:101C400098BF2D20F02828BFF020A0F12D01CCF660
:101C5000CC42A1FB021249F69A1300F11E01C1F613
:101C60009913A1FB0313792838BF9308306843F018
:101C7000200520F0100030608B2001F0E3FC01F023
:101C8000B3FCE8B201F0DEFC01F0AEFC306840F0DD
:101C9000100030600A2000F00BFC306820F01000CB
:101CA00030608C2001F0CEFC01F09EFC232001F07E
:101CB000C9FC01F099FC306840F0100030603068D9
:101CC00020F0100030601E2001F0BCFC01F08CFC04
:101CD000002001F0B7FC01F087FC316840F00705F7
:101CE00041F010013160316821F0100030609E2019
:101CF00001F0A8FC01F078FC284601F0A3FC01F0FB
:101D000073FC306840F0100030600A2000F0D0FB17
:101D1000277A0C2FA8BF0C273068072F20F010005F
:101D2000D8BF072730601E2001F08CFC01F05CFC5E
:101D3000002001F087FC01F057FC3168054641F0B6
:101D4000100030600A2000F0B3FB316805F00F008E
:101D500040EA071521F0100030609E2001F072FC6F
:101D600001F042FC284601F06DFC01F03DFC3068BA
:101D700040F0100030600A2000F09AFB306820F03C
:101D8000100030609F2001F05DFC01F02DFCFF2071
:101D900001F058FC01F028FC306840F01000306081
:101DA000306820F0100030601D2001F04BFC01F085
:101DB0001BFC002001F046FC01F016FC316841F0EC
:101DC00010013160617AA27A40EA0110316840EA7C
:101DD000420521F0100030609D2001F033FC01F03D
:101DE00003FCE8B201F02EFC01F0FEFB306840F08D
:101DF00010003060257B306820F010003060A0209B
:101E000001F020FC01F0F0FB284601F01BFC01F082
:101E1000EBFB306840F010003060E57A306820F06D
:101E200010003060A12001F00DFC01F0DDFB284620
:101E300001F008FC01F0D8FB306840F01000306081
:101E4000306820F010003060402001F0FBFB01F012
:101E5000CBFB002001F0F6FB01F0C6FB316840F03F
:101E60003F0541F010013160316821F01000306011
:101E7000C02001F0E7FB01F0B7FB284601F0E2FBD0
:101E800001F0B2FB306840F010003060306820F0A4
:101E900010003060012001F0D5FB01F0A5FB00200F
:101EA00001F0D0FB01F0A0FB316800F0F80041F038
:101EB00010013160C4F800803168451C21F0100029
:101EC0003060812001F0BEFB01F08EFB284601F05E
:101ED000B9FB01F089FB306840F0100030600A2047
:101EE000C4F8008000F0E4FA306820F010003060A0
:101EF000422001F0A7FB01F077FB002001F0A2FBDC
:101F000001F072FB3168122841F010014FF4CA70E1
:101F100008BFC8203160BDE8F08100002DE9F0471E
:101F200040F60C07C4F2010788463968044621F0E0
:101F30001000386001209146012501F083FB01F07B
:101F400053FB00204FF0000A01F07CFB01F04CFB3A
:101F5000396800F0F80041F01001396025603968F7
:101F6000461C21F010003860812001F06BFB01F06D
:101F70003BFB304601F066FB01F036FB386840F071
:101F800010003860386820F010003860122001F02E
:101F900059FB01F029FB002001F054FB01F024FB68
:101FA0003968400641F0100139606DD5386820F07D
:101FB00010003860922001F045FB01F015FBFF2076
:101FC00001F040FB01F010FB386840F01000386071
:101FD000386820F010003860132001F033FB01F066
:101FE00003FB002001F02EFB01F0FEFA3968824667
:101FF00041F010013960396821F01000386010207C
:1020000001F020FB01F0F0FA002001F01BFB01F0D1
:10201000EBFA3968064641F010013960396821F061
:10202000100038608D2001F00DFB01F0DDFA304624
:1020300001F008FB01F0D8FA38683C2140F01000AC
:1020400038604046D14538BFCA46FEF791FCBAF128
:10205000000F19D0A8F10106554600BF386820F0DE
:1020600010003860002001F0EDFA01F0BDFA002008
:1020700001F0E8FA01F0B8FA3968013D41F01001C9
:10208000396006F8010FE9D1386820F01000386097
:10209000012001F0D7FA01F0A7FA002001F0D2FAEE
:1020A00001F0A2FA396800F0F80041F0100139603F
:1020B000052121603968441D21F01000386081201D
:1020C00001F0C0FA01F090FA204601F0BBFA01F0ED
:1020D0008BFA386840F0100150463960BDE8F0874F
:1020E000B0B540F60C05C4F201052968044621F09C
:1020F00010002860012001F0A5FA01F075FA002017
:1021000001F0A0FA01F070FA296800F0F80041F03F
:1021100010012960052121602968441D21F010006B
:102120002860812001F08EFA01F05EFA204601F06D
:1021300089FA01F059FA286840F010002860B0BD13
:102140002DE9F04740F60C04C4F201048246D0F8B1
:10215000008020681E4620F01000206001201546F7
:102160008946012701F06EFA01F03EFA002001F0E5
:1021700069FA01F039FA216800F0F80041F0100125
:102180002160CAF800702168471C21F0100020600F
:10219000812001F057FA01F027FA384601F052FA8F
:1021A00001F022FA206840F010002060206820F042
:1021B000100020600E2001F045FA01F015FA002011
:1021C00001F040FA01F010FA2168074641F01001D1
:1021D0002160216821F0100020608D2001F032FA8A
:1021E00001F002FA384601F02DFA01F0FDF92068FD
:1021F00040F010002060206820F010002060A22035
:1022000001F020FA01F0F0F9284601F01BFA01F084
:10221000EBF9206840F010002060206820F01000EA
:102220002060802001F00EFA01F0DEF9012000F0BC
:102230003FF9484601F0E6F9206840F010002060C0
:10224000206820F010002060012001F0FBF901F06F
:10225000CBF9002001F0F6F901F0C6F9216800F091
:10226000F80041F0100121600321CAF80010216834
:10227000C51C21F010002060812001F0E3F901F07D
:10228000B3F9284601F0DEF901F0AEF9206840F01C
:1022900010002060206820F010002060122001F063
:1022A000D1F901F0A1F9002001F0CCF901F09CF97D
:1022B0002168000741F01001216006D4013E30047E
:1022C00017D0012000F0F4F8E4E7206820F01000B7
:1022D0002060922001F0B6F901F086F9FF2001F0AC
:1022E000B1F901F081F92068012540F0100020606B
:1022F00000E0002550464146FFF73CFB2846BDE87C
:10230000F087000040F26C00C2F200000168013169
:102310000160704782B041F20400C4F2020050F83C
:10232000041C002241F0010140F8041C0168CFF6B2
:10233000FF021140016050F8041C4FF6FF72CFF607
:10234000F662114040F8041C50F8041C21F480216E
:1023500040F8041C016821F4FE0101604FF41F01E4
:10236000416000210191009150F8041C41F480313A
:1023700040F8041C50F8041C01F40031009101994C
:1023800001310191009919B90199B1F5A06FF1D10D
:1023900050F8041C890354BF0021012100910099C9
:1023A000012936D142F20001C4F202010A6842F06A
:1023B00010020A600A6822F007020A600A6842F006
:1023C00002020A600168016001680160016841F46D
:1023D00080610160016821F47C110160016841F4B1
:1023E000E811016050F8041C41F0807140F8041CB1
:1023F00050F8041C8901FBD5016821F0030101603C
:10240000016841F002010160016801F00C01082936
:10241000FAD14EF60850CEF200004FF00061016094
:1024200002B0704741F21800C4F20200016841F4A2
:1024300000710160016841F00401016042F208404E
:10244000C4F2010050F8041C41F4006140F8041C7F
:10245000016821F400610160016821F0020101605E
:1024600050F8041C41F4604140F8041C016841F438
:10247000602101604FF47001416248F62001C0F60E
:102480004121C1624AF2E601C1F2A46181624BF6C8
:10249000AC11C0F2070141627047000080B5012015
:1024A000002100F087FF0520BDE88040AFF30080E9
:1024B000002808BF704780B54EF21001CEF200012F
:1024C0004FF0470C4FF0000E06E000BF0A680138DD
:1024D00022F001020A601AD00A6842F004020A607F
:1024E000C1F804C0C1F808E00A6842F001020A60BD
:1024F0004FF47A7202E000BF002AE7D00B68DB03DA
:10250000FAD50B68013A23F480330B60F4E7BDE899
:10251000804070474EF21001CEF200010A6842F08E
:1025200004020A604FF047024A604FF000028A60DE
:102530000A6842F001020A6030B9086820F0010020
:10254000086070470028F8D00A68D203FAD50A68F4
:10255000013822F480320A60F4E700000021B0F56F
:10256000FA6F98BF322108467047000010B58842C4
:1025700011DA40F2700CC2F2000CDCF80040A0420C
:102580003ADCA14238DBDCF80400824234DC8342CE
:1025900080F2FF8030E012DD40F27004C2F20004ED
:1025A000D4F800E0D4F804C07045D8BF624540F3C9
:1025B000F080714520DB634580F2EB801CE040F247
:1025C000700EC2F2000EDEF800C09A4208DA6045D2
:1025D00012DC614510DBDEF804008242D7DD0BE03F
:1025E000DEF804E06045D8BF724540F3D280614513
:1025F000A8BF734580F2CD80DDE90232DDE9044CED
:10260000934210DA40F27000C2F2000001688B427F
:1026100038DC8A4236DB4068844233DC8445A4BF20
:10262000322010BD2EE00EDD40F27000C2F200003C
:10263000016840688B42D8BF84426ADD8A42A8BFE5
:1026400084451FDB65E040F2700EC2F2000EDEF83A
:10265000000064450CDA834214DC824212DBDEF8AF
:10266000040084420EDC8445A4BF322010BD09E082
:10267000DEF804E08342D8BF74454ADD8242A8BF39
:10268000F44546DADDE90632DDE9081C934210DA4A
:1026900040F27000C2F200000468A34218DCA242BB
:1026A00016DB4068814213DC8445A4BF4B2010BD7B
:1026B0000EE030DD40F27000C2F2000004684068B5
:1026C000A342D8BF814258DDA242A8BF844554DA54
:1026D000DDE90A32DDE90C1C93420CDA40F27000AD
:1026E000C2F200000468A34253DCA24251DB4068FE
:1026F000814235DD4DE023DD40F27000C2F2000082
:1027000004684068A342D8BF814244DDA24227DA70
:102710003FE0322010BD40F2700EC2F2000EDEF833
:10272000000061451FDA8342D2DC8242D0DBDEF852
:1027300004008142CCDC8445A4BF4B2010BDC7E718
:1027400040F2700EC2F2000EDEF80000614516DAAB
:1027500083421EDC82421CDBDEF80400814218DC6E
:10276000844518DA15E0DEF804E08342D8BF7145ED
:1027700003DD8242A8BFF445AADB4B2010BDDEF882
:1027800004E08342D8BF714505DD8242A8BFF4450D
:1027900001DA002010BD642010BD00002DE9F04FCB
:1027A000B3B006460578D0F80100777A90FA80F841
:1027B000D6F80500322104BA24A800F10A0A5046CE
:1027C0008DF89850CDF8908025948DF89970FEF78B
:1027D000CFF82FB106F10A0150463A46FEF783F8CA
:1027E000A81E062800F27F82DFE810F00700F7003D
:1027F0007D027D02AA0074018B0144F28400C0F6C0
:10280000000040F2D4110668C2F200010868B44228
:1028100040F08981B04200F0868147F6AB70C0F28B
:10282000311040F2202816900320C2F200088DF8E3
:102830005C0040461596FEF737F807468DF85D00B8
:1028400015A800F10A0528463221FEF791F828461E
:1028500041463A46FEF7D5F8169821AA13901798E4
:102860000DF1700E129007CADDE9183BDDE91A750B
:102870009EE81050DDE91F8909910A92DDE91221D5
:1028800008903046CDE900B7CDE90254CDE904CE39
:10289000CDF81880CDF81C9000F046FC1C9A15AEBF
:1028A00013921D9A0DF1640E12921E9A71CE11921E
:1028B0001F9A9EE882401092229ADDE920B90F9279
:1028C000DDF88C8040F2A4020023C2F2000200BFB7
:1028D00052F803C084452DD03C33F02BF8D140F2A0
:1028E0009413C2F200031B78F446C3EB031E42F8B4
:1028F0002E0002EB8E02116113995460D16112997E
:10290000956011621199D660516210995761916278
:102910000F99C2F818C0C2F82CB0C2F830905163B9
:10292000C2F8388040F29412D91EC2F2000218BFD9
:10293000591C117040F2D811C2F20001086017E171
:1029400044F28400C0F6000040F27C0B0168C2F241
:10295000000BDBF800008C4240F02281884200F03E
:102960001F8140F28F0040F2E012C2F20000062107
:10297000C2F20002017002F13C0002F1340102F1E6
:10298000380302F1300702F12C0502F124040DF1A5
:10299000200CCDE90B310D9002F1200002F11C0159
:1029A00002F114038CE8B00002F1280C02F11805C2
:1029B00002F1100402F10C06171DCDE90431069056
:1029C00002F10803DFA15046CDE90076CDE90245CA
:1029D000CDF81CC0FDF7A4FE07E140F2D811C2F209
:1029E00000010868804573D02598DDE93191149085
:1029F000DDE92FA00DF1980BDDE92B549BE80C08C5
:102A0000DDE92976CDE908090A9104A81499DDE9E0
:102A10002DCE80E810504046CDE900B7CDE90265E3
:102A2000CDF81CA000F080FB299A0DF1900C1492B7
:102A30002A9A0DF1B40B13922B9A40F2D8111292EC
:102A40002C9A9CE8E1101192319A9BE8000F1092A9
:102A5000DDF8C8E040F2A402C2F200010023C2F295
:102A6000000200BFD458844232D03C33F02BF9D15D
:102A700040F29411C2F200010C786346C4EB041CCE
:102A800042F82C0002EB8C00149A40F2D8114261FB
:102A9000139AC2F200018261129A4560C261119AD2
:102AA00086600262109AC760426340F2941203612A
:102AB000C0F82480C0F82890C0F82CA0C0F830B02E
:102AC000C0F838E0E01EC2F2000218BF601C1070AF
:102AD000249861E044F28400C0F6000040F26806E9
:102AE0000168C2F2000630688C4240F0FF808842E4
:102AF00000F0FC8040F28F00C2F20000072101705C
:102B00001AE140F2A405C2F2000500202946CDF8E2
:102B100050A000BF51F83C2BA2426CD001300428D9
:102B2000F8D1FF2068E0B44218BFA04233D0259806
:102B3000DDE9311213902698DDE92B541290DDE97E
:102B40002F90DDE9273BDDE92976089009910A926B
:102B500004A8DDE91221DDE92DCE80E810504046C1
:102B6000CDE900B7CDE90265CDF81C9000F0DCFAA4
:102B700040F27002C2F2000244F2880102F108073A
:102B8000131DC0F6000150460097FDF7C9FD40F245
:102B9000D411C2F200012598086033B0BDE8F08F6F
:102BA0008C4218BFA04220D02598DDE9273214902E
:102BB0002698DDE929761390DDE92FA0DDE9319132
:102BC000DDE92B54CDE908090A91CDE9002704A8D5
:102BD000DDE91321DDE92DCE80E810504046CDE936
:102BE0000265CDF81CA000F09FFA2598CBF80000F4
:102BF00033B0BDE8F08FC0B2C0EB0017139005EB07
:102C000087004168C46A1291816802691191416923
:102C1000066BD0F834A01094C368D0F818C0D0F870
:102C20001CE0D0F82090D0F824B0D0F82880846B35
:102C300055F82700CDE9086ACDE900211299DDE9B0
:102C400010620A94CDE902CECDE9049BCDF818803C
:102C5000079600F069FA1398022823D8B80000BF3D
:102C60002918D1E90F232A504A6C4B608B6C8A607B
:102C7000CA6CCB600B6D0A614A6D4B618B6D8A61CA
:102C8000CA6DCB610B6E0A624A6E4B628B6E8A62B2
:102C9000CA6ECB620B6F3C30C1E90C234A6FB4287B
:102CA0008A63DDD105F1B4003C21FDF783FE40F2DB
:102CB0009410C2F20000017840F2700201390170F4
:102CC000259840F2D811C2F200010860C2F2000259
:102CD00044F28801149802F10807131DC0F60001A0
:102CE0000097FDF71DFD33B0BDE8F08F8C4218BF93
:102CF000A04221D0259830AA149026980DF1AC0E50
:102D0000139007CADDE9273BDDE929759EE81050DD
:102D1000DDE92E9A09910A92DDE9132108904046D7
:102D2000CDE900B7CDE90254CDE904CECDF8189035
:102D3000CDF81CA000F0F8F92598306033B0BDE85C
:102D4000F08F00BF256420256420256420256420A1
:102D50002564202564202564202564202564202501
:102D600064202564202564202564202564202564B2
:102D7000202564000178002908BF704710B5441E63
:102D8000C8B2012100F016FBA17801340029F7D167
:102D9000BDE810407047000080B50022002908BF40
:102DA00080F08002012908BFA0F14002D0B20021CA
:102DB00000F000FB6420BDE88040FFF7ABBB0000E3
:102DC00080B541F21801C4F202010A6840F60040E1
:102DD00042F00802C4F201000A60002101606FF0B5
:102DE00003014FF0010C4FF0020E00BF04310268E6
:102DF0000CFA01F31A43026002680EFA01F31A4357
:102E00001B290260F2D3002141606FF003014FF0F3
:102E1000010C4FF0020E00BF043142680CFA01F3BE
:102E20001A43426042680EFA01F31A431B294260BA
:102E3000F2D301200621FDF70DFA40F2A001C2F203
:102E4000000108604BF61021C8F26571016040F680
:102E5000C95181800E20002100F0ACFA0520FFF757
:102E600027FB3C20002100F0A5FA0520FFF720FBFE
:102E70000C20002100F09EFA0520FFF719FB01202D
:102E8000002100F097FA0520FFF712FB0220002135
:102E900000F090FA0520BDE88040FFF709BB000074
:102EA0009EB011A800F098F940F28004DDE911010C
:102EB000DDF84F20C2F20004139BC4F80B2084E815
:102EC0000B00FFF77DFF2046FEF79CFDC82814D0BD
:102ED00040F2800583A4C2F2000500BF002000215B
:102EE000FFF75AFF2046FFF745FF6420FFF7E0FA9F
:102EF0002846FEF787FDC828F0D1FFF793FA00F0C7
:102F000095F9642000F0DCF90020002400F0C8F9F5
:102F1000012000F07FF9FFF7C1FA40F28000C2F211
:102F20000000FFF7DDF84FF4FA60FFF7C1FA00F098
:102F300095FBFFF7B3FA40F28F054CF6CD40C2F295
:102F40000005C3F68C70C5F80A0043F23330C4F2B2
:102F50005300C5F80600C5F80140072011AE002453
:102F600028703CE040F2E011C2F200010868D1E9AB
:102F7000047A10904868B1460F908868D1E90663DA
:102F80000E90C868D1E908CE0D90D1E90A8022469A
:102F90000C90D1E90C4BD1E90E010894CDE909B0B0
:102FA00003A814460B91CDE9007A80E808501098E8
:102FB000DDE90E21DDE90C7302964E46CDF818804E
:102FC0000797FFF7D3FA68716879E1B2884218BFB2
:102FD00000F066F96C794FF47A70FFF769FA032014
:102FE00000F07AF9C0F58050C5F8010000F002F950
:102FF00000200021FFF7D0FE30463221FDF7DAFC39
:1030000047F6AD7230463BA1C0F23112FDF75EF9D2
:103010003046FFF7AFFE00200121FFF7BDFE30462E
:103020003221FDF7C7FC28786A79072836A133A03A
:1030300008BF01463046FDF749F93046FFF79AFED2
:1030400040F2DC10C2F20000007800283ED040F2CE
:10305000202BC2F2000B584632211094FDF7AAFC37
:10306000D5F80600D5F8017095F8058000F02AFF24
:103070008146D5F80A008A4600F024FF2A780C46DB
:1030800002900492584623A13A464346039440F2E4
:103090009814CDE9009AC2F20004FDF717F9204612
:1030A0003C21FDF787FC40F28000C2F2000021467F
:1030B0003C22FEF733FF10B12046FFF76FFB40F2D2
:1030C000DC110020C2F200010870109C287806284C
:1030D0003FF448AF07287FF477AFD5F80100FFF73A
:1030E0003DFA70E7506C6561736520576169742E15
:1030F0002E2E210049443A20256400004175746F4A
:103100002C202564000000004D616E75616C2C2040
:1031100025640000256420256420252E32662025A4
:103120002E326620256400002DE9F04F9DB0054643
:10313000DDE92607DDE92A6B0C46DDE9281CCDE92F
:1031400012073098DDE92E8EDDE92CA9CDE9166B4A
:1031500001AECDE9141C1C9030463C21CDE9102372
:10316000CDE918A9CDE91A8EFDF724FC9DF84000A1
:103170009DF841208DF80400280E8DF80500280CDC
:103180008DF80600280A8DF80700200E8DF809003A
:10319000200C8DF80A00200A8DF808508DF80B00DD
:1031A0008DF80C408DF80D202AB110A906F10A0007
:1031B0000231FDF798FB01AC2046FDF775FBC2B26A
:1031C00040F28000C2F2000021464FF47A73FEF70D
:1031D000B7FF1DB0BDE8F08F40F2B111416040F281
:1031E00007710181012181720821C6F2FF41C0F8F7
:1031F0000B10704710B543F20004C4F200044AF605
:10320000AA2020600320FFF753F94CF6CC40206041
:1032100010BD00004FF080410A88002818BF01202F
:1032200022F00102104408807047000041F21800AB
:10323000C4F20200416841F001014160016841F0BF
:103240000401016040F60000C4F20100016841F091
:103250000B010160016821F0040101604FF0804022
:10326000018821F0100101802020C4F200000188B3
:1032700041F001010180018821F00201018030F854
:10328000081C41F0680120F8081C002181800181A0
:1032900030F80C1C41F0010120F80C1C70470000B4
:1032A000642888BF70472C21C4F200010A8850436B
:1032B00045F62942C0F28F22A0FB02020A81704724
:1032C00040F20001C2F200010968B1FBF0F02C21CC
:1032D000C4F2000108807047B0B540F60003C4F2A4
:1032E000010381004FF0010C1D680CFA01F225EA80
:1032F00002021A604A1C1D680CFA02F225EA020258
:103300001A608A1C1D680CFA02F225EA02021A6091
:1033100003311A680CFA01F142F2344422EA010145
:10332000C4F20104196000EB4001072254F8243C68
:1033300002FA01F1194344F8241C216800EB8005CE
:1033400021FA05F0216800F01F00084320601F20CB
:103350002168A84021EA0000206054F82C0C40F0BD
:10336000010044F82C0C0A20FFF7A2F854F82C0CAA
:1033700040F0010044F82C0C0A20FFF799F854F8AB
:103380002C0C40F4800044F82C0C00BF54F8340C92
:103390008007FBD52068216800F01F00A840084383
:1033A0002060206820F01F002060A0696FF31F30AC
:1033B000B0BD000070B540F2A006C2F2000632684F
:1033C0000446107840F60C4500F00F000122C4F2CC
:1033D000010502FA00F00029296814BF084321EA18
:1033E000000028603220FFF795F83068012241780C
:1033F000E3074FEA111102FA01F12A680CBF22EA31
:103400000101114329608178012201F00F0102FAC4
:1034100001F1A3072A6854BF22EA01011143296080
:1034200081780122090902FA01F163072A6854BF71
:1034300022EA010111432960C178012201F00F0144
:1034400002FA01F123072A6854BF22EA010111435D
:103450002960C1780122090902FA01F1E3062A680C
:1034600054BF22EA0101114329600179012201F0D0
:103470000F0102FA01F1A3062A6854BF22EA0101F2
:103480001143296001790122090902FA01F1630659
:103490002A6854BF22EA01011143296041790123BE
:1034A00062B203FA01F1B2F1FF3F2A68CCBF22EA0F
:1034B0000101114329604078012400F00F002968C0
:1034C00004FA00F021EA000028600A20FFF722F841
:1034D00030684078296800F00F0004FA00F00843D3
:1034E00028600A20FFF716F830684078296800F055
:1034F0000F0004FA00F021EA0000286070BD00000F
:1035000041F21800C4F20200016841F001010160BB
:10351000016841F480510160016841F004010160DB
:1035200040F60000C4F20100016841F0405141F44E
:103530004C110160016821F480210160016821F4CF
:1035400000210160016841F400010160016821F47B
:1035500080010160016821F080710160016821F043
:1035600000710160016841F080610160016821F033
:1035700000610160016821F080410160016841F053
:1035800000410160C16841F01001C16043F20000D8
:10359000C4F20100018841F004010180018821F496
:1035A00000510180018821F400610180018821F42B
:1035B00080610180018821F080010180018841F053
:1035C00010010180818841F004018180018821F08F
:1035D00001010180018821F002010180018841F090
:1035E000400101807047000043F20800C4F201006E
:1035F00001880906FCD400BF0188C907FCD0808877
:10360000C0B270470278002A08BF704743F2080131
:10361000C4F201010B881B06FCD4D2B28A8000BF21
:103620000A889207FCD500BF0A881206FCD400BFA6
:103630000A88D207FCD08A8810F8012F002AE9D125
:103640007047000043F20801C4F201010A88120623
:10365000FCD4888008888007FCD5704741F224009C
:10366000C4F20200016841F00101016001688907AC
:10367000FCD543F20000C4F2000045F25551016050
:10368000C1688907FCD10621416040F6FF71816065
:103690004CF6CC41016070475FEA400C08BF91F0E6
:1036A000000F4FEA8C234FEAC12243EA51514FEAFF
:1036B0001C5018BF00F5F0404FEA300018BF41F031
:1036C00000415FEA6C5C00F02980BCF1FF3F08BF5D
:1036D00040F080407047130C06BF12044FF0100CEE
:1036E0004FF0000C130E04BF12020CF1080C130F64
:1036F00004BF12010CF1040C930F04BF92000CF1F3
:10370000020CD30F04BF52000CF1010C11464FF014
:103710000002A0F11F00A0EB0C00704711F0004F59
:1037200008BF704731F000413FF4D5AF0B0C06BF26
:1037300009044FF0100C4FF0000C0B0E04BF0902EF
:103740000CF1080C0B0F04BF09010CF1040C8B0FDA
:1037500004BF89000CF1020CCB0F04BF49000CF12F
:10376000010CCCF1200322FA03F341EA030102FA2F
:103770000CF2A0EB0C0000F10100704723F07F4732
:1037800020F07F4C80EA030000F00040ACEB070320
:1037900003F57C5303F1FF032DE9804909B44FEA97
:1037A000144324EA03484FEA154B25EA0B4E0FF267
:1037B000042606EB13273E7803FB0667C7F50007D0
:1037C00007FB06F64FEAD64606F102064FEA5437E3
:1037D00007FB066CCCF1005C4FEA1C472CEA074C57
:1037E0000CFB06F507FB06F404EB15464FEA9616AC
:1037F00049085FEA320234BF00204FF000404FEA30
:10380000D13706FB07FC4FEA1C4C0CFB0BF7D21B15
:1038100003FB0CF761EB07010CFB0EF7B0EB074065
:1038200072EB17420CFB08F734BFA2EB0742B2EB76
:10383000074261EB17414FEA0C444FEA910706FB40
:1038400007FC4FEA1C4C0CFB0BF7B0EBC74072EBCC
:10385000573203FB0CF734BFA2EBC742B2EBC742AF
:1038600061EB57310CFB0EF7B0EBC70072EB5772F0
:103870000CFB08F734BFA2EBC702B2EBC70261EB47
:1038800057714FEA816141EA92114FEA826242EA3E
:1038900090124FEA806004EBCC04039F4FEAD137CB
:1038A00006FB07FC4FEA1C4C0CFB0BF7D21B03FB7F
:1038B0000CF761EB07010CFB0EF7B0EB074072EB66
:1038C00017420CFB08F734BFA2EB0742B2EB0742EA
:1038D00061EB17414FEA8C5504EB9C244FEA9107AA
:1038E00006FB07FC4FEA1C4C0CFB0BF7B0EBC74088
:1038F00072EB573203FB0CF734BFA2EBC742B2EBBB
:10390000C74261EB57310CFB0EF7B0EBC70072EB0F
:1039100057720CFB08F734BFA2EBC702B2EBC70229
:1039200061EB57714FEA816141EA92114FEA82627D
:1039300042EA90124FEA806015EB4C2544F10004F6
:103940004FEAD13706FB07FC4FEA1C4C0CFB0BF788
:10395000D21B03FB0CF761EB07010CFB0EF7B0EB7E
:10396000074072EB17420CFB08F734BFA2EB07428B
:10397000B2EB074261EB17414FEA813141EA9241D4
:103980004FEA823242EA90424FEA80304FEA0C76A8
:1039900015EB1C1544F1000448EA03434EEA0B48BA
:1039A0004FF0000EB2EB080C71EB030724BF624628
:1039B00039464EEB0E0E4FF0000B001852414941B4
:1039C0004BEB0B0BB2EB080C71EB03077BF1000B1D
:1039D00024BF624639464EEB0E0E4FF0000B001826
:1039E000524149414BEB0B0BB2EB080C71EB030757
:1039F0007BF1000B24BF624639464EEB0E0E51EAB6
:103A0000020718BF46F0010616EB0E7655F10002CC
:103A100054F1000103D5BDE88901BDE80088BDE887
:103A20008901BDE80048B619524141EB0101A3F1FB
:103A30000103704780807F7E7D7C7B7A7978777602
:103A400076757473727171706F6E6E6D6C6C6B6A7B
:103A50006A69686867666665646463636261616019
:103A6000605F5F5E5E5D5D5C5C5B5B5A5A59595896
:103A70005857575656555555545453535252525100
:103A8000515050504F4F4F4E4E4D4D4D4C4C4C4B56
:103A90004B4B4A4A4A49494948484847474747469D
:103AA00046464545454444444443434343424242D9
:103AB000424141419C46002B30D477002BD04FEA45
:103AC00037071CB503B44FF010004FF01001BAF1E6
:103AD000000F06D0BCF1000FDCBF40F0080040F042
:103AE00008014FF000000FBCBDE810400BF1010BC6
:103AF000BBF1010F08BF5FEA170722BF12F10102F5
:103B000011F101014FF0004143F1000300F00040CA
:103B100043EA00007047F9D35708D0E746EA064663
:103B20004FEA164613F1400F1FDD13F1200FDFBFE0
:103B300016430A46002120335B42BED0C3F1200762
:103B400046EA06464FEA164602FA07F746EA07062D
:103B500022FA03F2C3F1200701FA07F742EA07024B
:103B600021FA03F14FF00003A7E746EA020646EA0E
:103B700006464FEA164646EA0106BCBF46EA064636
:103B8000360C4FF000034FF000024FF0000194E7B5
:103B90002DE9804C70B49A46934691E8380007C8E6
:103BA00031EA400C48BF34EA430C03D5FFF7E6FD89
:103BB000FFF780FFF0BCBDE8008C2DE9804C70B4AD
:103BC0009A46934691E8380007C810F0804F08BF26
:103BD00013F0804F03D100F005F8FFF76BFFF0BC46
:103BE000BDE8008C20F07F4723F07F4C80EA030083
:103BF00000F0004007EB0C03A3F57C53A3F1FE0398
:103C000092F0000F00F0B38095F0000F00F0778085
:103C10002DE901494FEA114021EA00484FEA1446D4
:103C200024EA064700FB06FC08FB06F607FB08F83B
:103C300018EB06484CEB164C00FB07F718EB07484F
:103C40004CEB17404FEA124B22EA0B4E4FEA154657
:103C500025EA06470BFB06FC0EFB06F607FB0EFEED
:103C60001EEB064E4CEB164C0BFB07F71EEB074EFC
:103C70004CEB174B18EB0B0840F1000018EB0E0B48
:103C800058EB000840F100008F1A4FF000014FF090
:103C900000063CBFC943661B14BFB5EB040C0021F2
:103CA0003CBFC943F61B4FEA174427EA04454FEAD5
:103CB0001C472CEA074C04FB076205FB07F70CFBCB
:103CC00005F616EB074642EB174204FB0CFC16EB1D
:103CD0000C4642EB1C421BEB060658EB020241412C
:103CE0004EEA8E0E46EA9E0601D5BDE80189B61958
:103CF000524141EB0101A3F10103BDE801894FEA03
:103D0000144524EA05464FEA114721EA074C05FB12
:103D100007F406FB07F70CFB06F111EB074144EB38
:103D2000174405FB0CFC11EB0C4144EB1C444FEA1F
:103D3000124722EA074C05FB07F206FB07F70CFBCC
:103D400006F616EB074642EB174205FB0CFC16EB9A
:103D50000C4642EB1C456A1854F1000148BF7047FD
:103D6000B619524141EB0101A3F10103704795F0EF
:103D7000000F37D04FEA114221EA02464FEA1447BA
:103D800024EA074C02FB07F106FB07F70CFB06F4DD
:103D900014EB074441EB174102FB0CFC14EB0C4401
:103DA00041EB1C414FEA154725EA074C02FB07F59A
:103DB00006FB07F70CFB06F616EB074645EB174527
:103DC00002FB0CFC16EB0C4645EB1C42121951F1A0
:103DD000000148BF7047B619524141EB0101A3F100
:103DE000010370474FEA144524EA05464FEA11479C
:103DF00021EA074C05FB07F106FB07F70CFB06F26F
:103E000012EB074241EB174105FB0CFC12EB0C4295
:103E100051EB1C414FF0000648BF7047921841EB30
:103E20000101A3F101037047490050EAC12018BF06
:103E300004204A0D18BF40F0010040F2FF72B2EBBF
:103E4000515F08BF40F00200012808BF05207047FD
:103E500030380A2801D20120704700207047000046
:103E600010B500290AD00878002807D00548784402
:103E7000FDF708FD002801D0002010BD024878445D
:103E800010BD0000460200003E02000010B50029EF
:103E90000AD00878002807D005487844FDF7F2FCDE
:103EA000002801D0002010BD0248784410BD000059
:103EB000360200002E0200000808A0F500114FEAAB
:103EC0003101704743004FEAD30C4FEA3C0C4340AA
:103ED0001FBF40070CF1605113F0FE4F70471CF0FC
:103EE000006F03D10CF00041002070470CF000433C
:103EF00043EA507040EACC0010B500F00EF800BF65
:103F0000000000924FEA0001FFF7D6BF4FF00041DA
:103F1000A1F500214FF0000070470EF1020E2EF0C7
:103F2000030E5EF8044B244204D44FEA4102B2F17E
:103F30007F4F11D84FEA4003B3F17F4F0CD80ED119
:103F40004FEAD07C0CEB4C0C0CF1020CB2F17F4F21
:103F500008BF4CEBD17C04E04FF0080C01E04FEAC5
:103F6000D17C0CEB4C0324FA03F404F00704B4F105
:103F7000040C06D20EEB840CBDE810404CF0010C92
:103F80006047DFE80CF0070802024FF00040A0F5A0
:103F9000800010BD0846420018BFD2F1807288BF71
:103FA00000F0004010BDFCF706BF0000000000005C
:103FB0000000000030313233343536373839414271
:103FC000434445464030580030313233343536377B
:103FD0003839616263646566403078000400000827
:103FE00000000000000000020001000010000000BE
:103FF00002400000000000A000000000054000009A
:10400000000000C8000000000C4000000000409CC0
:1040100000000000194000000020BCBE00000000AD
:1040200034400000BFC91B8E00000004B5400000F2
:10403000504BCFD06607E2CF010000006C4100007A
:104040003E8251AADFEEA73401000000D9420000F1
:10405000DCB5A0E23A301F97FFFFFFFFB445000038
:10406000FD25A0C8E9A3C14FFFFFFFFFFF3F0000F0
:104070000000008000000000FF3F00000000008002
:1040800000000000AD7F31012564202564202564F7
:1040900000000000E04100080000002008000000CF
:1040A00050010008E8410008080000205008000006
:1040B000700100081C00000043000000F8FFFFFF33
:1040C0000C0000000E0000000F0000002E00000099
:1040D0001001000043000000F8FFFFFF00404040D7
:1040E00040404040404041414141414040404040CB
:1040F0004040404040404040404040404005020277
:104100000202020202020202020202020220202035
:104110002020202020202002020202020202909091
:10412000909090901010101010101010101010108F
:1041300010101010101010100202020202028888E3
:1041400088888888080808080808080808080808EF
:1041500008080808080808080202020240000000D7
:10416000000000000000000000000000000000004F
:10417000000000000000000000000000000000003F
:10418000000000000000000000000000000000002F
:10419000000000000000000000000000000000001F
:1041A000000000000000000000000000000000000F
:1041B00000000000000000000000000000000000FF
:1041C00000000000000000000000000000000000EF
:1041D00000000000000000000000000000000000DF
:0841E00000A24A0400000000E7
:04000005080000ED02
:00000001FF
