:020000040800F2
:10000000584E00208D020008950200089702000853
:10001000990200089B0200089D02000800000000F1
:10002000000000000000000000000000E9010008DE
:10003000A1020008000000002D020008DD270008D2
:10004000A7020008A7020008A7020008A7020008EC
:10005000A7020008A7020008A7020008A7020008DC
:1000600055210008A7020008A7020008A7020008FF
:10007000A7020008A7020008A7020008A7020008BC
:10008000A7020008A7020008A7020008A7020008AC
:10009000A7020008A7020008A7020008A70200089C
:1000A000A7020008A7020008A7020008A70200088C
:1000B000A7020008A7020008A7020008A70200087C
:1000C000A7020008A7020008A7020008A70200086C
:1000D000A7020008A7020008A7020008A70200085C
:1000E000A7020008A7020008A702000800F002F813
:1000F00000F06BF80AA090E8000C82448344AAF157
:100100000107DA4501D100F060F8AFF2090EBAE854
:100110000F0013F0010F18BFFB1A43F0010318473B
:100120007045000090450000103A24BF78C878C19F
:10013000FAD8520724BF30C830C144BF04680C60ED
:10014000704700000023002400250026103A28BF35
:1001500078C1FBD8520728BF30C148BF0B60704739
:10016000662904F02482692900F06281642900F084
:100170005F81752900F05C816F2900F0F381782997
:1001800000F018820368DB0928BF41F08001632971
:1001900000F0DB87E32900F0EE87002070471FB5F1
:1001A0009DE8030000F0E4FC01F062F80400002088
:1001B000002104F06FF9401C60600020002104F071
:1001C00053F9E0601FBD10B510BD01F038FB1146BA
:1001D000FFF7E5FF03F028F901F056FB03B4FFF742
:1001E000F2FF03BC01F0C6FB204B19680868B0E8B9
:1001F000F00F80F30988BFF36F8F4FF0000080F39A
:1002000011884EF00D0E704700000000064800688F
:10021000006880F3088862B661B6BFF34F8FBFF302
:100220006F8F00DF00BF00BF08ED00E0EFF3098033
:10023000BFF36F8F0D4B1A6820E9F00F106008B5FF
:100240004FF0BF0080F3118803F022FF4FF0000051
:1002500080F31188BDE8084019680868B0E8F00F1D
:1002600080F30988BFF36F8F704700BF1C00002028
:10027000EFF311804FF0BF0181F31188704780F3D5
:1002800011887047EFF305807047000009488047E8
:1002900009480047FEE7FEE7FEE7FEE7FEE7FEE768
:1002A000FEE7FEE7FEE7FEE704480549054A064B80
:1002B00070470000FD270008ED00000858480020A6
:1002C000584E0020584A0020584A002070B5A0FB24
:1002D0000140B4F1805170F1000024BF002070BDD6
:1002E000204600F074FC05001CBF214600F0ACFB6A
:1002F000284670BD70B50446051F00F01DFC00685F
:10030000002C14BF446870BD002C18BFAC423CBF29
:1003100020466468F8D301680A18AA4218BF4560ED
:1003200003D12A6805461144016028684119A14299
:100330001CBF6C6070BD61686960216808442860FA
:1003400070BD00000FB41CB5074B06AA7B4469467C
:100350000090059800F0D7FE0020694600F0E6FE08
:100360001CBC5DF814FB0000DD0D000070B50446F8
:1003700085690068C10601D5302600E02026C00747
:1003800007D070BDD4E9012130469047206A401C57
:1003900020626D1EF6D570BD70B504468569007883
:1003A000C00707D170BDD4E9012120209047206A01
:1003B000401C20626D1EF6D570BD09684A0501D546
:1003C00040B27047C905FCD500B2704709684A05BC
:1003D00001D5C0B27047C905FCD580B2704770B571
:1003E0000C460546012A05D02878800600D5EA6922
:1003F000002302E0012305E05B1C934202D2E05C93
:100400000028F9D1A869E618C01AA861286A18441A
:1004100028622846FFF7AAFF04E0D5E9012114F875
:10042000010B9047B442F8D32846FFF7B5FF70BDE3
:100430002DE9F0410646002410687529314616A5BD
:1004400010D0FFF7BAFF002802DA404213A507E0F8
:1004500031688A0701D512A502E0490704D511A524
:10046000012401E0FFF7B2FF00210A2206F1240770
:1004700009E0B0FBF2FCB0FBF2F302FB1C003030F1
:1004800078541846491C0028F3D123462A463046A2
:10049000BDE8F04100F0CABB000000002D000000E4
:1004A0002B000000200000002DE9FF5F15468A4662
:1004B0000446DFF8AC80F8440027D8E900103E4637
:1004C000CDE9001010E03AF816106A4602A800F0D4
:1004D000A3FE411C07D02178890603D5E2693918AB
:1004E00091420DD80744761C2078800602D5E06939
:1004F000B84205DDAE42E6DB3AF816000028E2D14C
:10050000A069C01BA0612046FFF730FFD8E90010AA
:10051000CDE90010002017E03AF818106A4602A84A
:1005200000F07AFEB0F1FF3F81460BD000250DF1BF
:10053000080B05E0D4E901211BF8050090476D1C6C
:100540004D45F7D308F10100B0428046E4DB206A54
:10055000384420622046FFF71FFFBDE8FF9F0000E0
:10056000FE40000070B5044621461068FFF72EFFDC
:10057000002104F1240505E000F007023032C00834
:100580006A54491C0028F7D12068002307A20507F8
:1005900007D5800600D421B1E069012304A2401EE2
:1005A000E0612046BDE8704000F040BB0000000064
:1005B0003000000070B504460D4621461068FFF774
:1005C00005FF2188090502D50F4A7A4402E00E4A48
:1005D0007A440E32002104F1240305E000F00F06F6
:1005E0000009965D5E54491C0028F7D1207800234D
:1005F000000704D5702D02D009B102231132204624
:10060000BDE8704000F012BBF23F00002DE9F05F42
:10061000894604464FF0000ADFF874B1FB44C0F885
:1006200020A02046E1688847002874D0252806D0FD
:10063000D4E901219047206A401C2062F1E700269E
:100640005F462046E16888472028054607DB312DB4
:1006500005D2781910F8200C08B10643F1E7B0076D
:1006600001D526F00406C4F81CA00027C4F818A081
:100670002A2D09D0284602F027F938B304EB870861
:10068000303DC8F8185019E059F8041B204604EB17
:1006900087029161E1688847012F054618D1E0691A
:1006A000002820DA26F020061DE0D8F8180000EB1C
:1006B000800005EB40003038C8F818002046E1689B
:1006C0008847054602F000F90028EED1012F0AD034
:1006D0002E2D08D12046E16888477F1C0546022F51
:1006E00046F02006C4DBA069002803DA404246F049
:1006F0000106A061F00701D026F010066C2D0BD08A
:10070000682D09D04C2D39D06A2D35D0742D35D0B7
:100710007A2D33D016E038E0E1682F46204688472E
:10072000B842054609D16C2F26D04FF48060E168AD
:10073000064320468847054604E06C2F1AD04FF444
:10074000807006430DB3A5F14100192802D8203569
:1007500046F400664A462946204626604E46FFF784
:10076000FFFC80B101280BD0F61D26F0070000F138
:10077000080956E74020E4E78020D8E70020D6E7C4
:1007800006F104094DE7284652E7206ABDE8F09FCC
:10079000C83F00000FB400B58DB010A909900091BA
:1007A0000B904FF0FF300A9000200C9006487844E0
:1007B0000690064878446A4607900F9909A800F009
:1007C000FBFC0DB05DF814FB270A00003F0A000097
:1007D0002DE9FF5F1D464FF0FF3B91464FF00008AB
:1007E0005F46D5E90146A96901987F1C8847296AB7
:1007F000824688470028F6D1BAF1FF3F0CD0002E80
:1008000024F4C06419DD600614D5BAF12B0F09D0A9
:10081000BAF12D0F0ED103E0584604B0BDE8F09FA9
:1008200044F48064A96901987F1C8847761E82463B
:10083000002E02DDBAF1300F03D0B9F1000F26D03F
:1008400032E0A969761E01987F1C44F40074884741
:10085000002E824605DDBAF1780F06D0BAF1580FA6
:1008600003D0B9F1000F10D01EE0B9F1000F02D093
:10087000B9F1100F18D1A969761E01987F1C24F4D4
:10088000007488478246102002E0082000E00A2019
:10089000814609E0A96908FB0908761E01987F1CBA
:1008A00044F4007488478246002E05DD49465046D0
:1008B00000F06DFC0028EDDAE96901988847A00591
:1008C00002D46FF00100A8E7E00725D1600613D538
:1008D000600502D5C8F1000000E0404629680A1D05
:1008E0002A600968220501D5087015E0220701D5A4
:1008F000088011E008600FE02868011D2960006889
:10090000210502D580F8008006E0210702D5A0F875
:10091000008001E0C0F8008038467EE710B5431C37
:1009200002E010F8011B71B18107FAD14FF00132DA
:1009300002C88C1A8C4314EAC211F9D0C01A0A06F4
:1009400003D0C01E10BDC01A10BD0A0401D0801E05
:1009500010BD0902FCD0401E10BD032A40F23080B9
:1009600010F0030C00F0158011F8013BBCF1020FF0
:10097000624498BF11F801CB00F8013B38BF11F871
:10098000013BA2F1040298BF00F801CB38BF00F888
:10099000013B11F0030300F02580083AC0F0088005
:1009A00051F8043B083A51F804CBA0E80810F5E7E9
:1009B000121D5CBF51F8043B40F8043BAFF30080CC
:1009C000D20724BF11F8013B11F801CB48BF11F841
:1009D000012B24BF00F8013B00F801CB48BF00F811
:1009E000012B704710B5203AC0F00B80B1E81850C9
:1009F000203AA0E81850B1E81850A0E81850BFF409
:100A0000F5AF5FEA027C24BFB1E81850A0E81850A7
:100A100044BF18C918C0BDE810405FEA827C24BFFB
:100A200051F8043B40F8043B08BF7047D20728BF89
:100A300031F8023B48BF11F8012B28BF20F8023BD8
:100A400048BF00F8012B70474FF000020429C0F0A6
:100A5000128010F0030C00F01B80CCF1040CBCF1F0
:100A6000020F18BF00F8012BA8BF20F8022BA1EB42
:100A70000C0100F00DB85FEAC17C24BF00F8012B27
:100A800000F8012B48BF00F8012B70474FF000021F
:100A900000B5134694469646203922BFA0E80C5074
:100AA000A0E80C50B1F12001BFF4F7AF090728BF4F
:100AB000A0E80C5048BF0CC05DF804EB890028BFCB
:100AC00040F8042B08BF704748BF20F8022B11F0F4
:100AD000804F18BF00F8012B704710B5044610F086
:100AE000030F08BF11F0030F40F015804FF0013ED7
:100AF000121FC0F20E8051F8043BA3EB0E0C2CEA3F
:100B0000030C1CEACE1C08BF40F8043BF0D0A1F156
:100B1000040102F10402521E08DB11F8013B002B14
:100B200000F8013BF7D11146FFF78EFF204610BDBC
:100B3000704770477047000000487047FC4700202E
:100B4000704770477047704738B504460A46002022
:100B50006946AFF30080002808BF38BD02460099FF
:100B6000204600F090FB012038BD012000F060BE5F
:100B7000F8B5AFF30080054600200C46102000BFFA
:100B80000646A819A0420DD9324669460020AFF3A7
:100B90000080070008BF00F04BFE0098A04218BF7D
:100BA0000546C419FFF7C8FF05600746F01D20F091
:100BB00007004619284600F05FFBB44208BFF8BDA5
:100BC000A21B31463868BDE8F84000F05CBB70B548
:100BD0000646FFF7B1FF056806F10B0020F0070499
:100BE000B4429CBF002070BD2B466A68BAB1106841
:100BF000A04210D304F1080188423CBF50685860FD
:100C000007D35168101941601168091B01605860D1
:100C10001460101D70BD13465268002AE7D12146AA
:100C20002846FFF791FF0028DED170BD2DE9F0477F
:100C30000D4699469246044600F12408016888064C
:100C400004D5E06921F01001216000E00120A842F4
:100C500001DD471B00E00027A1697A1902EB0900BA
:100C6000081AA0612078C00602D42046FFF77EFB58
:100C7000002608E0D4E901211AF806009047206A0E
:100C8000401C761C20624E45F4DB2078C0060AD555
:100C90002046FFF76BFB06E0D4E9012130209047A6
:100CA000206A401C2062381EA7F10107F4DC07E02F
:100CB000D4E9012118F805009047206A401C206201
:100CC000281EA5F10105F3DC2046FFF765FB20781F
:100CD000000602D50220BDE8F0870120FBE770473F
:100CE0002DE9FF4F0C461E464FF0FF378BB0D2E97F
:100CF0000001DDF860800A908A46C1F30A5505B903
:100D00003D46002108464FF00000BAF1000F00F404
:100D1000400005DA00EB80004FF4400101EA50008A
:100D20004FEA9059B9F1010F00DDB9460A9850EA2F
:100D30004A000ED044F61050A5F2FF3545432F145B
:100D4000B8F1000F1ED07542291E1EDDC9F1000248
:100D50001CE0B8F1010F4FF0000001D0302103E09A
:100D6000F24305E02154401CB042FBDB3046002238
:100D7000002121540B99C1F80880C1E900200FB06F
:100D8000BDE8F08FBD1B6D1CDEE74A4600DA694204
:100D900006A800F0DBFC06AB93E8070003AB83E892
:100DA000070050460A9900F00CFE8DE80700A0F5F8
:100DB00000501F3800900398002D0ADD42F21F01F9
:100DC0004A460844002303A90390684601F075F8D9
:100DD00009E0A0F500504A461F38002303A90390FC
:100DE000684601F07FF88DE807000004000C03D08E
:100DF0004FF0FF30410800E01046B8F1000F03D07B
:100E00000022009215461EE0751E05D400F055FA2A
:100E1000303262556D1EF9D5B3460122084302D027
:100E200000227F1C04E02078302801D100227F1EA0
:100E3000002A099784D01DE0112D07DA00F03DFA51
:100E4000303262556D1C50EA0102F5D1084302D0E0
:100E50000098C8B10EE00021681E05E0235C625CCA
:100E600063542254401E491C8142F7DBAB46A81B49
:100E7000401E0990002004F80B000B98099AC0F856
:100E80000880C0E9002B7AE711264FF0000857E7E9
:100E90002DE9F04F88460446D21D22F0070191B09B
:100EA000D1E90001CDE90A0101F0FAFC02460B98F4
:100EB000C00F01D02D2007E02068810701D52B202D
:100EC00002E0202101EAC000032A099001D0072A8C
:100ED00005DB03464146204600F03EFA0BE1207850
:100EE000800601D5E06900E00620B8F1650F814673
:100EF00006D0B8F1660F18D0B8F1670F70D131E0A5
:100F00000020B9F1110F009001DB112301E009F17C
:100F100001030AAA01A90CA8FFF7E2FEDDE90C70A3
:100F2000002609F10105834647E001204B46009069
:100F30004FF000470AAA01A90CA8FFF7D1FEDDE98E
:100F40000DB00C995D46002610B909F101000D188D
:100F5000B9EB050003D4C0F1FF3609F10105A5EB9B
:100F600009002BE0B9F1010F01DA4FF0010900206F
:100F7000B9F1110F0090484601DD112300E003464E
:100F80000AAA01A90CA8FFF7ABFEDDE90C704D46DB
:100F900000268346207800070AD4AB4500DA5D4678
:100FA00001A8012D04DD411911F8011C302907D0D9
:100FB0004F4502DA17F1040F04DA012082460FE0F0
:100FC0006D1EEEE7002F02DCED1B3E4403E0781CB3
:100FD000A84200DD7D1CB81B00F1010A4FF000475C
:100FE0002078000703D4AA4501DB4FF0FF3A002127
:100FF000B7F1004F0DF143088DF8431024D00220C3
:101000002B23002F01DA7F422D230A21021EA0F19B
:10101000010000DC5FB197FBF1FC97FBF1F201FBF3
:101020001C7C17460CF1300C08F801CDEEE7A8F156
:10103000010003702188090501D5452100E06521E3
:10104000A0F1010800F8011C09980FA9A1EB0807FD
:10105000FF1D00B10120411901EBEA70A16938447C
:10106000081A401EA0612078C00602D42046FFF76F
:101070007DF9099828B1D4E901219047206A401CE4
:1010800020622078C00622D52046FFF76FF91EE0C7
:10109000002E04DBB34502DD01A8805D00E03020B6
:1010A000D4E901219047206A401C2062761CAAF1F5
:1010B00001005FEA000A0AD100F0DAF8C0680168AE
:1010C000405CD4E901219047206A401C2062281E20
:1010D000A5F10105DCDC07E0D4E9012118F8010BDA
:1010E0009047206A401C2062381EA7F10107F3DCFC
:1010F0002046FFF751F9032011B041E601694A1C6F
:1011000002610878704700B58FB0CDE90131002148
:10111000059105497944CDE9031011466846FFF76A
:1011200075FA0FB000BD0000E5FFFFFF0A6802F886
:10113000010B0A60704710B5436913B1AFF300802B
:1011400001E0FFF74CF9012010BD127800F12401F5
:101150000A7000224A700122EDE711684FF0FF3259
:10116000E9E710B5436913B1AFF3008001E0FFF781
:101170009BF9012010BD128800F124018284002215
:10118000C2840122EDE711684FF0FF32E9E73A2807
:1011900000D2303820F02002412A01D3A2F13700DA
:1011A000884201D34FF0FF307047000002681144BD
:1011B0001378016018467047D16005497944516140
:1011C00004497944116200211161114600F004B90B
:1011D000EDFFFFFF7F010000426842B1016811F896
:1011E000013B23B1521EC0E900121846704701218D
:1011F000C160881E704742685AB1C368016843B92C
:1012000083688B4205D0491E521CC0E900120020A1
:1012100070474FF0FF30704770B516460C460546D4
:1012200000F01EF8036893F80101012806D0FF2C96
:101230000FD8185D68B101202C7070BDD3F807017C
:101240003246214603F2071303442846BDE87040A6
:1012500018474FF0FF3070BD00487047F44700203A
:1012600010B500F005F8001D10BD00BF29320000C8
:10127000004870471448002000210160C0E90110B7
:10128000704710207047034640688C46002818BFFE
:1012900088423CBF03464068F8D318681844884227
:1012A00007D00CF1030020F00700001D411A521A6C
:1012B0000146081D0A60FFF71DB830B5B0F10A02FB
:1012C0004FEA900E71F100034EEA817EB0EB0E0002
:1012D00061EB91014FEA101E4EEA017E10EB0E0009
:1012E00041EB11114FEA102E4EEA016E10EB0E0089
:1012F00041EB11214FEA104E4EEA014E10EB0E0069
:1013000041EB1141401841F100014FEAD00040EAA1
:1013100041704FEAD10110EB80054FEA810444EAA5
:10132000907444EB01046D1944EB0404521BA34177
:101330004FF0000348BF0A3200D530BD401C41F1D8
:10134000000130BD10B50446FFF78AFF0068005D5C
:1013500000F0010010BD00002DE9F0411F460446D9
:1013600003260168072A01F4006004DB08B116A512
:1013700005E016A503E008B115A500E015A521F0CC
:1013800010002060A069C01EA0610FB1401EA061C6
:101390002046FEF7EBFF4FB1D4E9012138469047D4
:1013A000206A401C2062C01C206206E0206AFAE726
:1013B000D4E9012115F8010B9047761EF8D220469A
:1013C000FEF7EAFFBDE8F0814E414E006E616E000F
:1013D000494E4600696E66002DE9F34F4FF0000A52
:1013E0000C4656468DB001200C9001F10C000B907C
:1013F00062690B9801219047051E2DD0252D2CD018
:10140000216A8847C0B162690B9801219047216A1F
:1014100088470028F7D16269411E0B98904700E089
:10142000761CA1690D988847216A88470028F7D162
:10143000E1690D988847DBE7A1690D988847A842C4
:10144000074601D1761CD3E7E1690D9888477F1CD8
:1014500002D1BAF1000F6FD06BE162690B980027DF
:101460003D46394690472A2804D162690B980121EC
:1014700090470125DFF8D08262690B9801219047DF
:10148000A0F130010A290AD24745E5DC07EB8701C4
:1014900000EB4107303FDFD445F01005ECE7E906EB
:1014A00001D46FF000476C280AD04C2814D068286B
:1014B00015D06A280DD074281CD07A281AD01DE0C7
:1014C00062690B98012190476C2802D045F0040511
:1014D00014E045F002050DE045F020050AE06269E0
:1014E0000B9801219047682802D045F0080505E0D7
:1014F00045F4006562690B9801219047C4E90157E2
:1015000065283DD019DC58287AD00CDC452837D026
:1015100004DC252826D041289ED131E046282FD052
:10152000472899D12CE05B2877D0612828D0632800
:101530007CD0642823D15AE0F6E06F2848D008DC3C
:1015400066281DD067281BD0692821D06E2816D1A7
:1015500027E0702845D0732868D0752847D07828B0
:101560000DD14DE0A1690D988847252805463FF427
:1015700069AFE1690D9888476D1C3FF46AAFD8E008
:101580000D9923466A466FF00100AFF30080C5E075
:1015900045F0400023464FF000026060A80736D4B3
:1015A0003EE0E8077FF447AF2068011D2160006836
:1015B000290501D506701BE7290701D5068017E725
:1015C000A90703D5F117C0E9006111E706600FE72D
:1015D00045F0400023464FF008026060A80716D48B
:1015E0001EE040F60E0125EA0100606016E045F0BD
:1015F000400023464FF00A026060A80707D40FE0BE
:1016000045F040006060A80708D5234610220D99D8
:101610006FF00100AFF3008080E007E01022234666
:101620000D996FF00100FFF7D3F877E04FF0000954
:1016300063284F46C8464B46CB4602D05B2806D0AF
:1016400038E0E80601D40120A060012732E0626999
:10165000D4F80CB00B98012190475E2807D14FF0C9
:10166000010949466269D4F80CB00B98904721698A
:1016700039B900210A4603AB43F82120491C082947
:10168000FADBD8B3216949B308F1010862690B9804
:10169000012190475D28F4D1B9F1000F09D0002055
:1016A00003A951F82020D24341F82020401C0828EB
:1016B000F7DB03AB2069002820794FEA40701ED089
:1016C0005B462246CDF80080CDE901970D990028B0
:1016D0006FF0010020DAAFF300801FE0C11703AA0A
:1016E00000EBD1614B1121F01F0102EB8302411A83
:1016F00013680120884003431360C7E719E00D9980
:10170000224600286FF00100009702DAAFF3008054
:1017100004E0AFF3008001E0AFF3008000280ADAB4
:10172000401C06D10C9820B14FF0FF300FB0BDE83F
:10173000F08F5046FAE7E90701D10AF1010A0644A1
:1017400000200C9054E60000CCCCCC0C2DE9F047E6
:10175000814616468AB0354878440DC88DE80D009C
:1017600032487844801C03AC0DC884E80D0041F673
:101770009B300844372190FBF1F290FBF1F5A5F185
:10178000800501FB12041B3C02D56442012000E0ED
:101790000020DFF898A080460027FA44AAF1BE0A8C
:1017A0000EE0E0070AD03246684607EB4701012306
:1017B0000AEB810100F096FB8DE8070064107F1CA6
:1017C000002CEED1194F7F44AE3F19E0E80715D049
:1017D00007EB04100DF1180A90E80E008AE80E00DD
:1017E000C068F04201D1981908903246012306A939
:1017F00003A800F077FB03AB83E807006D10641CBF
:10180000002DE3D14FF0010332466946B8F1000FD5
:1018100003A802D000F051FB01E000F063FBC9E92E
:101820000001C9F808200AB0BDE8F0871C2F0000AD
:1018300010B500F037F8BDE8104000F02EB875463E
:10184000FFF70AFDAE4605006946534620F0070043
:10185000854618B020B5FEF727FDBDE820404FF0C3
:1018600000064FF000074FF000084FF0000B21F08A
:101870000701AC46ACE8C009ACE8C009ACE8C00957
:10188000ACE8C0098D46704710B50446AFF3008040
:101890002046BDE81040FEF7A1BC002801D000F0B2
:1018A00069B8704710B5012805D0002103A000F0E9
:1018B00068F8012010BD09A1F8E70000534947521C
:1018C000544D454D3A204F7574206F662068656110
:1018D00070206D656D6F7279000000003A204865D8
:1018E0006170206D656D6F727920636F72727570B3
:1018F000746564004FF0013C50F8042B51F8043B30
:101900009A4221D1A2EB0C03934313EACC1317D1D3
:1019100050F8042B51F8043B9A4215D1A2EB0C036A
:10192000934313EACC130BD150F8042B51F8043B2A
:101930009A4209D1A2EB0C03934313EACC13DBD0F8
:101940004FF00000704700BFD01A01BAB1FA81F120
:1019500001F0180122FA01F0CB40C1F12001DBB205
:10196000C0B2C01A2CFA01F3D11A914311EAC31183
:10197000E6D1704701491820ABBEFEE72600020001
:10198000704770B505460C460A2000E06D1C00F05B
:1019900011F835B128780028F8D102E0641C00F075
:1019A00009F814B120780028F8D1BDE870400A2069
:1019B000AFF3008008B569468DF800000320ABBE88
:1019C00008BD5FEA400C08BF91F0000F4FEA8C237E
:1019D0004FEAC12243EA51514FEA1C5018BF00F5AB
:1019E000F0404FEA300018BF41F000415FEA6C5C04
:1019F00000F02980BCF1FF3F08BF40F080407047F5
:101A0000130C06BF12044FF0100C4FF0000C130E15
:101A100004BF12020CF1080C130F04BF12010CF1E9
:101A2000040C930F04BF92000CF1020CD30F04BFFF
:101A300052000CF1010C11464FF00002A0F11F0002
:101A4000A0EB0C00704711F0004F08BF704731F059
:101A500000413FF4D5AF0B0C06BF09044FF0100C4A
:101A60004FF0000C0B0E04BF09020CF1080C0B0F19
:101A700004BF09010CF1040C8B0F04BF89000CF1A9
:101A8000020CCB0F04BF49000CF1010CCCF1200378
:101A9000A0EB0C0022FA03F302FA0CF241EA030174
:101AA00000F10100704720F07F4C80EA030023F032
:101AB0007F47ACEB070303F57C5300F0004003F1D4
:101AC000FF032DE980494FEA154B09B44FEA14434F
:101AD00025EA0B4E24EA03480FF2042606EB1327EF
:101AE00049083E785FEA320203FB0667C7F5000744
:101AF00007FB06F64FEA54374FEAD64606F10206D0
:101B000007FB066CCCF1005C4FEA1C472CEA074C43
:101B100007FB06F40CFB06F504EB15464FEA961698
:101B200034BF00204FF000404FEAD13706FB07FCDE
:101B30004FEA1C4C0CFB0BF7D21B03FB0CF761EBC1
:101B400007010CFB0EF7B0EB074072EB17420CFBE2
:101B500008F734BFA2EB0742B2EB074261EB174133
:101B60004FEA0C444FEA910706FB07FC4FEA1C4C76
:101B70000CFB0BF7B0EBC74072EB573203FB0CF7D3
:101B800034BFA2EBC742B2EBC74261EB57310CFB4B
:101B90000EF7B0EBC70072EB57720CFB08F734BFBF
:101BA000A2EBC702B2EBC70261EB5771039F4FEA8A
:101BB000816141EA921104EBCC044FEAD1374FEA3C
:101BC000826206FB07FC42EA90124FEA80604FEA0D
:101BD0001C4C0CFB0BF7D21B03FB0CF761EB070152
:101BE0000CFB0EF7B0EB074072EB17420CFB08F74B
:101BF00034BFA2EB0742B2EB074261EB17414FEA59
:101C00008C554FEA910704EB9C2406FB07FC4FEA36
:101C10001C4C0CFB0BF7B0EBC74072EB573203FBCD
:101C20000CF734BFA2EBC742B2EBC74261EB5731AE
:101C30000CFB0EF7B0EBC70072EB57720CFB08F70A
:101C400034BFA2EBC702B2EBC70261EB577115EBD1
:101C50004C254FEA816141EA92114FEA82624FEAD4
:101C6000D13742EA901206FB07FC44F100044FEA28
:101C700080604FEA1C4C0CFB0BF7D21B03FB0CF7EC
:101C800061EB07010CFB0EF7B0EB074072EB17425C
:101C90000CFB08F734BFA2EB0742B2EB074261EB43
:101CA000174115EB1C154FEA813141EA92414FEA89
:101CB000823242EA90424FEA80304FEA0C7644F199
:101CC000000448EA03434EEA0B484FF0000EB2EB23
:101CD000080C71EB030724BF624639464EEB0E0E2B
:101CE0004FF0000B0018524149414BEB0B0BB2EB8C
:101CF000080C71EB03077BF1000B24BF62463946E9
:101D00004EEB0E0E4FF0000B0018524149414BEBC9
:101D10000B0BB2EB080C71EB03077BF1000B24BF3C
:101D2000624639464EEB0E0E51EA020718BF46F0E6
:101D3000010616EB0E7655F1000254F1000103D5B1
:101D4000BDE88901BDE80088BDE88901BDE800481B
:101D5000B619524141EB0101A3F1010370478080A4
:101D60007F7E7D7C7B7A79787776767574737271F5
:101D700071706F6E6E6D6C6C6B6A6A6968686766AD
:101D800066656464636362616160605F5F5E5E5D3F
:101D90005D5C5C5B5B5A5A595958585757565655B3
:101DA00055555454535352525251515050504F4F15
:101DB0004F4E4E4D4D4D4C4C4C4B4B4B4A4A4A4965
:101DC00049494848484747474746464645454544A8
:101DD0004444444343434342424242414141002B35
:101DE0009C4630D477002BD01CB54FEA370703B49C
:101DF0004FF010004FF01001BAF1000F06D0BCF107
:101E0000000FDCBF40F0080040F008014FF0000078
:101E10000FBCBDE810400BF1010BBBF1010F08BF77
:101E20005FEA170722BF12F1010211F101014FF021
:101E3000004143F1000300F0004043EA0000704716
:101E4000F9D35708D0E746EA064613F1400F4FEAA8
:101E500016461FDD13F1200FDFBF16430A4600218F
:101E600020335B42BED0C3F1200746EA064602FAA1
:101E700007F74FEA164646EA0706C3F1200722FA9B
:101E800003F201FA07F721FA03F14FF0000342EAE7
:101E90000702A7E746EA020646EA06464FEA164662
:101EA00046EA0106BCBF46EA0646360C4FF0000380
:101EB0004FF000024FF0000194E72DE9804C9A4664
:101EC000934670B491E8380007C831EA400C48BF27
:101ED00034EA430C03D5FFF7E6FDFFF780FFF0BCC3
:101EE000BDE8008C2DE9804C9A46934670B491E889
:101EF000380007C810F0804F08BF13F0804F03D19F
:101F000000F005F8FFF76BFFF0BCBDE8008C20F097
:101F10007F4780EA030023F07F4C07EB0C03A3F517
:101F20007C5300F00040A3F1FE0392F0000F00F09C
:101F3000B38095F0000F00F077802DE901494FEA5A
:101F400011404FEA144621EA004800FB06FC24EA4F
:101F5000064708FB06F607FB08F800FB07F718EB37
:101F600006484CEB164C4FEA124B18EB07484FEA69
:101F700015464CEB174022EA0B4E0BFB06FC25EAFC
:101F800006470EFB06F607FB0EFE0BFB07F71EEBE4
:101F9000064E4CEB164C4FF000061EEB074E4CEB7A
:101FA000174B18EB0B0840F1000018EB0E0B58EB29
:101FB000000840F100008F1A4FF000013CBFC943F8
:101FC000661B14BFB5EB040C00213CBFC943F61BD4
:101FD0004FEA17444EEA8E0E27EA04454FEA1C47A3
:101FE00004FB07622CEA074C05FB07F70CFB05F620
:101FF00004FB0CFC16EB074642EB174216EB0C46B3
:1020000042EB1C421BEB060658EB0202414146EA3A
:102010009E0601D5BDE80189B619524141EB010187
:10202000A3F10103BDE801894FEA14454FEA1147C6
:1020300024EA054621EA074C05FB07F406FB07F7EF
:102040000CFB06F105FB0CFC11EB074144EB1744BC
:102050004FEA124711EB0C4144EB1C4422EA074CB7
:1020600005FB07F206FB07F70CFB06F605FB0CFC6D
:1020700016EB074642EB174216EB0C4642EB1C45AB
:102080006A1854F1000148BF7047B619524141EB3C
:102090000101A3F10103704795F0000F37D04FEA1B
:1020A00011424FEA144721EA024624EA074C02FB98
:1020B00007F106FB07F70CFB06F402FB0CFC14EB24
:1020C000074441EB17414FEA154714EB0C4441EB31
:1020D0001C4125EA074C02FB07F506FB07F70CFB42
:1020E00006F602FB0CFC16EB074645EB174516EB14
:1020F0000C4645EB1C42121951F1000148BF7047D4
:10210000B619524141EB0101A3F1010370474FEAB7
:1021100014454FEA114724EA054621EA074C05FB1E
:1021200007F106FB07F70CFB06F24FF0000605FB74
:102130000CFC12EB074241EB174112EB0C4251EB46
:102140001C4148BF7047921841EB0101A3F1010304
:102150007047000010B500243C210A48FEF774FCCB
:102160003C220849084800F08DF9044614B10120CA
:10217000064908700648006840F0040004490860F9
:1021800010BD0000E1020020D20200201800002053
:102190001404014070B504460D4644F080060C4816
:1021A000006820F010000A490860304601F062FE25
:1021B00001F03EFE012000F063FC284601F04CFED9
:1021C0000348006840F010000149086070BD00003D
:1021D0000C0801402DE9F04105460F46012000F0B2
:1021E00028F90646082F28D2DFE807F00409270F50
:1021F00027151B2106F0F804002028601EE006F0D9
:10220000F800441C0120286018E006F0F800C41C07
:102210000320286012E006F0F800441D0520286025
:102220000CE006F0F800841D0620286006E006F0A9
:10223000F800C41D0720286000E000BF00BF214651
:10224000012000F01BFABDE8F08100002DE9F0410B
:10225000044601F061FD6F48806940F001006D495E
:1022600088616D48006820F480706B4908600846FA
:10227000006820F4007008600846006840F4806040
:1022800008600846006820F40060086063488068C1
:1022900020F47060614988606148006840F0040083
:1022A0005F4908605E480830006840F004005C49FF
:1022B0000831086008200021002804DB0A07130EFB
:1022C000584A135406E00A07170E574A00F00F0346
:1022D0001B1FD75400BF082000280DDB00BF00BF24
:1022E00000F01F02012191404209920002F1E02218
:1022F000C2F8001100BF00BF00BF4748006840F0AF
:102300001000454908600846006840F02000086059
:102310000846006820F0400008600846006820F089
:10232000800008603C480C30006840F002003A49E8
:102330000C31086000F0C8F9204600F077F800285A
:1023400064D000212046FFF745FF0A2000F098FBEB
:10235000012000F06EF805460A2000F091FB45F0E0
:1023600080063146012000F089F9642000F088FBE6
:10237000606800F0C4F8607B00F004F9A07B00F016
:10238000DDF823210C2000F079F900F020F9207A03
:1023900000F002F9FF211F2000F070F91D2000F06D
:1023A00048F80646607A0001A17A40EA4100C0B2CE
:1023B000064331461D2000F061F9B4F80B0001120C
:1023C000202000F05BF9E17A212000F057F940204D
:1023D00000F02FF8054645F03F063146402000F05A
:1023E0004DF901212046FFF7F5FE012020600A206B
:1023F00000F046FB422000F01CF80546122D02D1E9
:10240000C820BDE8F0814FF4CA70FAE740F2F71037
:10241000F7E7000000100240000801400000014002
:102420000004014000E400E018ED00E00146012056
:10243000704738B5044624F080056946284600F008
:1024400003F89DF8000038BD70B505460C460C48F1
:10245000006820F010000A490860284601F00AFDD3
:1024600001F0E6FC002001F005FD01F0E1FC207028
:102470000348006840F010000149086070BD00008A
:102480000C0801402DE9F04782460C46164600250F
:10249000A94601215046FFF79DFE1220FFF7C9FF14
:1024A000074607F0400018B3FF21122000F0E6F8BD
:1024B0001320FFF7BEFF80461020FFF7BAFF074644
:1024C00039460D2000F0DAF8464501DB404600E0D1
:1024D000304681463C212046FEF7B6FA002505E04D
:1024E0000020FFF7A6FF6055681CC5B24D45F7DB1D
:1024F00005215046FFF76EFE4846BDE8F08770B5EF
:102500000546E8044409C4F307463146062000F0B6
:10251000B5F8052000F0B4FAC4F3072631460720C9
:1025200000F0ACF8052000F0ABFAE6B23146082026
:1025300000F0A4F8052000F0A3FA70BD70B50446C1
:1025400000252D2C00DA2D24F02C00DDF024782C31
:1025500006DCA4F12D00052190FBF1F0C5B207E0E7
:10256000F02C05DC04F11E000A2190FBF1F0C5B24D
:1025700045F0200529460B2000F080F80A2000F0E5
:102580007FFA70BD10B504462146092000F076F8A8
:102590000A2000F075FA10BD70B504460C2C00DD61
:1025A0000C24072C00DA07241E20FFF742FF064602
:1025B0000A2000F065FA304664F31F10C5B22946C0
:1025C0001E2000F05BF80A2000F05AFA70BD70B5CA
:1025D0001E20FFF72EFF044644F0070529461E2063
:1025E00000F04CF80A2000F04BFA70BD10B504461C
:1025F00005212046FFF7EEFD10BD2DE9F04704460A
:10260000884615461E46D4F8009001212046FFF763
:10261000E1FD0E20FFF70DFF074639460D2000F0C3
:102620002DF82946222000F029F841460020FFF726
:10263000B1FD03212046FFF7CDFD1EE01220FFF77C
:10264000F8FE074607F0080050B1FF21122000F005
:1026500015F849462046FFF7BDFD0120BDE8F0878B
:10266000701E80B2061E05D149462046FFF7B2FD16
:102670000020F3E7012000F003FADFE770B504461D
:102680000D4644F080062946304600F001F870BD42
:1026900070B505460C460B48006820F0100009494B
:1026A0000860284601F0E6FB01F0C2FB204601F07D
:1026B000E1FB01F0BDFB0348006840F01000014958
:1026C000086070BD0C08014010B50948006820F092
:1026D000020007490860012000F0D2F904480068B0
:1026E00040F0020002490860642000F0C9F910BD02
:1026F0000C08014010B500F001F810BD0CB5002029
:10270000019000903348006840F4803031490860FF
:1027100000BF3048006800F4003000900198401C71
:102720000190009818B90198B0F5A06FF1D129482F
:10273000006800F4003010B10120009001E000209A
:1027400000900098012843D12348006840F0100011
:10275000214908600846006820F007000860084624
:10276000006840F0020008601A4840681949486053
:102770000846406848600846406840F48060486009
:102780000846406820F47C1048600846406840F4E1
:10279000E81048600846006840F08070086000BF9C
:1027A0000C48006800F000700028F9D00948406823
:1027B00020F00300074948600846406840F00200E6
:1027C000486000BF0348406800F00C000828F9D1B9
:1027D0000CBD0000001002400020024010B5FDF7C3
:1027E00047FD01F043FD18B14FF0805002490860E9
:1027F0000020FDF744FD10BD04ED00E010B51348C6
:10280000006840F00100114908600846406810491E
:1028100008400E494860084600680E4908400B49C8
:1028200008600846006820F4802008600846406878
:1028300020F4FE0048604FF41F008860FFF75AFF45
:102840004FF000600449086010BD00000010024015
:102850000000FFF8FFFFF6FE08ED00E00E48C0693B
:1028600040F002000C49C86147200C4908804FF62F
:10287000FF70091D088009481438008840F00100E5
:1028800006491439088005482838008840F00100BE
:10289000024928390880704700100240280400408F
:1028A000490050EAC12018BF04204A0D18BF40F06B
:1028B000010040F2FF72B2EB515F08BF40F002002E
:1028C000012808BF0520704730380A2801D20120AE
:1028D00070470020704700001B48806940F400707A
:1028E000194988610846806940F0040088611748EA
:1028F000006840F4006015490860081D006820F475
:102900000060091D08600846006820F002000860A9
:10291000081F006840F46040091F0860081D006837
:1029200040F46020091D08604FF470000749283109
:10293000086007480549303108600648091F0860EB
:102940000548091F08607047001002400424014038
:102950002088410AE6A0A416ACB907000FB410B550
:1029600000240EE0C4EB0410134901EB8000006862
:102970000299884204D14FF0FF3010BC5DF814FB7F
:10298000641C082CEEDB0D490968C1EB01110A4AF1
:1029900002EB81003C2202A9FDF7DFFF0748006837
:1029A000072802D10548006802E004480068401C7E
:1029B000024908600020E0E77400002004000020C5
:1029C00010B50021012001F005F9052000F058F8AC
:1029D00010BD000086B02CE01648007828B33221E4
:1029E0001548FEF731F81549D1F80A0001F06EFDDF
:1029F00004460D461149D1F8060001F067FD064670
:102A00000E480078CDE90061CDE9024504900B48FD
:102A10004379D0F801200AA10748FDF793FC0D483F
:102A200000F054FA0020034908704FF4487001F098
:102A3000D3FAD1E718000020540200201D03002023
:102A4000256420256420252E326620252E3266201E
:102A500025640000E102002000B5FFF7FFFE00BF83
:102A60000648008800F001000028F9D003480088DB
:102A700020F001000149088000BD00001004004062
:102A800000B5034603E04FF47A7000F005F8181E15
:102A9000A3F10103F7D100BD08E00021054A118030
:102AA00000BF044909880129FBDB401E0028F4D13E
:102AB000704700002404004070B505462C460DE028
:102AC000621CC2EB02120E4B03EB8201C4EB041238
:102AD00003EB82003C22FDF740FF641C072CEFDB78
:102AE0003C210848FDF7B0FF07480068002801DCDA
:102AF000002002E004480068401E0349086070BDE1
:102B00007400002018020020040000200FB470B5EB
:102B1000139C00253C212046FDF796FF9DF81800E8
:102B200020700498000E60700498000CA070049847
:102B3000000AE070049820710598000E60710598F5
:102B4000000CA0710598000AE071059820729DF8AC
:102B50001900607200BF06E00DF11A00415D05F139
:102B60000A0021546D1C9DF81900A842F4DC70BCC9
:102B70005DF814FB10B50446B4F5FA7F06D800F0F2
:102B80009DF908B1642010BD1420FCE70020FAE78D
:102B90000FB4DDE90001884216DAC74900980968D8
:102BA00088425BDCC44901980968884256DBC24907
:102BB00002984968884251DCBF49039849688842B5
:102BC0004CDB002004B07047DDE90001884215DDD0
:102BD000B94900980968884204DCB74902984968F5
:102BE000884209DDB44901980968884236DBB24958
:102BF00003984968884231DB0020E3E7DDE9020100
:102C0000884215DAAC4900980968884226DCAA494E
:102C100001980968884221DBA749029849688842DF
:102C20001CDCA54903984968884217DB0020C9E7E6
:102C3000A14900980968884204DC9F4902984968C4
:102C4000884209DD9C4901980968884206DB9A4957
:102C500003984968884201DB0020B3E7DDE90401FD
:102C6000884215DA94490498096888425ADC9249E6
:102C700005980968884255DB8F490698496888425B
:102C800050DC8D490798496888424BDB322099E730
:102C9000DDE90401884215DD874904980968884206
:102CA00004DC854906984968884209DD824905980F
:102CB0000968884236DB804907984968884231DBD9
:102CC00032207FE7DDE90601884215DA7A49049867
:102CD0000968884226DC784905980968884221DB22
:102CE00075490698496888421CDC73490798496809
:102CF000884217DB322065E76F49049809688842EB
:102D000004DC6D4906984968884209DD6A490598DE
:102D10000968884206DB684907984968884201DBF0
:102D200032204FE7DDE90801884215DA6249089848
:102D3000096888425ADC604909980968884255DB6D
:102D40005D490A984968884250DC5B490B9849689C
:102D500088424BDB4B2035E7DDE90801884215DD71
:102D6000554908980968884204DC53490A9849681B
:102D7000884209DD504909980968884236DB4E4986
:102D80000B984968884231DB4B201BE7DDE90A01DB
:102D9000884215DA484908980968884226DC46497D
:102DA00009980968884221DB43490A9849688842A2
:102DB0001CDC41490B984968884217DB4B2001E72E
:102DC0003D4908980968884204DC3B490A984968EB
:102DD000884209DD384909980968884206DB364986
:102DE0000B984968884201DB4B20EBE6DDE90C01DA
:102DF000884215DA30490C98096888425ADC2E4915
:102E00000D980968884255DB2B490E98496888421D
:102E100050DC29490F98496888424BDB6420D1E691
:102E2000DDE90C01884215DD23490C9809688842C8
:102E300004DC21490E984968884209DD1E490D9835
:102E40000968884236DB1C490F984968884231DBA3
:102E50006420B7E6DDE90E01884215DA16490C98C0
:102E60000968884226DC14490D980968884221DBEC
:102E700011490E98496888421CDC0F490F9849682F
:102E8000884217DB64209DE60B490C98096888424C
:102E900004DC09490E984968884209DD06490D9805
:102EA0000968884206DB04490F984968884201DBBB
:102EB000642087E6002085E68602002002488068BC
:102EC000C0F340307047000000100140F0B5ADB0D5
:102ED0000546002628788DF8800068780006A978D5
:102EE00040EA0140E97840EA0120297908431E9030
:102EF00068790006A97940EA0140E97940EA0120B1
:102F0000297A08431F90687A8DF8810032210DF1EB
:102F10008200FDF799FD002406E004F10A00295C17
:102F20000DF182000155641C9DF88100A042F4D887
:102F30009DF88000022806D003287DD006287CD08A
:102F400007287BD1F5E090491F980968884238D15D
:102F50008E4800688C490968884232D08A480068E7
:102F60000F908B48109003208DF844008948FDF79E
:102F7000D5FCC0B28DF8450032210DF14600FDF7B9
:102F800063FD8448FDF7CAFC07463A4681490DF1C6
:102F90004600FDF7A2FD2C2213A96846FDF722FD8D
:102FA0000FA80FC8FFF7DAFC7B490F9808607B4831
:102FB000031F1A1F7AA100900DF18200FDF7EAFBB2
:102FC00037E072491F980968884232D06E491F98CD
:102FD000096888422DD0002412E0C4EB0410734924
:102FE00001EB8000007A032809D1C4EB041001EB47
:102FF000800000681F99884201D1012604E0641C0A
:103000006B4800688442E8D300BF46B92C2222A94D
:103010006846FDF7E7FC1EA80FC8FFF79FFC5F4856
:10302000031F1A1F5EA100900DF18200FDF7B2FB95
:10303000002656491F9802E003E030E09FE0086058
:103040009EE055491E980968884224D0002414E067
:10305000C4EB0410554901EB8000007A02280BD123
:10306000C4EB041001EB800040681E99884203D134
:10307000E0B2FFF721FD04E0641C4D480068844283
:10308000E6D300BF2C2222A96846FDF7ABFC1EA8A0
:103090000FC8FFF763FC40491E98086070E03A498A
:1030A0001F98096888422DD142480068364909684E
:1030B000884227D0062040490870404AA2F1080102
:1030C000081D0B1FCDE90A30CDE90C120C38103960
:1030D000021F0B1FCDE90632CDE908101038103958
:1030E000021F0B1FCDE90232CDE904101038103950
:1030F000031F0A1FCDE9001031A10DF18200FDF779
:1031000049FB12E02B491F98096888420DD01E49DF
:103110001F980968884208D02C2222A96846FDF72A
:1031200061FC1EA80FC8FFF719FC22491F98086010
:1031300026E015491F980968884209D12C48006883
:1031400011490968884203D007201B49087012E022
:1031500027491F98096888420DD00B491F980968B4
:10316000884208D02C2222A96846FDF73BFC1EA805
:103170000FC8FFF7F3FB1E491F98086000E000BF6F
:1031800000BF2DB0F0BD0000B445000808000020CD
:10319000AB7F3101540200200C0000208E02002081
:1031A00025642025642025640000000074000020B0
:1031B00004000020100000201D030020CE0200208B
:1031C000256420256420256420256420256420258D
:1031D000642025642025642025642025642025643E
:1031E0002025642025642025642025642025640092
:1031F0001400002070B50446002504E0605D012144
:1032000000F0E8FC6D1C605D0028F7D170BD70B562
:1032100004460D46002615B904F18000C6B2012D02
:1032200002D104F1C000C6B20021304600F0D2FC49
:103230006420FFF731FC70BD10B500F089F806215D
:103240000120FDF743F8414908600846006800780E
:1032500020F00F00096808703C480068007820F0F2
:10326000F000103039490968087038480068407823
:1032700020F00F000A30354909684870334800686B
:10328000407820F0F000B0303049096848702F488D
:103290000068807820F00F00401D2C490968887074
:1032A0002A480068807820F0F000603027490968DB
:1032B000887026480068C07820F00F00C01D2349A0
:1032C0000968C87021480068C07820F0F00080309C
:1032D0001E490968C8701D480068007920F00F0079
:1032E00009301A490968087118480068007920F007
:1032F000F000C0301549096808710D2013490968AC
:10330000487100210E2000F065FC0520FFF7B8FB96
:1033100000213C2000F05EFC0520FFF7B1FB0021FE
:103320000C2000F057FC0520FFF7AAFB002101202C
:1033300000F050FC0520FFF7A3FB0021022000F065
:1033400049FC0520FFF79CFB10BD00000000002099
:103350001C49896941F008011A4A916100211A4A01
:103360001160002010E018490968012282401143D1
:10337000154A116011460968421C01239340194304
:10338000114A1160011DC8B21F28ECDB00210E4A52
:10339000121D1160002012E00B49091D0A6801216D
:1033A00081400A430849091D0A600968421C01233B
:1033B00093401943044A121D1160011DC8B21F2811
:1033C000EADB704700100240000C014039B1084AA6
:1033D0001268012383401A43054B1A6006E0044A31
:1033E0001268012383409A43014B1A607047000022
:1033F0000C0C014010B50B4A126800EB800322FA56
:1034000003F101F01F01074A12680A43054B1A60D5
:103410001A46126800EB80041F23A3409A43014B15
:103420001A6010BD342401401FB5684600F08EF9C3
:103430000F2269463748FDF790FAFFF70DFBFFF7BB
:10344000FBFE09E000210846FFF7E1FE32A0FFF78E
:10345000D1FE6420FFF714FB2E48FEF7F7FEC828C4
:10346000F0D100F057F9FFF737FA00F0F5FA6420D1
:1034700000F036FB002000F027FB012000F0D8FA16
:10348000FFF79EFA2348FFF7B1F84FF4FA60FFF711
:10349000F7FA00F02DFEFFF793FA23482349C1F80D
:1034A0000A002348C1F80600032000F033FBC0F5F2
:1034B00080501E49C1F80100072008700020042335
:1034C000CDE90030029003464FF4807219A10390B9
:1034D0001B4800F04DFE00200123CDE90030029092
:1034E00003464FF47A7217A10390184800F040FE8B
:1034F00000200123CDE90030029003464FF47A7298
:1035000013A10390144800F033FE00F08FFD00BFBC
:10351000FEE70000D2020020506C65617365205701
:103520006169742E2E2E2100CDCC8C3F1D0300200E
:103530003333534070726F636573735461736B0000
:103540005D35000852785461736B0000D52900087E
:1035500054785461736B00008D3B0008AAB00024BE
:1035600061E000F00FF9032000F0D4FAC0F58050BC
:103570002D49C1F8010000210846FFF748FE34211B
:103580001DA8FDF783FA294A29A11DA8FCF7DAFE38
:103590001DA8FFF72FFE01210020FFF738FE342180
:1035A0001DA8FDF773FA204842790078072801D159
:1035B00021A000E023A001461DA8FCF7C3FE1DA822
:1035C000FFF718FE18480078072807D11649D1F8E8
:1035D0000100FFF7CFFA1449487114E0124800784F
:1035E000062810D130221A496846FDF7B6F9402264
:1035F000174910390DA8FDF7B0F90DA80FC8FFF74E
:10360000C7FA0949487108484079A04205D0FFF738
:10361000D7F90549487900F057FA034844794FF43F
:10362000487000F0D9FC9CE71D030020AC7F3101FD
:1036300049443A20256400004175746F2C202564AC
:10364000000000004D616E75616C2C202564000047
:10365000A20200200FB42DE9F0419CB006469DF86F
:103660009400032802D140F6B83501E04FF47A7592
:10367000376801213046FEF7ADFD0120FFF700FA63
:1036800026E007213046FEF7A5FD02E00120FFF706
:10369000F7F91220FEF7CDFEC0F380000028F5D028
:1036A0001220FEF7C6FE044604F0010038B1FF21E7
:1036B0001220FEF7E3FF284600F08EFC08E0FF2111
:1036C0001220FEF7DBFF39461148FEF783FD00E0CC
:1036D000D7E700BF0DA82C2227A90B906846FDF75D
:1036E00081F923A80FC8FFF711FA0DA8FDF716F905
:1036F00000F0FF084FF47A7342460DA90448FEF724
:103700007CFF00201CB0BDE8F0015DF814FB000058
:10371000D20200200B48806940F0100009498861FE
:103720000948406840F480000749486008464068FE
:1037300020F4300048600846C06820F40050C8609B
:103740007047000000100240001001401FB5044601
:1037500040F2B110019007208DF808008DF80900A3
:1037600001208DF80A00FF208DF80D0064208DF8EF
:103770000E000820ADF80B000F2269462046FDF729
:10378000ECF81FBD10B54AF6AA20054908600320D1
:10379000FFF776F94CF6CC400149086010BD0000F7
:1037A0000030004010B504460E48006844600E48E2
:1037B0000068844207D20B480168091D0B48006865
:1037C00000F0ACFB0CE007480168091D08480068E0
:1037D00000F0A4FB07480068844201D20548046059
:1037E00010BD00001C00002030000020240000203C
:1037F000200000204C0000202DE9F04106460F4635
:103800001FB9B00000F0DCF800E03846054655B1BD
:103810004C2000F0D5F804460CB1256304E028469E
:1038200000F0C2FB00E000242046BDE8F08100006B
:1038300070B523E000F024FC1348006808B90120AB
:1038400000E00020054600F0A1FDBDB900F08CFBB2
:103850000D48C068C468201D00F03CFB0B480068A0
:10386000401E0A4908600A480068401E084908606E
:1038700000F08AFB204600F00DF800BF0448006805
:103880000028D7D170BD0000CC0300202C00002000
:103890002800002010B50446206B00F085FB204670
:1038A00000F082FB10BD000000BFFFF7C1FF03481E
:1038B00000680128F9D900F083FBF6E72C0300200B
:1038C0002DE9F04704460F4616469946DDF820805C
:1038D000002507E0795D04F134004155785D00B9B9
:1038E00002E06D1C102DF5D300BF002143200155CF
:1038F000052E00D30426E662201D00F00CFB04F127
:10390000180000F008FB2461C6F10500A0616462A4
:103910000020606484F84800BDE8F08710B50024FA
:1039200007E004EB84010F4A02EB810000F0E6FAA5
:10393000641C052CF5D30C4800F0E0FA0B4800F0AD
:10394000DDFA0B4800F0DAFA0A4800F0D7FA0A4824
:1039500000F0D4FA0448094908600448084908609E
:1039600010BD00002C03002090030020A4030020C1
:10397000B8030020CC030020E0030020200000203A
:10398000240000200A490968096809B9012100E0FA
:10399000002121B14FF0FF31064A116006E00449D1
:1039A0000968C968C868034A416811607047000027
:1039B000200000204C000020FCF75AFC00BFFEE76E
:1039C00070B50446002504F0070020B104F007009C
:1039D000C0F10800044400F053FB1248006820B90D
:1039E000114820F007000F49086010480068204483
:1039F00044F2F831884210D20C48006820440B4948
:103A00000968884209D907480068084909684518C3
:103A10000648006820440549086000F0B7FC2846C5
:103A200070BD00005C000020FC0300205800002056
:103A300040B14FF08041098841F001014FF08042D0
:103A4000118007E04FF08041098821F001014FF01B
:103A500080421180704700001948C06940F00100A1
:103A60001749C8610846806940F00400886115481C
:103A7000006840F00B00134908600846006820F019
:103A800004000860C804008820F01000C904088001
:103A90000846008C40F0010008840846008C20F0A5
:103AA000020008840846008B40F06800088300206C
:103AB000888408850846808A40F001008882704723
:103AC0000010024000080140642808DC4FF08041EB
:103AD000898D4143642291FBF2F112079186704770
:103AE00003490968B1FBF0F14FF0804291857047BE
:103AF00060000020001F4FF080730360001F016012
:103B0000001F034B03601438026020387047000028
:103B1000B939000810B50446204600F0D7F80F4820
:103B2000006804EB44020721914008430B490860F8
:103B30002046FFF75FFC00F0B1F900BF07481038DE
:103B4000006800F002000028F8D0204600F008F8D5
:103B500002483C300068C0F30B0010BD1024014047
:103B6000094A126802F01F01074A126800EB80033D
:103B700001FA03F31A43044B1A601A46126822F042
:103B80001F021A6070470000342401409CB019E005
:103B90000D48006890B130220C496846FCF7DDFE04
:103BA0003C220A490C390DA8FCF7D7FE08480DA99C
:103BB0000EC9FFF74FFD0020FEF77EFF4FF448705F
:103BC00000F00AFAE4E70000040000208000002072
:103BD000D202002070B504460D4645B93A4909683D
:103BE000097801F00F000021FFF7F0FB09E0012D3B
:103BF00007D135490968097801F00F000121FFF765
:103C0000E5FB3220FEF748FF04F001012E4A12685E
:103C100052781009FFF7DAFB2B490968897801F01F
:103C20000F00C4F34001FFF7D1FB274909688978E9
:103C30000809C4F38001FFF7C9FB23490968C97863
:103C400001F00F00C4F3C001FFF7C0FB1E49096873
:103C5000C9780809C4F30011FFF7B8FB1A490968CD
:103C6000097901F00F00C4F34011FFF7AFFB1649CB
:103C7000096809790809C4F38011FFF7A7FBE10976
:103C8000114A12685079FFF7A1FB0F49096849787A
:103C900001F00F000021FFF799FB0A20FEF7FCFE60
:103CA00009490968497801F00F000121FFF78EFBEF
:103CB0000A20FEF7F1FE04490968497801F00F0077
:103CC0000021FFF783FB70BD000000201149096847
:103CD000830001229A4091430E4A116011460968FF
:103CE0008200521C0123934099430A4A11601146F5
:103CF00009688200921C012393409943054A116090
:103D0000114609688200D21C012393409943014A5D
:103D100011607047000801404148806940F001008F
:103D20003F4988610846806940F4805088610846B0
:103D3000806940F0040088613A4800683A490843C5
:103D4000384908600846006820F48020086008466A
:103D5000006820F4002008600846006840F4000075
:103D600008600846006820F4800008600846006883
:103D700020F0807008600846006820F0007008603D
:103D80000846006840F0806008600846006820F03F
:103D9000006008600846006820F08040086008461F
:103DA000006840F0004008601E480C30006840F099
:103DB00010001C490C3108601C48008840F00400C9
:103DC0001A4908800846008820F4005008800846F8
:103DD000008820F4006008800846008820F4806095
:103DE00008800846008820F0800008800846008887
:103DF00040F0100008800846808840F00400888069
:103E00000846008820F0010008800846008820F05D
:103E1000020008800846008840F040000880704793
:103E20000010024000080140000033300030014023
:103E300000BF0848008900F080000028F9D100BFC9
:103E40000448008900F001000028F9D00148808969
:103E5000C0B270470030014000B5034605E013F8DA
:103E6000010B00F007F8FFF7E3FF18780028F6D100
:103E700000BD000000BF0849098901F08001002948
:103E8000F9D1C1B2044A918100BF0349098901F007
:103E900002010029F9D070470030014010B50C48EC
:103EA000006840F001000A4908600A20FEF7E8FDBA
:103EB0000748006840F00100054908600A20FEF745
:103EC000DFFD0348006840F480000149086010BD30
:103ED0000824014001460A69D1E901309860D1E91E
:103EE000010358605068884201D188685060002002
:103EF00008611068401E10601068704700F10801EA
:103F000041604FF0FF31816000F10801C160016143
:103F100000210160704700210161704710B5024621
:103F20000B685C1C0CB9106907E002F1080000E0A6
:103F30004068446824689C42FAD944684C604C68E4
:103F4000A160886041600A611468641C146010BD3F
:103F500042684A6093688B60936859609160086119
:103F600003685B1C0360704710B5FCF781F90548D6
:103F70000068401C03490860BFF34F8FBFF36F8F89
:103F800010BD00005400002010B506480068401E17
:103F9000044908600846006810B90020FCF76FF972
:103FA00010BD0000540000207047000003484FF08F
:103FB000E021486107200861704700003F190100B7
:103FC0004FF0805003490860BFF34F8FBFF36F8FEE
:103FD0007047000004ED00E070B504460026DCB137
:103FE00000F04EF80E48006805190E480068001DE4
:103FF000FFF770FF50B90B48006890F82C100120B3
:104000008840094909688143074801602846FFF74D
:10401000C9FB00F0BBF906460EB9FFF7D1FF70BD32
:10402000300000201C000020340000201FB50020BC
:10403000009001900290034680220BA103900C484F
:1040400000F096F80446012C0CD1FCF711F9A01EE3
:1040500008490860012008490860002007490860F5
:1040600000F06CF81FBD000049444C450000000002
:10407000A93800084C000020380000203000002043
:1040800002480068401C0149086070475000002049
:104090001248006818B10120114908601DE0002095
:1040A0000F4908600F480068B0FA80F0C0F11F01A6
:1040B00001EB81020C4B03EB8200426852684260C4
:1040C00000F108024368934202D14268526842609C
:1040D0004268D268054B1A6000BF7047500000204C
:1040E00040000020340000202C0300201C00002091
:1040F0001048406A40F001000E49486200BF0D4878
:10410000406A00F002000028F9D045F255500A49F3
:10411000086000BF0848C06800F003000028F9D11B
:1041200006200549486040F6FF7088604CF6CC4098
:1041300008607047001002400030004010B50A4887
:10414000006840F47F00084908600846006840F0B5
:104150007F400860FFF72AFF002004490860FCF751
:1041600055F8002010BD000020ED00E054000020B4
:104170002DE9FF4F81B0804615469946DDE90E7A5C
:1041800028461099FFF738FB0446002C4FD0681ED4
:10419000216B01EB800B2BF0070B00953A46204674
:1041A000119B0299FFF78CFB4A4641465846FFF7A0
:1041B000A1FC2060BAF1000F01D0CAF80040FFF75F
:1041C000D3FE24480068401C224908602248006849
:1041D00040B9214804600846006801280CD1FFF767
:1041E0009DFB09E01D48006830B91B480068C06AA3
:1041F000B84201D81848046019480068401C1849A2
:10420000086094F82C10012088401649096808437A
:1042100014490860E16A01EB8101134A02EB810055
:10422000211DFFF795FE0126FFF7AEFE01E04FF0DE
:10423000FF36012E09D10948006830B106480068F0
:10424000C06AB84201D2FFF7BBFE304605B0BDE8F8
:10425000F08F00002C0000201C00002038000020FF
:1042600048000020340000202C0300202DE9F041FC
:1042700000273B480068002865D13A480068401C88
:1042800038490860084606688EB93748D0F800807B
:1042900036480068344908603448C0F80080344823
:1042A0000068401C32490860FFF76CFB00BF3148D2
:1042B000006886423BD300BF2B480068006808B9FD
:1042C000012000E0002020B14FF0FF3029490860B4
:1042D0002CE025480068C068C4686568AE4202D218
:1042E0002448056022E0201DFFF7F4FDA06A18B104
:1042F00004F11800FFF7EEFD94F82C10012088401F
:104300001D49096808431C490860E16A01EB810105
:104310001A4A02EB8100211DFFF71AFE1849E06AD4
:104320000968C96A8842C7D30127C5E700BF144896
:104330000068C06A00EB8000104951F82000012895
:1043400006D9012704E00F480068401C0D490860A9
:104350000D48006800B101273846BDE8F081000033
:104360005000002030000020200000202400002009
:10437000440000204C000020340000202C030020CA
:104380001C0000203C0000204000002070B50025EB
:10439000FFF7EAFD2C480068401E2B4908600846DC
:1043A000006800284BD129480068002847D024E045
:1043B0002748C068C46804F11800FFF78BFD201D72
:1043C000FFF788FD94F82C100120884021490968E6
:1043D000084320490860E16A01EB81011E4A02EBB3
:1043E0008100211DFFF7B4FD1C49E06A0968C96A14
:1043F000884202D301201A4908601548006808B9AC
:10440000012000E000200028D2D01648006878B1D2
:104410000AE0FFF72BFF10B1012011490860114895
:104420000068401E0F4908600E4800680028F0D15F
:104430000B480068012802D10125FFF7C1FDFFF7F5
:10444000A3FD284670BD0000500000202C00002075
:10445000B8030020340000202C0300201C000020A2
:10446000400000203C00002010B500290AD0087848
:10447000002807D005487844FDF73CFA002801D011
:10448000002010BD0248784410BD00003A02000030
:104490003202000010B500290AD00878002807D0A1
:1044A00005487844FDF726FA002801D0002010BD09
:1044B0000248784410BD00002A02000022020000D9
:1044C0000808A0F500114FEA3101704743004FEA98
:1044D000D30C4FEA3C0C43401FBF40070CF1605126
:1044E00013F0FE4F70471CF0006F03D100200CF05A
:1044F000004170470CF0004343EA507010B540EAA9
:10450000CC0000F00EF800BF000000924FEA00015E
:10451000FFF7D6BF4FF000414FF00000A1F500219A
:1045200070470EF1020E2EF0030E5EF8044B24428B
:1045300004D44FEA4102B2F17F4F11D84FEA400351
:10454000B3F17F4F0CD80ED14FEAD07CB2F17F4F40
:104550000CEB4C0C0CF1020C08BF4CEBD17C04E0D2
:104560004FF0080C01E04FEAD17C0CEB4C0324FA2D
:1045700003F404F00704B4F1040C06D20EEB840C2F
:10458000BDE810404CF0010C6047DFE80CF0070874
:1045900002024FF00040A0F5800010BD0846420026
:1045A00018BFD2F1807288BF00F0004010BDFCF748
:1045B0006FBC0000AC7F3101000000000000000073
:1045C0003031323334353637383941424344454649
:1045D0004030580030313233343536373839616243
:1045E0006364656640307800040000080000000045
:1045F0000000000200010000100000000240000066
:10460000000000A00000000005400000000000C8FD
:10461000000000000C4000000000409C0000000072
:10462000194000000020BCBE000000003440000023
:10463000BFC91B8E00000004B5400000504BCFD016
:104640006607E2CF010000006C4100003E8251AAE3
:10465000DFEEA73401000000D9420000DCB5A0E283
:104660003A301F97FFFFFFFFB4450000FD25A0C8AB
:10467000E9A3C14FFFFFFFFFFF3F000000000080E4
:1046800000000000FF3F000000000080000000006C
:10469000DC4700080000002074000000280100082A
:1046A0005048000874000020E44D00004401000858
:1046B0001C00000043000000F8FFFFFF0C0000009A
:1046C0000E0000000F0000002E000000100100008E
:1046D00043000000F8FFFFFF0040404040404040E2
:1046E00040404141414141404040404040404040C5
:1046F0004040404040404040400502020202020269
:1047000002020202020202020220202020202020B7
:1047100020202002020202020202909090909090CB
:104720001010101010101010101010101010101089
:1047300010101010020202020202888888888888FD
:1047400008080808080808080808080808080808E9
:1047500008080808020202024000000000000000F1
:104760000000000000000000000000000000000049
:104770000000000000000000000000000000000039
:104780000000000000000000000000000000000029
:104790000000000000000000000000000000000019
:1047A0000000000000000000000000000000000009
:1047B00000000000000000000000000000000000F9
:1047C00000000000000000000000000000000000E9
:1047D00000000000000000000000000000000000D9
:1047E00000000000000000000000000000000000C9
:1047F00000000000000000000000000000000000B9
:1048000000000000000000000000000000000000A8
:104810000000000000000000000000000000000098
:104820000000000000000000000000000000000088
:10483000AAAAAAAA000000000000000000A24A04E0
:104840000000000000000000010203040607080940
:04000005080000ED02
:00000001FF
